{
  "contractName": "CfResolverRegistry",
  "abi": [
    {
      "constant": true,
      "inputs": [
        {
          "name": "",
          "type": "bytes32"
        }
      ],
      "name": "registry",
      "outputs": [
        {
          "name": "",
          "type": "address"
        }
      ],
      "payable": false,
      "stateMutability": "view",
      "type": "function"
    },
    {
      "constant": false,
      "inputs": [
        {
          "name": "_contractCode",
          "type": "bytes"
        },
        {
          "name": "_players",
          "type": "address[2]"
        },
        {
          "name": "_v",
          "type": "uint8[2]"
        },
        {
          "name": "_r",
          "type": "bytes32[2]"
        },
        {
          "name": "_s",
          "type": "bytes32[2]"
        }
      ],
      "name": "deployContract",
      "outputs": [],
      "payable": false,
      "stateMutability": "nonpayable",
      "type": "function"
    },
    {
      "constant": true,
      "inputs": [
        {
          "name": "_cfAddress",
          "type": "bytes32"
        }
      ],
      "name": "getContract",
      "outputs": [
        {
          "name": "",
          "type": "address"
        }
      ],
      "payable": false,
      "stateMutability": "view",
      "type": "function"
    }
  ],
  "bytecode": "0x608060405234801561001057600080fd5b50610569806100206000396000f300608060405260043610610057576000357c0100000000000000000000000000000000000000000000000000000000900463ffffffff1680634860231a1461005c5780637ef5029814610181578063e16c7d98146101f2575b600080fd5b34801561006857600080fd5b5061017f600480360381019080803590602001908201803590602001908080601f01602080910402602001604051908101604052809392919081815260200183838082843782019150505050505091929192908060400190600280602002604051908101604052809291908260026020028082843782019150505050509192919290806040019060028060200260405190810160405280929190826002602002808284378201915050505050919291929080604001906002806020026040519081016040528092919082600260200280828437820191505050505091929192908060400190600280602002604051908101604052809291908260026020028082843782019150505050509192919290505050610263565b005b34801561018d57600080fd5b506101b06004803603810190808035600019169060200190929190505050610405565b604051808273ffffffffffffffffffffffffffffffffffffffff1673ffffffffffffffffffffffffffffffffffffffff16815260200191505060405180910390f35b3480156101fe57600080fd5b506102216004803603810190808035600019169060200190929190505050610438565b604051808273ffffffffffffffffffffffffffffffffffffffff1673ffffffffffffffffffffffffffffffffffffffff16815260200191505060405180910390f35b600080600080886040518082805190602001908083835b60208310151561029f578051825260208201915060208101905060208303925061027a565b6001836020036101000a038019825116818451168082178552505050505050905001915050604051809103902093506103278860006002811015156102e057fe5b6020020151858960006002811015156102f557fe5b602002015189600060028110151561030957fe5b602002015189600060028110151561031d57fe5b602002015161047c565b925061038288600160028110151561033b57fe5b60200201518589600160028110151561035057fe5b602002015189600160028110151561036457fe5b602002015189600160028110151561037857fe5b602002015161047c565b915082801561038e5750815b151561039657fe5b885160208a016000f0905080600080866000191660001916815260200190815260200160002060006101000a81548173ffffffffffffffffffffffffffffffffffffffff021916908373ffffffffffffffffffffffffffffffffffffffff160217905550505050505050505050565b60006020528060005260406000206000915054906101000a900473ffffffffffffffffffffffffffffffffffffffff1681565b6000806000836000191660001916815260200190815260200160002060009054906101000a900473ffffffffffffffffffffffffffffffffffffffff169050919050565b600080600186868686604051600081526020016040526040518085600019166000191681526020018460ff1660ff1681526020018360001916600019168152602001826000191660001916815260200194505050505060206040516020810390808403906000865af11580156104f6573d6000803e3d6000fd5b5050506020604051035190508673ffffffffffffffffffffffffffffffffffffffff168173ffffffffffffffffffffffffffffffffffffffff1614915050959450505050505600a165627a7a723058201b98bed0c347bc83f33545b7e3e0f8f803f099f006aa330bffed1756ad748fbb0029",
  "source": "pragma solidity ^0.4.23;\n\n/// @title Counter factual registry for deploying and fetching contracts\ncontract CfResolverRegistry {\n    \n    mapping(bytes32 => address) public registry;\n    \n    // potentialy store the contract bytecode (of our resolvers)\n    // so the user who deploys them has a reduced gas cost\n\n    \n    /// @notice Deploys the resolver with the bytecode both the users agreed on\n    /// @param _contractCode Bytecode of the contract to be deployed\n    /// @param _players Adresses of the players which signed the contract code\n    function deployContract(bytes _contractCode, address[2] _players,  uint8[2] _v, bytes32[2] _r, bytes32[2] _s) public {\n        \n        bytes32 cfAddress = keccak256(_contractCode);\n        \n        bool player1Signed = _checkSignature(_players[0], cfAddress, _v[0], _r[0], _s[0]);\n        bool player2Signed = _checkSignature(_players[1], cfAddress, _v[1], _r[1], _s[1]);\n        \n        assert(player1Signed && player2Signed);\n        \n        address contractAddr;\n        \n        assembly {\n            contractAddr := create(0, add(_contractCode, 0x20), mload(_contractCode))\n        }\n        \n        registry[cfAddress] = contractAddr;\n    }\n    \n    /// @notice Checks if the user has signed the cfAddress thats about to be deployed\n    function _checkSignature(address _playerAddr, bytes32 _cfAddr, uint8 _v, bytes32 _r, bytes32 _s) private pure returns(bool) {\n\t\taddress signedAddr = ecrecover(_cfAddr, _v, _r, _s);\n\t\t\n\t\treturn signedAddr == _playerAddr;\n    }\n    \n    function getContract(bytes32 _cfAddress) public view returns(address) {\n        return registry[_cfAddress];\n    }\n}",
  "sourcePath": "/Users/nenadpalinkasevic/Desktop/blockchain/StateChannels/solidity/contracts/CfResolverRegistry.sol",
  "compiler": {
    "name": "solc",
    "version": "0.4.24+commit.e67f0147.Emscripten.clang"
  },
  "schemaVersion": "2.0.0",
  "updatedAt": "2018-07-24T08:29:07.294Z"
}