{
  "contractName": "ECTools",
  "abi": [
    {
      "constant": true,
      "inputs": [
        {
          "name": "hash",
          "type": "bytes32"
        },
        {
          "name": "sig",
          "type": "bytes"
        }
      ],
      "name": "recover",
      "outputs": [
        {
          "name": "",
          "type": "address"
        }
      ],
      "payable": false,
      "stateMutability": "pure",
      "type": "function"
    },
    {
      "constant": true,
      "inputs": [
        {
          "name": "_msg",
          "type": "bytes32"
        }
      ],
      "name": "toEthereumSignedMessage",
      "outputs": [
        {
          "name": "",
          "type": "bytes32"
        }
      ],
      "payable": false,
      "stateMutability": "pure",
      "type": "function"
    },
    {
      "constant": true,
      "inputs": [
        {
          "name": "_msg",
          "type": "bytes32"
        },
        {
          "name": "sig",
          "type": "bytes"
        }
      ],
      "name": "prefixedRecover",
      "outputs": [
        {
          "name": "",
          "type": "address"
        }
      ],
      "payable": false,
      "stateMutability": "pure",
      "type": "function"
    }
  ],
  "bytecode": "0x608060405234801561001057600080fd5b5061047f806100206000396000f300608060405260043610610057576000357c0100000000000000000000000000000000000000000000000000000000900463ffffffff16806319045a251461005c578063380388f114610113578063fc960e15146101ca575b600080fd5b34801561006857600080fd5b506100d16004803603810190808035600019169060200190929190803590602001908201803590602001908080601f0160208091040260200160405190810160405280939291908181526020018383808284378201915050505050509192919290505050610217565b604051808273ffffffffffffffffffffffffffffffffffffffff1673ffffffffffffffffffffffffffffffffffffffff16815260200191505060405180910390f35b34801561011f57600080fd5b506101886004803603810190808035600019169060200190929190803590602001908201803590602001908080601f016020809104026020016040519081016040528093929190818152602001838380828437820191505050505050919291929050505061030f565b604051808273ffffffffffffffffffffffffffffffffffffffff1673ffffffffffffffffffffffffffffffffffffffff16815260200191505060405180910390f35b3480156101d657600080fd5b506101f96004803603810190808035600019169060200190929190505050610330565b60405180826000191660001916815260200191505060405180910390f35b600080600080604185511415156102315760009350610306565b6020850151925060408501519150606085015160001a9050601b8160ff16101561025c57601b810190505b601b8160ff16141580156102745750601c8160ff1614155b156102825760009350610306565b600186828585604051600081526020016040526040518085600019166000191681526020018460ff1660ff1681526020018360001916600019168152602001826000191660001916815260200194505050505060206040516020810390808403906000865af11580156102f9573d6000803e3d6000fd5b5050506020604051035193505b50505092915050565b60008061031b84610330565b90506103278184610217565b91505092915050565b600060606040805190810160405280601c81526020017f19457468657265756d205369676e6564204d6573736167653a0a333200000000815250905080836040516020018083805190602001908083835b6020831015156103a65780518252602082019150602081019050602083039250610381565b6001836020036101000a0380198251168184511680821785525050505050509050018260001916600019168152602001925050506040516020818303038152906040526040518082805190602001908083835b60208310151561041e57805182526020820191506020810190506020830392506103f9565b6001836020036101000a03801982511681845116808217855250505050505090500191505060405180910390209150509190505600a165627a7a72305820453f710b879b1521517886c982fce1cf9bbbb56471666d92aeb5a8a690937bf90029",
  "source": "pragma solidity ^0.4.18;\n\ncontract ECTools {\n\n  /**\n   * @dev Recover signer address from a message by using his signature\n   * @param hash bytes32 message, the hash is the signed message. What is recovered is the signer address.\n   * @param sig bytes signature\n   */\n  function recover(bytes32 hash, bytes sig) public pure returns (address) {\n    bytes32 r;\n    bytes32 s;\n    uint8 v;\n\n    //Check the signature length\n    if (sig.length != 65) {\n      return (address(0));\n    }\n\n    // Divide the signature in r, s and v variables\n    assembly {\n      r := mload(add(sig, 32))\n      s := mload(add(sig, 64))\n      v := byte(0, mload(add(sig, 96)))\n    }\n\n    // Version of signature should be 27 or 28, but 0 and 1 are also possible versions\n    if (v < 27) {\n      v += 27;\n    }\n\n    // If the version is correct return the signer address\n    if (v != 27 && v != 28) {\n      return (address(0));\n    } else {\n      return ecrecover(hash, v, r, s);\n    }\n  }\n\n  function toEthereumSignedMessage(bytes32 _msg) public pure returns (bytes32) {\n    bytes memory prefix = \"\\x19Ethereum Signed Message:\\n32\";\n    return keccak256(abi.encodePacked(prefix, _msg));\n  }\n\n  function prefixedRecover(bytes32 _msg, bytes sig) public pure returns (address) {\n    bytes32 ethSignedMsg = toEthereumSignedMessage(_msg);\n    return recover(ethSignedMsg, sig);\n  }\n}",
  "sourcePath": "/Users/nenadpalinkasevic/Desktop/blockchain/StateChannels/solidity/contracts/ECTools.sol",
  "compiler": {
    "name": "solc",
    "version": "0.4.24+commit.e67f0147.Emscripten.clang"
  },
  "schemaVersion": "2.0.0",
  "updatedAt": "2018-07-25T12:21:21.637Z"
}