{
  "contractName": "EtherShips",
  "abi": [
    {
      "constant": true,
      "inputs": [
        {
          "name": "hash",
          "type": "bytes32"
        },
        {
          "name": "sig",
          "type": "bytes"
        }
      ],
      "name": "recover",
      "outputs": [
        {
          "name": "",
          "type": "address"
        }
      ],
      "payable": false,
      "stateMutability": "pure",
      "type": "function"
    },
    {
      "constant": false,
      "inputs": [
        {
          "name": "_username",
          "type": "string"
        }
      ],
      "name": "createAccount",
      "outputs": [],
      "payable": true,
      "stateMutability": "payable",
      "type": "function"
    },
    {
      "constant": false,
      "inputs": [
        {
          "name": "_amount",
          "type": "uint256"
        }
      ],
      "name": "withdraw",
      "outputs": [],
      "payable": false,
      "stateMutability": "nonpayable",
      "type": "function"
    },
    {
      "constant": true,
      "inputs": [
        {
          "name": "_msg",
          "type": "bytes32"
        },
        {
          "name": "sig",
          "type": "bytes"
        }
      ],
      "name": "prefixedRecover",
      "outputs": [
        {
          "name": "",
          "type": "address"
        }
      ],
      "payable": false,
      "stateMutability": "pure",
      "type": "function"
    },
    {
      "constant": true,
      "inputs": [
        {
          "name": "",
          "type": "address"
        }
      ],
      "name": "signAddresses",
      "outputs": [
        {
          "name": "",
          "type": "address"
        }
      ],
      "payable": false,
      "stateMutability": "view",
      "type": "function"
    },
    {
      "constant": false,
      "inputs": [],
      "name": "fundAccount",
      "outputs": [],
      "payable": true,
      "stateMutability": "payable",
      "type": "function"
    },
    {
      "constant": true,
      "inputs": [
        {
          "name": "",
          "type": "address"
        }
      ],
      "name": "players",
      "outputs": [
        {
          "name": "username",
          "type": "string"
        },
        {
          "name": "balance",
          "type": "uint256"
        },
        {
          "name": "gamesPlayed",
          "type": "uint256"
        },
        {
          "name": "finishedGames",
          "type": "uint256"
        },
        {
          "name": "exists",
          "type": "bool"
        }
      ],
      "payable": false,
      "stateMutability": "view",
      "type": "function"
    },
    {
      "constant": true,
      "inputs": [
        {
          "name": "",
          "type": "uint256"
        }
      ],
      "name": "channels",
      "outputs": [
        {
          "name": "p1",
          "type": "address"
        },
        {
          "name": "p2",
          "type": "address"
        },
        {
          "name": "stake",
          "type": "uint256"
        },
        {
          "name": "p1root",
          "type": "bytes32"
        },
        {
          "name": "p2root",
          "type": "bytes32"
        },
        {
          "name": "halfFinisher",
          "type": "address"
        },
        {
          "name": "blockStarted",
          "type": "uint256"
        },
        {
          "name": "balance",
          "type": "uint256"
        },
        {
          "name": "p1Score",
          "type": "uint256"
        },
        {
          "name": "p2Score",
          "type": "uint256"
        },
        {
          "name": "finished",
          "type": "bool"
        }
      ],
      "payable": false,
      "stateMutability": "view",
      "type": "function"
    },
    {
      "constant": true,
      "inputs": [
        {
          "name": "_msg",
          "type": "bytes32"
        }
      ],
      "name": "toEthereumSignedMessage",
      "outputs": [
        {
          "name": "",
          "type": "bytes32"
        }
      ],
      "payable": false,
      "stateMutability": "pure",
      "type": "function"
    },
    {
      "anonymous": false,
      "inputs": [
        {
          "indexed": false,
          "name": "channelId",
          "type": "uint256"
        },
        {
          "indexed": false,
          "name": "root",
          "type": "bytes32"
        },
        {
          "indexed": false,
          "name": "webrtcId",
          "type": "string"
        },
        {
          "indexed": false,
          "name": "amount",
          "type": "uint256"
        },
        {
          "indexed": false,
          "name": "username",
          "type": "string"
        },
        {
          "indexed": true,
          "name": "addr",
          "type": "address"
        }
      ],
      "name": "OpenChannel",
      "type": "event"
    },
    {
      "anonymous": false,
      "inputs": [
        {
          "indexed": false,
          "name": "channelId",
          "type": "uint256"
        },
        {
          "indexed": false,
          "name": "root",
          "type": "bytes32"
        },
        {
          "indexed": false,
          "name": "webrtcId",
          "type": "string"
        },
        {
          "indexed": false,
          "name": "amount",
          "type": "uint256"
        },
        {
          "indexed": true,
          "name": "addr",
          "type": "address"
        }
      ],
      "name": "JoinChannel",
      "type": "event"
    },
    {
      "anonymous": false,
      "inputs": [
        {
          "indexed": false,
          "name": "channelId",
          "type": "uint256"
        },
        {
          "indexed": true,
          "name": "player",
          "type": "address"
        },
        {
          "indexed": false,
          "name": "finished",
          "type": "bool"
        }
      ],
      "name": "CloseChannel",
      "type": "event"
    },
    {
      "anonymous": false,
      "inputs": [
        {
          "indexed": true,
          "name": "player",
          "type": "address"
        },
        {
          "indexed": false,
          "name": "username",
          "type": "string"
        },
        {
          "indexed": false,
          "name": "balance",
          "type": "uint256"
        }
      ],
      "name": "NewPlayer",
      "type": "event"
    },
    {
      "anonymous": false,
      "inputs": [
        {
          "indexed": true,
          "name": "player",
          "type": "address"
        },
        {
          "indexed": false,
          "name": "value",
          "type": "uint256"
        }
      ],
      "name": "AccountFunded",
      "type": "event"
    },
    {
      "anonymous": false,
      "inputs": [
        {
          "indexed": true,
          "name": "player",
          "type": "address"
        },
        {
          "indexed": false,
          "name": "amount",
          "type": "uint256"
        }
      ],
      "name": "Withdraw",
      "type": "event"
    },
    {
      "constant": false,
      "inputs": [
        {
          "name": "_merkleRoot",
          "type": "bytes32"
        },
        {
          "name": "_webrtcId",
          "type": "string"
        },
        {
          "name": "_amount",
          "type": "uint256"
        },
        {
          "name": "_signAddress",
          "type": "address"
        }
      ],
      "name": "openChannel",
      "outputs": [],
      "payable": true,
      "stateMutability": "payable",
      "type": "function"
    },
    {
      "constant": false,
      "inputs": [
        {
          "name": "_channelId",
          "type": "uint256"
        },
        {
          "name": "_merkleRoot",
          "type": "bytes32"
        },
        {
          "name": "_webrtcId",
          "type": "string"
        },
        {
          "name": "_amount",
          "type": "uint256"
        },
        {
          "name": "_signAddress",
          "type": "address"
        }
      ],
      "name": "joinChannel",
      "outputs": [],
      "payable": true,
      "stateMutability": "payable",
      "type": "function"
    },
    {
      "constant": false,
      "inputs": [
        {
          "name": "_channelId",
          "type": "uint256"
        },
        {
          "name": "_sig",
          "type": "bytes"
        },
        {
          "name": "_numberOfGuesses",
          "type": "uint256"
        }
      ],
      "name": "closeChannel",
      "outputs": [],
      "payable": false,
      "stateMutability": "nonpayable",
      "type": "function"
    },
    {
      "constant": false,
      "inputs": [
        {
          "name": "_channelId",
          "type": "uint256"
        }
      ],
      "name": "timeout",
      "outputs": [],
      "payable": false,
      "stateMutability": "nonpayable",
      "type": "function"
    },
    {
      "constant": false,
      "inputs": [
        {
          "name": "_channelId",
          "type": "uint256"
        },
        {
          "name": "_sig",
          "type": "bytes"
        },
        {
          "name": "_pos",
          "type": "uint256"
        },
        {
          "name": "_seq",
          "type": "uint256"
        },
        {
          "name": "_type",
          "type": "uint256"
        },
        {
          "name": "_nonce",
          "type": "uint256"
        },
        {
          "name": "_path",
          "type": "bytes32[7]"
        }
      ],
      "name": "disputeAnswer",
      "outputs": [],
      "payable": false,
      "stateMutability": "nonpayable",
      "type": "function"
    }
  ],
  "bytecode": "0x6080604052603260035534801561001557600080fd5b50612fe9806100256000396000f3006080604052600436106100d0576000357c0100000000000000000000000000000000000000000000000000000000900463ffffffff16806308148f7a146100d557806319045a2514610102578063298daf5b146101b95780632e1a7d4d14610215578063380388f11461024257806345fbd477146102f95780635f41a61d146103765780637d9a63211461040a578063913595b0146104d4578063d9a8748c14610557578063e2eb41ff14610561578063e5949b5d1461063d578063f4c67c551461075c578063fc960e15146107fa575b600080fd5b3480156100e157600080fd5b5061010060048036038101908080359060200190929190505050610847565b005b34801561010e57600080fd5b506101776004803603810190808035600019169060200190929190803590602001908201803590602001908080601f0160208091040260200160405190810160405280939291908181526020018383808284378201915050505050509192919290505050610c8e565b604051808273ffffffffffffffffffffffffffffffffffffffff1673ffffffffffffffffffffffffffffffffffffffff16815260200191505060405180910390f35b610213600480360381019080803590602001908201803590602001908080601f0160208091040260200160405190810160405280939291908181526020018383808284378201915050505050509192919290505050610d86565b005b34801561022157600080fd5b5061024060048036038101908080359060200190929190505050610f68565b005b34801561024e57600080fd5b506102b76004803603810190808035600019169060200190929190803590602001908201803590602001908080601f01602080910402602001604051908101604052809392919081815260200183838082843782019150505050505091929192905050506110f9565b604051808273ffffffffffffffffffffffffffffffffffffffff1673ffffffffffffffffffffffffffffffffffffffff16815260200191505060405180910390f35b34801561030557600080fd5b5061037460048036038101908080359060200190929190803590602001908201803590602001908080601f01602080910402602001604051908101604052809392919081815260200183838082843782019150505050505091929192908035906020019092919050505061111a565b005b6104086004803603810190808035600019169060200190929190803590602001908201803590602001908080601f016020809104026020016040519081016040528093929190818152602001838380828437820191505050505050919291929080359060200190929190803573ffffffffffffffffffffffffffffffffffffffff169060200190929190505050611840565b005b34801561041657600080fd5b506104d260048036038101908080359060200190929190803590602001908201803590602001908080601f0160208091040260200160405190810160405280939291908181526020018383808284378201915050505050509192919290803590602001909291908035906020019092919080359060200190929190803590602001909291908060e00190600780602002604051908101604052809291908260076020028082843782019150505050509192919290505050611c6a565b005b3480156104e057600080fd5b50610515600480360381019080803573ffffffffffffffffffffffffffffffffffffffff169060200190929190505050612284565b604051808273ffffffffffffffffffffffffffffffffffffffff1673ffffffffffffffffffffffffffffffffffffffff16815260200191505060405180910390f35b61055f6122b7565b005b34801561056d57600080fd5b506105a2600480360381019080803573ffffffffffffffffffffffffffffffffffffffff1690602001909291905050506123b0565b604051808060200186815260200185815260200184815260200183151515158152602001828103825287818151815260200191508051906020019080838360005b838110156105fe5780820151818401526020810190506105e3565b50505050905090810190601f16801561062b5780820380516001836020036101000a031916815260200191505b50965050505050505060405180910390f35b34801561064957600080fd5b506106686004803603810190808035906020019092919050505061248b565b604051808c73ffffffffffffffffffffffffffffffffffffffff1673ffffffffffffffffffffffffffffffffffffffff1681526020018b73ffffffffffffffffffffffffffffffffffffffff1673ffffffffffffffffffffffffffffffffffffffff1681526020018a8152602001896000191660001916815260200188600019166000191681526020018773ffffffffffffffffffffffffffffffffffffffff1673ffffffffffffffffffffffffffffffffffffffff168152602001868152602001858152602001848152602001838152602001821515151581526020019b50505050505050505050505060405180910390f35b6107f8600480360381019080803590602001909291908035600019169060200190929190803590602001908201803590602001908080601f016020809104026020016040519081016040528093929190818152602001838380828437820191505050505050919291929080359060200190929190803573ffffffffffffffffffffffffffffffffffffffff169060200190929190505050612561565b005b34801561080657600080fd5b506108296004803603810190808035600019169060200190929190505050612a70565b60405180826000191660001916815260200191505060405180910390f35b600060018281548110151561085857fe5b90600052602060002090600b020190503373ffffffffffffffffffffffffffffffffffffffff168160000160009054906101000a900473ffffffffffffffffffffffffffffffffffffffff1673ffffffffffffffffffffffffffffffffffffffff16148061091557503373ffffffffffffffffffffffffffffffffffffffff168160010160009054906101000a900473ffffffffffffffffffffffffffffffffffffffff1673ffffffffffffffffffffffffffffffffffffffff16145b151561092057600080fd5b6003548160060154014311151561093657600080fd5b80600a0160009054906101000a900460ff1615151561095457600080fd5b60008160010160009054906101000a900473ffffffffffffffffffffffffffffffffffffffff1673ffffffffffffffffffffffffffffffffffffffff161415610a57576109ca8160000160009054906101000a900473ffffffffffffffffffffffffffffffffffffffff16826002015484612b93565b600181600a0160006101000a81548160ff0219169083151502179055503373ffffffffffffffffffffffffffffffffffffffff167f6b4e2f01b2ba44b3e8bb886c50569cc31c39794011e097221fb192f7006a7a718383600a0160009054906101000a900460ff1660405180838152602001821515151581526020019250505060405180910390a2610c8a565b60008160050160009054906101000a900473ffffffffffffffffffffffffffffffffffffffff1673ffffffffffffffffffffffffffffffffffffffff16141515610c8957610ace8160050160009054906101000a900473ffffffffffffffffffffffffffffffffffffffff16826007015484612b93565b600181600a0160006101000a81548160ff021916908315150217905550600081600701819055503373ffffffffffffffffffffffffffffffffffffffff168160000160009054906101000a900473ffffffffffffffffffffffffffffffffffffffff1673ffffffffffffffffffffffffffffffffffffffff1614610b53576000610b56565b60055b60ff1681600801819055503373ffffffffffffffffffffffffffffffffffffffff168160010160009054906101000a900473ffffffffffffffffffffffffffffffffffffffff1673ffffffffffffffffffffffffffffffffffffffff1614610bbf576000610bc2565b60055b60ff16816009018190555060016000803373ffffffffffffffffffffffffffffffffffffffff1673ffffffffffffffffffffffffffffffffffffffff168152602001908152602001600020600301600082825401925050819055503373ffffffffffffffffffffffffffffffffffffffff167f6b4e2f01b2ba44b3e8bb886c50569cc31c39794011e097221fb192f7006a7a718383600a0160009054906101000a900460ff1660405180838152602001821515151581526020019250505060405180910390a25b5b5050565b60008060008060418551141515610ca85760009350610d7d565b6020850151925060408501519150606085015160001a9050601b8160ff161015610cd357601b810190505b601b8160ff1614158015610ceb5750601c8160ff1614155b15610cf95760009350610d7d565b600186828585604051600081526020016040526040518085600019166000191681526020018460ff1660ff1681526020018360001916600019168152602001826000191660001916815260200194505050505060206040516020810390808403906000865af1158015610d70573d6000803e3d6000fd5b5050506020604051035193505b50505092915050565b6000803373ffffffffffffffffffffffffffffffffffffffff1673ffffffffffffffffffffffffffffffffffffffff16815260200190815260200160002060040160009054906101000a900460ff16151515610de157600080fd5b60a0604051908101604052808281526020013481526020016000815260200160008152602001600115158152506000803373ffffffffffffffffffffffffffffffffffffffff1673ffffffffffffffffffffffffffffffffffffffff1681526020019081526020016000206000820151816000019080519060200190610e68929190612e06565b5060208201518160010155604082015181600201556060820151816003015560808201518160040160006101000a81548160ff0219169083151502179055509050503373ffffffffffffffffffffffffffffffffffffffff167f5ca95187458a3a347baad567891df2db769ad6c7e1a06e416d9132abd658cbee82346040518080602001838152602001828103825284818151815260200191508051906020019080838360005b83811015610f2a578082015181840152602081019050610f0f565b50505050905090810190601f168015610f575780820380516001836020036101000a031916815260200191505b50935050505060405180910390a250565b6000803373ffffffffffffffffffffffffffffffffffffffff1673ffffffffffffffffffffffffffffffffffffffff16815260200190815260200160002060040160009054906101000a900460ff161515610fc257600080fd5b806000803373ffffffffffffffffffffffffffffffffffffffff1673ffffffffffffffffffffffffffffffffffffffff168152602001908152602001600020600101541015151561101257600080fd5b806000803373ffffffffffffffffffffffffffffffffffffffff1673ffffffffffffffffffffffffffffffffffffffff168152602001908152602001600020600101600082825403925050819055503373ffffffffffffffffffffffffffffffffffffffff166108fc829081150290604051600060405180830381858888f193505050501580156110a7573d6000803e3d6000fd5b503373ffffffffffffffffffffffffffffffffffffffff167f884edad9ce6fa2440d8a54cc123490eb96d2768479d49ff9c7366125a9424364826040518082815260200191505060405180910390a250565b60008061110584612a70565b90506111118184610c8e565b91505092915050565b60008060008060018781548110151561112f57fe5b90600052602060002090600b020193503373ffffffffffffffffffffffffffffffffffffffff168460000160009054906101000a900473ffffffffffffffffffffffffffffffffffffffff1673ffffffffffffffffffffffffffffffffffffffff1614806111ec57503373ffffffffffffffffffffffffffffffffffffffff168460010160009054906101000a900473ffffffffffffffffffffffffffffffffffffffff1673ffffffffffffffffffffffffffffffffffffffff16145b15156111f757600080fd5b83600a0160009054906101000a900460ff1615151561121557600080fd5b8360050160009054906101000a900473ffffffffffffffffffffffffffffffffffffffff1673ffffffffffffffffffffffffffffffffffffffff163373ffffffffffffffffffffffffffffffffffffffff161415151561127457600080fd5b3373ffffffffffffffffffffffffffffffffffffffff168460000160009054906101000a900473ffffffffffffffffffffffffffffffffffffffff1673ffffffffffffffffffffffffffffffffffffffff16146112f5578360000160009054906101000a900473ffffffffffffffffffffffffffffffffffffffff1661131b565b8360010160009054906101000a900473ffffffffffffffffffffffffffffffffffffffff165b9250863386604051602001808481526020018373ffffffffffffffffffffffffffffffffffffffff1673ffffffffffffffffffffffffffffffffffffffff166c0100000000000000000000000002815260140182815260200193505050506040516020818303038152906040526040518082805190602001908083835b6020831015156113bd5780518252602082019150602081019050602083039250611398565b6001836020036101000a03801982511681845116808217855250505050505090500191505060405180910390209150600260008473ffffffffffffffffffffffffffffffffffffffff1673ffffffffffffffffffffffffffffffffffffffff16815260200190815260200160002060009054906101000a900473ffffffffffffffffffffffffffffffffffffffff1673ffffffffffffffffffffffffffffffffffffffff1661146c8388612c41565b73ffffffffffffffffffffffffffffffffffffffff1614151561148e57600080fd5b6005858560020154028115156114a057fe5b049050600073ffffffffffffffffffffffffffffffffffffffff168460050160009054906101000a900473ffffffffffffffffffffffffffffffffffffffff1673ffffffffffffffffffffffffffffffffffffffff1614151561177257600184600a0160006101000a81548160ff021916908315150217905550611525338689612c55565b611530338289612b93565b600584600801541480611547575060058460090154145b156116dc5760016000808660000160009054906101000a900473ffffffffffffffffffffffffffffffffffffffff1673ffffffffffffffffffffffffffffffffffffffff1673ffffffffffffffffffffffffffffffffffffffff1681526020019081526020016000206003016000828254019250508190555060016000808660010160009054906101000a900473ffffffffffffffffffffffffffffffffffffffff1673ffffffffffffffffffffffffffffffffffffffff1673ffffffffffffffffffffffffffffffffffffffff1681526020019081526020016000206003016000828254019250508190555060058460080154141561168e576116898460000160009054906101000a900473ffffffffffffffffffffffffffffffffffffffff166005866009015460050387600201540281151561168257fe5b0489612b93565b6116d7565b6116d68460010160009054906101000a900473ffffffffffffffffffffffffffffffffffffffff16600586600801546005038760020154028115156116cf57fe5b0489612b93565b5b61176d565b6117248460000160009054906101000a900473ffffffffffffffffffffffffffffffffffffffff166005866009015460050387600201540281151561171d57fe5b0489612b93565b61176c8460010160009054906101000a900473ffffffffffffffffffffffffffffffffffffffff166005866008015460050387600201540281151561176557fe5b0489612b93565b5b6117cc565b338460050160006101000a81548173ffffffffffffffffffffffffffffffffffffffff021916908373ffffffffffffffffffffffffffffffffffffffff1602179055506117c0338689612c55565b6117cb338289612b93565b5b3373ffffffffffffffffffffffffffffffffffffffff167f6b4e2f01b2ba44b3e8bb886c50569cc31c39794011e097221fb192f7006a7a718886600a0160009054906101000a900460ff1660405180838152602001821515151581526020019250505060405180910390a250505050505050565b6000806000803373ffffffffffffffffffffffffffffffffffffffff1673ffffffffffffffffffffffffffffffffffffffff16815260200190815260200160002060040160009054906101000a900460ff16151561189d57600080fd5b346000803373ffffffffffffffffffffffffffffffffffffffff1673ffffffffffffffffffffffffffffffffffffffff168152602001908152602001600020600101540184111515156118ef57600080fd5b600034111561194857346000803373ffffffffffffffffffffffffffffffffffffffff1673ffffffffffffffffffffffffffffffffffffffff168152602001908152602001600020600101600082825401925050819055505b6001805490509150600180548091906001016119649190612e86565b5082600260003373ffffffffffffffffffffffffffffffffffffffff1673ffffffffffffffffffffffffffffffffffffffff16815260200190815260200160002060006101000a81548173ffffffffffffffffffffffffffffffffffffffff021916908373ffffffffffffffffffffffffffffffffffffffff160217905550836000803373ffffffffffffffffffffffffffffffffffffffff1673ffffffffffffffffffffffffffffffffffffffff16815260200190815260200160002060010160008282540392505081905550600182815481101515611a4157fe5b90600052602060002090600b02019050338160000160006101000a81548173ffffffffffffffffffffffffffffffffffffffff021916908373ffffffffffffffffffffffffffffffffffffffff160217905550838160020181905550858160030181600019169055504381600601819055508381600701600082825401925050819055503373ffffffffffffffffffffffffffffffffffffffff167fafc7cc2db6b05682d5db7330ed6892baa2d02024b373bf030e58c602f1c8924c838888886000803373ffffffffffffffffffffffffffffffffffffffff1673ffffffffffffffffffffffffffffffffffffffff1681526020019081526020016000206000016040518086815260200185600019166000191681526020018060200184815260200180602001838103835286818151815260200191508051906020019080838360005b83811015611ba0578082015181840152602081019050611b85565b50505050905090810190601f168015611bcd5780820380516001836020036101000a031916815260200191505b50838103825284818154600181600116156101000203166002900481526020019150805460018160011615610100020316600290048015611c4f5780601f10611c2457610100808354040283529160200191611c4f565b820191906000526020600020905b815481529060010190602001808311611c3257829003601f168201915b505097505050505050505060405180910390a2505050505050565b60008060008060018b815481101515611c7f57fe5b90600052602060002090600b020193503373ffffffffffffffffffffffffffffffffffffffff168460000160009054906101000a900473ffffffffffffffffffffffffffffffffffffffff1673ffffffffffffffffffffffffffffffffffffffff161480611d3c57503373ffffffffffffffffffffffffffffffffffffffff168460010160009054906101000a900473ffffffffffffffffffffffffffffffffffffffff1673ffffffffffffffffffffffffffffffffffffffff16145b1515611d4757600080fd5b83600a0160009054906101000a900460ff16151515611d6557600080fd5b3373ffffffffffffffffffffffffffffffffffffffff168460000160009054906101000a900473ffffffffffffffffffffffffffffffffffffffff1673ffffffffffffffffffffffffffffffffffffffff1614611de6578360000160009054906101000a900473ffffffffffffffffffffffffffffffffffffffff16611e0c565b8360010160009054906101000a900473ffffffffffffffffffffffffffffffffffffffff165b92508a89898989896040516020018087815260200186815260200185815260200184815260200183815260200182600760200280838360005b83811015611e60578082015181840152602081019050611e45565b5050505090500196505050505050506040516020818303038152906040526040518082805190602001908083835b602083101515611eb35780518252602082019150602081019050602083039250611e8e565b6001836020036101000a03801982511681845116808217855250505050505090500191505060405180910390209150600260008473ffffffffffffffffffffffffffffffffffffffff1673ffffffffffffffffffffffffffffffffffffffff16815260200190815260200160002060009054906101000a900473ffffffffffffffffffffffffffffffffffffffff1673ffffffffffffffffffffffffffffffffffffffff16611f62838c612c41565b73ffffffffffffffffffffffffffffffffffffffff16141515611f8457600080fd5b3373ffffffffffffffffffffffffffffffffffffffff168460000160009054906101000a900473ffffffffffffffffffffffffffffffffffffffff1673ffffffffffffffffffffffffffffffffffffffff1614611fe5578360030154611feb565b83600401545b9050846000600781101515611ffc57fe5b6020020151600019168988886040516020018084815260200183815260200182815260200193505050506040516020818303038152906040526040518082805190602001908083835b60208310151561206a5780518252602082019150602081019050602083039250612045565b6001836020036101000a0380198251168184511680821785525050505050509050019150506040518091039020600019161415806120b8575080600019166120b186612d1e565b6000191614155b156122775760016000803373ffffffffffffffffffffffffffffffffffffffff1673ffffffffffffffffffffffffffffffffffffffff1681526020019081526020016000206003016000828254019250508190555061211c3385600701548d612b93565b3373ffffffffffffffffffffffffffffffffffffffff168460000160009054906101000a900473ffffffffffffffffffffffffffffffffffffffff1673ffffffffffffffffffffffffffffffffffffffff161461217a57600061217d565b60055b60ff1684600801819055503373ffffffffffffffffffffffffffffffffffffffff168460010160009054906101000a900473ffffffffffffffffffffffffffffffffffffffff1673ffffffffffffffffffffffffffffffffffffffff16146121e65760006121e9565b60055b60ff168460090181905550600184600a0160006101000a81548160ff021916908315150217905550600084600701819055503373ffffffffffffffffffffffffffffffffffffffff167f6b4e2f01b2ba44b3e8bb886c50569cc31c39794011e097221fb192f7006a7a718c600160405180838152602001821515151581526020019250505060405180910390a25b5050505050505050505050565b60026020528060005260406000206000915054906101000a900473ffffffffffffffffffffffffffffffffffffffff1681565b6000803373ffffffffffffffffffffffffffffffffffffffff1673ffffffffffffffffffffffffffffffffffffffff16815260200190815260200160002060040160009054906101000a900460ff16151561231157600080fd5b346000803373ffffffffffffffffffffffffffffffffffffffff1673ffffffffffffffffffffffffffffffffffffffff168152602001908152602001600020600101600082825401925050819055503373ffffffffffffffffffffffffffffffffffffffff167fbccbe05a3719eacef984f404dd2adff555adcc05fb72fb8b309bafbd462cd6f7346040518082815260200191505060405180910390a2565b6000602052806000526040600020600091509050806000018054600181600116156101000203166002900480601f01602080910402602001604051908101604052809291908181526020018280546001816001161561010002031660029004801561245c5780601f106124315761010080835404028352916020019161245c565b820191906000526020600020905b81548152906001019060200180831161243f57829003601f168201915b5050505050908060010154908060020154908060030154908060040160009054906101000a900460ff16905085565b60018181548110151561249a57fe5b90600052602060002090600b02016000915090508060000160009054906101000a900473ffffffffffffffffffffffffffffffffffffffff16908060010160009054906101000a900473ffffffffffffffffffffffffffffffffffffffff16908060020154908060030154908060040154908060050160009054906101000a900473ffffffffffffffffffffffffffffffffffffffff169080600601549080600701549080600801549080600901549080600a0160009054906101000a900460ff1690508b565b60006001805490508610151561257657600080fd5b600060018781548110151561258757fe5b90600052602060002090600b020160000160009054906101000a900473ffffffffffffffffffffffffffffffffffffffff1673ffffffffffffffffffffffffffffffffffffffff1614158015612633575060006001878154811015156125e957fe5b90600052602060002090600b020160010160009054906101000a900473ffffffffffffffffffffffffffffffffffffffff1673ffffffffffffffffffffffffffffffffffffffff16145b151561263e57600080fd5b6000803373ffffffffffffffffffffffffffffffffffffffff1673ffffffffffffffffffffffffffffffffffffffff16815260200190815260200160002060040160009054906101000a900460ff16151561269857600080fd5b346000803373ffffffffffffffffffffffffffffffffffffffff1673ffffffffffffffffffffffffffffffffffffffff168152602001908152602001600020600101540183111515156126ea57600080fd5b600034111561274357346000803373ffffffffffffffffffffffffffffffffffffffff1673ffffffffffffffffffffffffffffffffffffffff168152602001908152602001600020600101600082825401925050819055505b81600260003373ffffffffffffffffffffffffffffffffffffffff1673ffffffffffffffffffffffffffffffffffffffff16815260200190815260200160002060006101000a81548173ffffffffffffffffffffffffffffffffffffffff021916908373ffffffffffffffffffffffffffffffffffffffff1602179055506001868154811015156127d057fe5b90600052602060002090600b02019050828160020154111515156127f357600080fd5b338160010160006101000a81548173ffffffffffffffffffffffffffffffffffffffff021916908373ffffffffffffffffffffffffffffffffffffffff16021790555084816004018160001916905550438160060181905550828160070160008282540192505081905550826000803373ffffffffffffffffffffffffffffffffffffffff1673ffffffffffffffffffffffffffffffffffffffff1681526020019081526020016000206001016000828254039250508190555060016000808360000160009054906101000a900473ffffffffffffffffffffffffffffffffffffffff1673ffffffffffffffffffffffffffffffffffffffff1673ffffffffffffffffffffffffffffffffffffffff1681526020019081526020016000206002016000828254019250508190555060016000808360010160009054906101000a900473ffffffffffffffffffffffffffffffffffffffff1673ffffffffffffffffffffffffffffffffffffffff1673ffffffffffffffffffffffffffffffffffffffff168152602001908152602001600020600201600082825401925050819055503373ffffffffffffffffffffffffffffffffffffffff167f30e3513ecbc62f37c873968e911fa0d35b7a629b002d01c09166ca7e09f7aefa8787878760405180858152602001846000191660001916815260200180602001838152602001828103825284818151815260200191508051906020019080838360005b83811015612a2b578082015181840152602081019050612a10565b50505050905090810190601f168015612a585780820380516001836020036101000a031916815260200191505b509550505050505060405180910390a2505050505050565b600060606040805190810160405280601c81526020017f19457468657265756d205369676e6564204d6573736167653a0a333200000000815250905080836040516020018083805190602001908083835b602083101515612ae65780518252602082019150602081019050602083039250612ac1565b6001836020036101000a0380198251168184511680821785525050505050509050018260001916600019168152602001925050506040516020818303038152906040526040518082805190602001908083835b602083101515612b5e5780518252602082019150602081019050602083039250612b39565b6001836020036101000a0380198251168184511680821785525050505050509050019150506040518091039020915050919050565b600181815481101515612ba257fe5b90600052602060002090600b0201600701548211151515612bbf57fe5b816000808573ffffffffffffffffffffffffffffffffffffffff1673ffffffffffffffffffffffffffffffffffffffff1681526020019081526020016000206001016000828254019250508190555081600182815481101515612c1e57fe5b90600052602060002090600b020160070160008282540392505081905550505050565b6000612c4d83836110f9565b905092915050565b600181815481101515612c6457fe5b90600052602060002090600b020160000160009054906101000a900473ffffffffffffffffffffffffffffffffffffffff1673ffffffffffffffffffffffffffffffffffffffff168373ffffffffffffffffffffffffffffffffffffffff161415612cf35781600182815481101515612cd957fe5b90600052602060002090600b020160080181905550612d19565b81600182815481101515612d0357fe5b90600052602060002090600b0201600901819055505b505050565b600080826000600781101515612d3057fe5b60200201519150600190505b6007811015612e0057818382600781101515612d5457fe5b60200201516040516020018083600019166000191681526020018260001916600019168152602001925050506040516020818303038152906040526040518082805190602001908083835b602083101515612dc45780518252602082019150602081019050602083039250612d9f565b6001836020036101000a038019825116818451168082178552505050505050905001915050604051809103902091508080600101915050612d3c565b50919050565b828054600181600116156101000203166002900490600052602060002090601f016020900481019282601f10612e4757805160ff1916838001178555612e75565b82800160010185558215612e75579182015b82811115612e74578251825591602001919060010190612e59565b5b509050612e829190612eb8565b5090565b815481835581811115612eb357600b0281600b028360005260206000209182019101612eb29190612edd565b5b505050565b612eda91905b80821115612ed6576000816000905550600101612ebe565b5090565b90565b612fba91905b80821115612fb657600080820160006101000a81549073ffffffffffffffffffffffffffffffffffffffff02191690556001820160006101000a81549073ffffffffffffffffffffffffffffffffffffffff02191690556002820160009055600382016000905560048201600090556005820160006101000a81549073ffffffffffffffffffffffffffffffffffffffff02191690556006820160009055600782016000905560088201600090556009820160009055600a820160006101000a81549060ff021916905550600b01612ee3565b5090565b905600a165627a7a7230582093891c6cdf650c35bd6d49fe23b09ad550aa662c56cc810c8b9148e0979e190a0029",
  "source": "pragma solidity ^0.4.24;\n\nimport \"./ECTools.sol\";\nimport \"./Players.sol\";\n\n/// @title State channel implementation for the clasic Battleship game\ncontract EtherShips is Players, ECTools {\n\n\tstruct Channel {\n\t\taddress p1;\n\t\taddress p2;\n\t\tuint stake;\n\t\tbytes32 p1root;\n\t\tbytes32 p2root;\n\t\taddress halfFinisher;\n\t\tuint blockStarted;\n\t\tuint balance;\n\t\tuint p1Score;  //------|\n\t\tuint p2Score;  //      | TODO: squeeze this into one memory slot\n\t\tbool finished; //------|\n\t}\n\n\tevent OpenChannel(uint channelId, bytes32 root, string webrtcId, uint amount, string username, address indexed addr);\n\tevent JoinChannel(uint channelId, bytes32 root, string webrtcId, uint amount, address indexed addr);\n\tevent CloseChannel(uint channelId, address indexed player, bool finished);\n\n\tChannel[] public channels;\n\tmapping(address => address) public signAddresses;\n\n\tuint TIMEOUT_NUM_BLOCKS = 50; // TODO: this number is used for testing\n\n\t/// @dev User opens a channel and waits for the opponent to join\n\t/// @param _merkleRoot The root node of your boards state\n\t/// @param _webrtcId Connection id used for p2p webrtc connection\n\t/// @param _amount Amount in wei for the channel, joining user must match the amount\n\t/// @param _signAddress Opens channel with one MetaMask address, sign state with anoother\n\tfunction openChannel(bytes32 _merkleRoot, string _webrtcId, uint _amount, address _signAddress) payable public {\n\t\trequire(players[msg.sender].exists);\n\t\trequire(_amount <= players[msg.sender].balance + msg.value);\n\n\t\tif (msg.value > 0) {\n\t\t\tplayers[msg.sender].balance += msg.value;\n\t\t}\n\n\t\tuint _channelId = channels.length;\n        channels.length++;\n\n        signAddresses[msg.sender] = _signAddress;\n\n        players[msg.sender].balance -= _amount;\n        Channel storage c = channels[_channelId];\n\t\tc.p1 = msg.sender;\n\t\tc.stake = _amount;\n\t\tc.p1root = _merkleRoot;\n\t\tc.blockStarted = block.number;\n\t\tc.balance += _amount;\n\n        emit OpenChannel(_channelId, _merkleRoot, _webrtcId, _amount, players[msg.sender].username, msg.sender);\n    }\n    \n\t/// @dev User joins an already opened channe;\n\t/// @param _channelId The id of the channel you want to join\n\t/// @param _merkleRoot The root node of your boards state\n\t/// @param _webrtcId Connection id used for p2p webrtc connection\n\t/// @param _amount Amount in wei for you yo join the channel\n\t/// @param _signAddress Opens channel with one MetaMask address, sign state with anoother\n    function joinChannel(uint _channelId, bytes32 _merkleRoot, string _webrtcId, uint _amount, address _signAddress) payable public {\n    \trequire(_channelId < channels.length);\n\t\trequire((channels[_channelId].p1 != 0x0) && (channels[_channelId].p2 == 0x0));\n\t\trequire(players[msg.sender].exists);\n\t\trequire(_amount <= players[msg.sender].balance + msg.value);\n\n\t\tif (msg.value > 0) {\n\t\t\tplayers[msg.sender].balance += msg.value;\n\t\t}\n\n\t\tsignAddresses[msg.sender] = _signAddress;\n\n\t\tChannel storage c = channels[_channelId];\n\t\t\n\t\trequire(c.stake <= _amount);\n\n\t\tc.p2 = msg.sender;\n\t\tc.p2root = _merkleRoot;\n\t\tc.blockStarted = block.number;\n\t\tc.balance += _amount;\n\n\t\t// update player stats\n\t\tplayers[msg.sender].balance -= _amount;\n\t\tplayers[c.p1].gamesPlayed += 1;\n\t\tplayers[c.p2].gamesPlayed += 1;\n\n        emit JoinChannel(_channelId, _merkleRoot, _webrtcId, _amount, msg.sender);\n    }\n\n\t/// @dev Closes the channel, both users must call this for it to be succesfully closed\n\t/// @param _channelId The id of the channel you want to close\n\t/// @param _sig The signature of the other user confirming how many ships you hit\n\t/// @param _numberOfGuesses Number of ships you hit\n    function closeChannel(uint _channelId, bytes _sig, uint _numberOfGuesses) public {\n\t\tChannel storage c = channels[_channelId];\n\n\t\trequire(c.p1 == msg.sender || c.p2 == msg.sender);\n    \trequire(!c.finished);\n    \trequire(msg.sender != c.halfFinisher);\n    \t\n    \taddress opponent = c.p1 == msg.sender ? c.p2 : c.p1;\n    \tbytes32 hash = keccak256(abi.encodePacked(_channelId, msg.sender, _numberOfGuesses));\n\n       \trequire(_recoverSig(hash, _sig) == signAddresses[opponent]);\n\n\t\tuint wonAmount = c.stake * _numberOfGuesses / 5;\n\n\t\t// one player already submitted score\n    \tif (c.halfFinisher != address(0)) {\n    \t\tc.finished = true;\n\n\t\t\taddScore(msg.sender, _numberOfGuesses, _channelId);\n\n\t\t\taddBalanceToPlayer(msg.sender, wonAmount, _channelId);\n\n\t\t\t// sombody won the game\n\t\t\tif (c.p1Score == 5 || c.p2Score == 5) {\n\t\t\t\tplayers[c.p1].finishedGames += 1;\n\t\t\t\tplayers[c.p2].finishedGames += 1;\n\n\t\t\t\t// if game ended we send rest of stake to winner\n\t\t\t\tif (c.p1Score == 5) {\n\t\t\t\t\taddBalanceToPlayer(c.p1, c.stake * (5 - c.p2Score) / 5, _channelId);\n\t\t\t\t} else {\n\t\t\t\t\taddBalanceToPlayer(c.p2, c.stake * (5 - c.p1Score) / 5, _channelId);\n\t\t\t\t}\n\t\t\t}\n\t\t\t// nobody has won the game distribute the rest of the money accordingly\n\t\t\telse {\n\t\t\t\taddBalanceToPlayer(c.p1, c.stake * (5 - c.p2Score) / 5, _channelId);\n\t\t\t\taddBalanceToPlayer(c.p2, c.stake * (5 - c.p1Score) / 5, _channelId);\n\t\t\t}\n\n    \t} else { // the first time close is called on this channel\n\t\t\tc.halfFinisher = msg.sender;\n\n\t\t\taddScore(msg.sender, _numberOfGuesses, _channelId);\n\t\t\taddBalanceToPlayer(msg.sender, wonAmount, _channelId);\n    \t}\n\n    \temit CloseChannel(_channelId, msg.sender, c.finished);\n    }\n\n\t/// @dev After N blocks if the channel isn't closed/joined the user can timeout close it\n\t/// @param _channelId Id of the channel\n\tfunction timeout(uint _channelId) public {\n\t\tChannel storage c = channels[_channelId];\n\n\t\trequire(c.p1 == msg.sender || c.p2 == msg.sender);\n\t\trequire(block.number > (c.blockStarted + TIMEOUT_NUM_BLOCKS));\n\t\trequire(!c.finished);\n\n\t\t// If nobody joined the channel let the user retreive the money\n\t\tif (c.p2 == 0x0) {\n\t\t\taddBalanceToPlayer(c.p1, c.stake, _channelId);\n\n\t\t\tc.finished = true;\n\t\t\temit CloseChannel(_channelId, msg.sender, c.finished);\n\t\t} \n\t\t// If one of the players hasn't closed the game\n\t\telse if (c.halfFinisher != 0x0) {\n\t\t\t// the user gets all the left over money in the channel\n\t\t\taddBalanceToPlayer(c.halfFinisher, c.balance, _channelId);\n\n\t\t\tc.finished = true;\n\t\t\tc.balance = 0;\n\t\t\tc.p1Score = c.p1 == msg.sender ? 5 : 0;\n    \t\tc.p2Score = c.p2 == msg.sender ? 5 : 0;\n\t\t\t\n\t\t\tplayers[msg.sender].finishedGames += 1;\n\n\t\t\temit CloseChannel(_channelId, msg.sender, c.finished);\n\t\t}\n\t}\n\n\t/// @dev If the other player lies that you didn't hit his ships merkle proof resolve that he's cheating\n\t/// @param _channelId Id of the channel\n\t/// @param _sig Signature of the move that you're disputing\n\t/// @param _pos Position on the grid\n\t/// @param _seq Sequence number of the move\n\t/// @param _type Type 1 means is hit, 0 is missed\n\t/// @param _nonce The nonce the user hashed the field\n\t/// @param _path Merkle path that is disputed\n    function disputeAnswer(uint _channelId, bytes _sig, uint _pos, uint _seq, uint _type, uint _nonce, bytes32[7] _path) public {\n\t\tChannel storage c = channels[_channelId];\n\t\t\n    \trequire(c.p1 == msg.sender || c.p2 == msg.sender);\n    \trequire(!c.finished);\n\n    \taddress opponent = c.p1 == msg.sender ? c.p2 : c.p1;\n\t\t\n    \tbytes32 hash = keccak256(abi.encodePacked(_channelId, _pos, _seq, _type, _nonce, _path));\n    \trequire(_recoverSig(hash, _sig) == signAddresses[opponent]);\n\n    \tbytes32 opponentRoot = c.p1 == msg.sender ? c.p2root : c.p1root;\n    \tif (keccak256(abi.encodePacked(_pos, _type, _nonce)) != _path[0] || _getRoot(_path) != opponentRoot) {\n    \t\t// only player that didn't cheat get plus one on finished games\n    \t\tplayers[msg.sender].finishedGames += 1;\n\n\t\t\t// gets all the leftover money from the channel\n\t\t\taddBalanceToPlayer(msg.sender, c.balance, _channelId);\n    \t\t\n    \t\tc.p1Score = c.p1 == msg.sender ? 5 : 0;\n    \t\tc.p2Score = c.p2 == msg.sender ? 5 : 0;\n    \t\tc.finished = true;\n\t\t\tc.balance = 0;\n\n    \t\temit CloseChannel(_channelId, msg.sender, true);\n    \t}\n    }\n\n\t/** PRIVATE METHODS */\n\n\tfunction addBalanceToPlayer(address _p, uint _amount, uint _channelId) private {\n\t\tassert(_amount <= channels[_channelId].balance);\n\t\tplayers[_p].balance += _amount;\n\t\tchannels[_channelId].balance -= _amount;\n\t}\n\n\tfunction addScore(address _sender, uint _numberOfGuesses, uint _channelId) private {\n\t\tif (_sender == channels[_channelId].p1) {\n\t\t\tchannels[_channelId].p1Score = _numberOfGuesses;\n\t\t} else {\n\t\t\tchannels[_channelId].p2Score = _numberOfGuesses;\n\t\t}\n\t}\n\n    function _recoverSig(bytes32 _hash, bytes _sig) private pure returns (address) {\n\t\treturn prefixedRecover(_hash, _sig);\n\t}\n\n\tfunction _getRoot(bytes32[7] _path) private pure returns(bytes32 _root) {\n\t    _root = _path[0];\n\t    \n\t    for (uint i=1; i<7; i++) {\n\t        _root = keccak256(abi.encodePacked(_root, _path[i]));\n\t    }\n    }\n}",
  "sourcePath": "/Users/nenadpalinkasevic/Desktop/blockchain/StateChannels/solidity/contracts/EtherShips.sol",
  "compiler": {
    "name": "solc",
    "version": "0.4.24+commit.e67f0147.Emscripten.clang"
  },
  "schemaVersion": "2.0.0",
  "updatedAt": "2018-07-24T09:40:25.003Z"
}