{
  "contractName": "EtherShips",
  "abi": [
    {
      "constant": true,
      "inputs": [
        {
          "name": "hash",
          "type": "bytes32"
        },
        {
          "name": "sig",
          "type": "bytes"
        }
      ],
      "name": "recover",
      "outputs": [
        {
          "name": "",
          "type": "address"
        }
      ],
      "payable": false,
      "stateMutability": "pure",
      "type": "function"
    },
    {
      "constant": false,
      "inputs": [
        {
          "name": "_username",
          "type": "string"
        }
      ],
      "name": "createAccount",
      "outputs": [],
      "payable": true,
      "stateMutability": "payable",
      "type": "function"
    },
    {
      "constant": false,
      "inputs": [
        {
          "name": "_amount",
          "type": "uint256"
        }
      ],
      "name": "withdraw",
      "outputs": [],
      "payable": false,
      "stateMutability": "nonpayable",
      "type": "function"
    },
    {
      "constant": true,
      "inputs": [
        {
          "name": "_msg",
          "type": "bytes32"
        },
        {
          "name": "sig",
          "type": "bytes"
        }
      ],
      "name": "prefixedRecover",
      "outputs": [
        {
          "name": "",
          "type": "address"
        }
      ],
      "payable": false,
      "stateMutability": "pure",
      "type": "function"
    },
    {
      "constant": true,
      "inputs": [
        {
          "name": "",
          "type": "address"
        }
      ],
      "name": "signAddresses",
      "outputs": [
        {
          "name": "",
          "type": "address"
        }
      ],
      "payable": false,
      "stateMutability": "view",
      "type": "function"
    },
    {
      "constant": false,
      "inputs": [],
      "name": "fundAccount",
      "outputs": [],
      "payable": true,
      "stateMutability": "payable",
      "type": "function"
    },
    {
      "constant": true,
      "inputs": [
        {
          "name": "",
          "type": "address"
        }
      ],
      "name": "players",
      "outputs": [
        {
          "name": "username",
          "type": "string"
        },
        {
          "name": "balance",
          "type": "uint256"
        },
        {
          "name": "gamesPlayed",
          "type": "uint256"
        },
        {
          "name": "finishedGames",
          "type": "uint256"
        },
        {
          "name": "exists",
          "type": "bool"
        }
      ],
      "payable": false,
      "stateMutability": "view",
      "type": "function"
    },
    {
      "constant": true,
      "inputs": [
        {
          "name": "",
          "type": "uint256"
        }
      ],
      "name": "channels",
      "outputs": [
        {
          "name": "p1",
          "type": "address"
        },
        {
          "name": "p2",
          "type": "address"
        },
        {
          "name": "stake",
          "type": "uint256"
        },
        {
          "name": "p1root",
          "type": "bytes32"
        },
        {
          "name": "p2root",
          "type": "bytes32"
        },
        {
          "name": "halfFinisher",
          "type": "address"
        },
        {
          "name": "blockStarted",
          "type": "uint256"
        },
        {
          "name": "balance",
          "type": "uint256"
        },
        {
          "name": "p1Score",
          "type": "uint256"
        },
        {
          "name": "p2Score",
          "type": "uint256"
        },
        {
          "name": "finished",
          "type": "bool"
        }
      ],
      "payable": false,
      "stateMutability": "view",
      "type": "function"
    },
    {
      "constant": true,
      "inputs": [
        {
          "name": "_msg",
          "type": "bytes32"
        }
      ],
      "name": "toEthereumSignedMessage",
      "outputs": [
        {
          "name": "",
          "type": "bytes32"
        }
      ],
      "payable": false,
      "stateMutability": "pure",
      "type": "function"
    },
    {
      "anonymous": false,
      "inputs": [
        {
          "indexed": false,
          "name": "channelId",
          "type": "uint256"
        },
        {
          "indexed": false,
          "name": "root",
          "type": "bytes32"
        },
        {
          "indexed": false,
          "name": "webrtcId",
          "type": "string"
        },
        {
          "indexed": false,
          "name": "amount",
          "type": "uint256"
        },
        {
          "indexed": false,
          "name": "username",
          "type": "string"
        },
        {
          "indexed": true,
          "name": "addr",
          "type": "address"
        }
      ],
      "name": "OpenChannel",
      "type": "event"
    },
    {
      "anonymous": false,
      "inputs": [
        {
          "indexed": false,
          "name": "channelId",
          "type": "uint256"
        },
        {
          "indexed": false,
          "name": "root",
          "type": "bytes32"
        },
        {
          "indexed": false,
          "name": "webrtcId",
          "type": "string"
        },
        {
          "indexed": false,
          "name": "amount",
          "type": "uint256"
        },
        {
          "indexed": true,
          "name": "addr",
          "type": "address"
        }
      ],
      "name": "JoinChannel",
      "type": "event"
    },
    {
      "anonymous": false,
      "inputs": [
        {
          "indexed": false,
          "name": "channelId",
          "type": "uint256"
        },
        {
          "indexed": true,
          "name": "player",
          "type": "address"
        },
        {
          "indexed": false,
          "name": "finished",
          "type": "bool"
        }
      ],
      "name": "CloseChannel",
      "type": "event"
    },
    {
      "anonymous": false,
      "inputs": [
        {
          "indexed": true,
          "name": "player",
          "type": "address"
        },
        {
          "indexed": false,
          "name": "username",
          "type": "string"
        },
        {
          "indexed": false,
          "name": "balance",
          "type": "uint256"
        }
      ],
      "name": "NewPlayer",
      "type": "event"
    },
    {
      "anonymous": false,
      "inputs": [
        {
          "indexed": true,
          "name": "player",
          "type": "address"
        },
        {
          "indexed": false,
          "name": "value",
          "type": "uint256"
        }
      ],
      "name": "AccountFunded",
      "type": "event"
    },
    {
      "anonymous": false,
      "inputs": [
        {
          "indexed": true,
          "name": "player",
          "type": "address"
        },
        {
          "indexed": false,
          "name": "amount",
          "type": "uint256"
        }
      ],
      "name": "Withdraw",
      "type": "event"
    },
    {
      "constant": false,
      "inputs": [
        {
          "name": "_merkleRoot",
          "type": "bytes32"
        },
        {
          "name": "_webrtcId",
          "type": "string"
        },
        {
          "name": "_amount",
          "type": "uint256"
        },
        {
          "name": "_signAddress",
          "type": "address"
        }
      ],
      "name": "openChannel",
      "outputs": [],
      "payable": true,
      "stateMutability": "payable",
      "type": "function"
    },
    {
      "constant": false,
      "inputs": [
        {
          "name": "_channelId",
          "type": "uint256"
        },
        {
          "name": "_merkleRoot",
          "type": "bytes32"
        },
        {
          "name": "_webrtcId",
          "type": "string"
        },
        {
          "name": "_amount",
          "type": "uint256"
        },
        {
          "name": "_signAddress",
          "type": "address"
        }
      ],
      "name": "joinChannel",
      "outputs": [],
      "payable": true,
      "stateMutability": "payable",
      "type": "function"
    },
    {
      "constant": false,
      "inputs": [
        {
          "name": "_channelId",
          "type": "uint256"
        },
        {
          "name": "_sig",
          "type": "bytes"
        },
        {
          "name": "_numberOfGuesses",
          "type": "uint256"
        },
        {
          "name": "_paths",
          "type": "bytes32[35]"
        },
        {
          "name": "_pos",
          "type": "uint256[5]"
        },
        {
          "name": "_nonces",
          "type": "uint256[5]"
        }
      ],
      "name": "closeChannel",
      "outputs": [],
      "payable": false,
      "stateMutability": "nonpayable",
      "type": "function"
    },
    {
      "constant": false,
      "inputs": [
        {
          "name": "_channelId",
          "type": "uint256"
        }
      ],
      "name": "timeout",
      "outputs": [],
      "payable": false,
      "stateMutability": "nonpayable",
      "type": "function"
    },
    {
      "constant": false,
      "inputs": [
        {
          "name": "_channelId",
          "type": "uint256"
        },
        {
          "name": "_sig",
          "type": "bytes"
        },
        {
          "name": "_pos",
          "type": "uint256"
        },
        {
          "name": "_seq",
          "type": "uint256"
        },
        {
          "name": "_type",
          "type": "uint256"
        },
        {
          "name": "_nonce",
          "type": "uint256"
        },
        {
          "name": "_path",
          "type": "bytes32[7]"
        }
      ],
      "name": "disputeAnswer",
      "outputs": [],
      "payable": false,
      "stateMutability": "nonpayable",
      "type": "function"
    }
  ],
  "bytecode": "0x6080604052603260035534801561001557600080fd5b506132f9806100256000396000f3006080604052600436106100d0576000357c0100000000000000000000000000000000000000000000000000000000900463ffffffff16806308148f7a146100d557806319045a2514610102578063298daf5b146101b95780632e1a7d4d14610215578063380388f1146102425780635f41a61d146102f95780637d9a63211461038d578063913595b014610457578063d9a8748c146104da578063e2eb41ff146104e4578063e5949b5d146105c0578063e7b7a256146106df578063f4c67c55146107ea578063fc960e1514610888575b600080fd5b3480156100e157600080fd5b50610100600480360381019080803590602001909291905050506108d5565b005b34801561010e57600080fd5b506101776004803603810190808035600019169060200190929190803590602001908201803590602001908080601f0160208091040260200160405190810160405280939291908181526020018383808284378201915050505050509192919290505050610d1c565b604051808273ffffffffffffffffffffffffffffffffffffffff1673ffffffffffffffffffffffffffffffffffffffff16815260200191505060405180910390f35b610213600480360381019080803590602001908201803590602001908080601f0160208091040260200160405190810160405280939291908181526020018383808284378201915050505050509192919290505050610e14565b005b34801561022157600080fd5b5061024060048036038101908080359060200190929190505050610ff6565b005b34801561024e57600080fd5b506102b76004803603810190808035600019169060200190929190803590602001908201803590602001908080601f0160208091040260200160405190810160405280939291908181526020018383808284378201915050505050509192919290505050611187565b604051808273ffffffffffffffffffffffffffffffffffffffff1673ffffffffffffffffffffffffffffffffffffffff16815260200191505060405180910390f35b61038b6004803603810190808035600019169060200190929190803590602001908201803590602001908080601f016020809104026020016040519081016040528093929190818152602001838380828437820191505050505050919291929080359060200190929190803573ffffffffffffffffffffffffffffffffffffffff1690602001909291905050506111a8565b005b34801561039957600080fd5b5061045560048036038101908080359060200190929190803590602001908201803590602001908080601f0160208091040260200160405190810160405280939291908181526020018383808284378201915050505050509192919290803590602001909291908035906020019092919080359060200190929190803590602001909291908060e001906007806020026040519081016040528092919082600760200280828437820191505050505091929192905050506115d2565b005b34801561046357600080fd5b50610498600480360381019080803573ffffffffffffffffffffffffffffffffffffffff169060200190929190505050611bec565b604051808273ffffffffffffffffffffffffffffffffffffffff1673ffffffffffffffffffffffffffffffffffffffff16815260200191505060405180910390f35b6104e2611c1f565b005b3480156104f057600080fd5b50610525600480360381019080803573ffffffffffffffffffffffffffffffffffffffff169060200190929190505050611d18565b604051808060200186815260200185815260200184815260200183151515158152602001828103825287818151815260200191508051906020019080838360005b83811015610581578082015181840152602081019050610566565b50505050905090810190601f1680156105ae5780820380516001836020036101000a031916815260200191505b50965050505050505060405180910390f35b3480156105cc57600080fd5b506105eb60048036038101908080359060200190929190505050611df3565b604051808c73ffffffffffffffffffffffffffffffffffffffff1673ffffffffffffffffffffffffffffffffffffffff1681526020018b73ffffffffffffffffffffffffffffffffffffffff1673ffffffffffffffffffffffffffffffffffffffff1681526020018a8152602001896000191660001916815260200188600019166000191681526020018773ffffffffffffffffffffffffffffffffffffffff1673ffffffffffffffffffffffffffffffffffffffff168152602001868152602001858152602001848152602001838152602001821515151581526020019b50505050505050505050505060405180910390f35b3480156106eb57600080fd5b506107e860048036038101908080359060200190929190803590602001908201803590602001908080601f0160208091040260200160405190810160405280939291908181526020018383808284378201915050505050509192919290803590602001909291908061046001906023806020026040519081016040528092919082602360200280828437820191505050505091929192908060a001906005806020026040519081016040528092919082600560200280828437820191505050505091929192908060a00190600580602002604051908101604052809291908260056020028082843782019150505050509192919290505050611ec9565b005b610886600480360381019080803590602001909291908035600019169060200190929190803590602001908201803590602001908080601f016020809104026020016040519081016040528093929190818152602001838380828437820191505050505050919291929080359060200190929190803573ffffffffffffffffffffffffffffffffffffffff169060200190929190505050612664565b005b34801561089457600080fd5b506108b76004803603810190808035600019169060200190929190505050612b73565b60405180826000191660001916815260200191505060405180910390f35b60006001828154811015156108e657fe5b90600052602060002090600b020190503373ffffffffffffffffffffffffffffffffffffffff168160000160009054906101000a900473ffffffffffffffffffffffffffffffffffffffff1673ffffffffffffffffffffffffffffffffffffffff1614806109a357503373ffffffffffffffffffffffffffffffffffffffff168160010160009054906101000a900473ffffffffffffffffffffffffffffffffffffffff1673ffffffffffffffffffffffffffffffffffffffff16145b15156109ae57600080fd5b600354816006015401431115156109c457600080fd5b80600a0160009054906101000a900460ff161515156109e257600080fd5b60008160010160009054906101000a900473ffffffffffffffffffffffffffffffffffffffff1673ffffffffffffffffffffffffffffffffffffffff161415610ae557610a588160000160009054906101000a900473ffffffffffffffffffffffffffffffffffffffff16826002015484612c96565b600181600a0160006101000a81548160ff0219169083151502179055503373ffffffffffffffffffffffffffffffffffffffff167f6b4e2f01b2ba44b3e8bb886c50569cc31c39794011e097221fb192f7006a7a718383600a0160009054906101000a900460ff1660405180838152602001821515151581526020019250505060405180910390a2610d18565b60008160050160009054906101000a900473ffffffffffffffffffffffffffffffffffffffff1673ffffffffffffffffffffffffffffffffffffffff16141515610d1757610b5c8160050160009054906101000a900473ffffffffffffffffffffffffffffffffffffffff16826007015484612c96565b600181600a0160006101000a81548160ff021916908315150217905550600081600701819055503373ffffffffffffffffffffffffffffffffffffffff168160000160009054906101000a900473ffffffffffffffffffffffffffffffffffffffff1673ffffffffffffffffffffffffffffffffffffffff1614610be1576000610be4565b60055b60ff1681600801819055503373ffffffffffffffffffffffffffffffffffffffff168160010160009054906101000a900473ffffffffffffffffffffffffffffffffffffffff1673ffffffffffffffffffffffffffffffffffffffff1614610c4d576000610c50565b60055b60ff16816009018190555060016000803373ffffffffffffffffffffffffffffffffffffffff1673ffffffffffffffffffffffffffffffffffffffff168152602001908152602001600020600301600082825401925050819055503373ffffffffffffffffffffffffffffffffffffffff167f6b4e2f01b2ba44b3e8bb886c50569cc31c39794011e097221fb192f7006a7a718383600a0160009054906101000a900460ff1660405180838152602001821515151581526020019250505060405180910390a25b5b5050565b60008060008060418551141515610d365760009350610e0b565b6020850151925060408501519150606085015160001a9050601b8160ff161015610d6157601b810190505b601b8160ff1614158015610d795750601c8160ff1614155b15610d875760009350610e0b565b600186828585604051600081526020016040526040518085600019166000191681526020018460ff1660ff1681526020018360001916600019168152602001826000191660001916815260200194505050505060206040516020810390808403906000865af1158015610dfe573d6000803e3d6000fd5b5050506020604051035193505b50505092915050565b6000803373ffffffffffffffffffffffffffffffffffffffff1673ffffffffffffffffffffffffffffffffffffffff16815260200190815260200160002060040160009054906101000a900460ff16151515610e6f57600080fd5b60a0604051908101604052808281526020013481526020016000815260200160008152602001600115158152506000803373ffffffffffffffffffffffffffffffffffffffff1673ffffffffffffffffffffffffffffffffffffffff1681526020019081526020016000206000820151816000019080519060200190610ef6929190613116565b5060208201518160010155604082015181600201556060820151816003015560808201518160040160006101000a81548160ff0219169083151502179055509050503373ffffffffffffffffffffffffffffffffffffffff167f5ca95187458a3a347baad567891df2db769ad6c7e1a06e416d9132abd658cbee82346040518080602001838152602001828103825284818151815260200191508051906020019080838360005b83811015610fb8578082015181840152602081019050610f9d565b50505050905090810190601f168015610fe55780820380516001836020036101000a031916815260200191505b50935050505060405180910390a250565b6000803373ffffffffffffffffffffffffffffffffffffffff1673ffffffffffffffffffffffffffffffffffffffff16815260200190815260200160002060040160009054906101000a900460ff16151561105057600080fd5b806000803373ffffffffffffffffffffffffffffffffffffffff1673ffffffffffffffffffffffffffffffffffffffff16815260200190815260200160002060010154101515156110a057600080fd5b806000803373ffffffffffffffffffffffffffffffffffffffff1673ffffffffffffffffffffffffffffffffffffffff168152602001908152602001600020600101600082825403925050819055503373ffffffffffffffffffffffffffffffffffffffff166108fc829081150290604051600060405180830381858888f19350505050158015611135573d6000803e3d6000fd5b503373ffffffffffffffffffffffffffffffffffffffff167f884edad9ce6fa2440d8a54cc123490eb96d2768479d49ff9c7366125a9424364826040518082815260200191505060405180910390a250565b60008061119384612b73565b905061119f8184610d1c565b91505092915050565b6000806000803373ffffffffffffffffffffffffffffffffffffffff1673ffffffffffffffffffffffffffffffffffffffff16815260200190815260200160002060040160009054906101000a900460ff16151561120557600080fd5b346000803373ffffffffffffffffffffffffffffffffffffffff1673ffffffffffffffffffffffffffffffffffffffff1681526020019081526020016000206001015401841115151561125757600080fd5b60003411156112b057346000803373ffffffffffffffffffffffffffffffffffffffff1673ffffffffffffffffffffffffffffffffffffffff168152602001908152602001600020600101600082825401925050819055505b6001805490509150600180548091906001016112cc9190613196565b5082600260003373ffffffffffffffffffffffffffffffffffffffff1673ffffffffffffffffffffffffffffffffffffffff16815260200190815260200160002060006101000a81548173ffffffffffffffffffffffffffffffffffffffff021916908373ffffffffffffffffffffffffffffffffffffffff160217905550836000803373ffffffffffffffffffffffffffffffffffffffff1673ffffffffffffffffffffffffffffffffffffffff168152602001908152602001600020600101600082825403925050819055506001828154811015156113a957fe5b90600052602060002090600b02019050338160000160006101000a81548173ffffffffffffffffffffffffffffffffffffffff021916908373ffffffffffffffffffffffffffffffffffffffff160217905550838160020181905550858160030181600019169055504381600601819055508381600701600082825401925050819055503373ffffffffffffffffffffffffffffffffffffffff167fafc7cc2db6b05682d5db7330ed6892baa2d02024b373bf030e58c602f1c8924c838888886000803373ffffffffffffffffffffffffffffffffffffffff1673ffffffffffffffffffffffffffffffffffffffff1681526020019081526020016000206000016040518086815260200185600019166000191681526020018060200184815260200180602001838103835286818151815260200191508051906020019080838360005b838110156115085780820151818401526020810190506114ed565b50505050905090810190601f1680156115355780820380516001836020036101000a031916815260200191505b508381038252848181546001816001161561010002031660029004815260200191508054600181600116156101000203166002900480156115b75780601f1061158c576101008083540402835291602001916115b7565b820191906000526020600020905b81548152906001019060200180831161159a57829003601f168201915b505097505050505050505060405180910390a2505050505050565b60008060008060018b8154811015156115e757fe5b90600052602060002090600b020193503373ffffffffffffffffffffffffffffffffffffffff168460000160009054906101000a900473ffffffffffffffffffffffffffffffffffffffff1673ffffffffffffffffffffffffffffffffffffffff1614806116a457503373ffffffffffffffffffffffffffffffffffffffff168460010160009054906101000a900473ffffffffffffffffffffffffffffffffffffffff1673ffffffffffffffffffffffffffffffffffffffff16145b15156116af57600080fd5b83600a0160009054906101000a900460ff161515156116cd57600080fd5b3373ffffffffffffffffffffffffffffffffffffffff168460000160009054906101000a900473ffffffffffffffffffffffffffffffffffffffff1673ffffffffffffffffffffffffffffffffffffffff161461174e578360000160009054906101000a900473ffffffffffffffffffffffffffffffffffffffff16611774565b8360010160009054906101000a900473ffffffffffffffffffffffffffffffffffffffff165b92508a89898989896040516020018087815260200186815260200185815260200184815260200183815260200182600760200280838360005b838110156117c85780820151818401526020810190506117ad565b5050505090500196505050505050506040516020818303038152906040526040518082805190602001908083835b60208310151561181b57805182526020820191506020810190506020830392506117f6565b6001836020036101000a03801982511681845116808217855250505050505090500191505060405180910390209150600260008473ffffffffffffffffffffffffffffffffffffffff1673ffffffffffffffffffffffffffffffffffffffff16815260200190815260200160002060009054906101000a900473ffffffffffffffffffffffffffffffffffffffff1673ffffffffffffffffffffffffffffffffffffffff166118ca838c612d44565b73ffffffffffffffffffffffffffffffffffffffff161415156118ec57600080fd5b3373ffffffffffffffffffffffffffffffffffffffff168460000160009054906101000a900473ffffffffffffffffffffffffffffffffffffffff1673ffffffffffffffffffffffffffffffffffffffff161461194d578360030154611953565b83600401545b905084600060078110151561196457fe5b6020020151600019168988886040516020018084815260200183815260200182815260200193505050506040516020818303038152906040526040518082805190602001908083835b6020831015156119d257805182526020820191506020810190506020830392506119ad565b6001836020036101000a038019825116818451168082178552505050505050905001915050604051809103902060001916141580611a2057508060001916611a1986612d58565b6000191614155b15611bdf5760016000803373ffffffffffffffffffffffffffffffffffffffff1673ffffffffffffffffffffffffffffffffffffffff16815260200190815260200160002060030160008282540192505081905550611a843385600701548d612c96565b3373ffffffffffffffffffffffffffffffffffffffff168460000160009054906101000a900473ffffffffffffffffffffffffffffffffffffffff1673ffffffffffffffffffffffffffffffffffffffff1614611ae2576000611ae5565b60055b60ff1684600801819055503373ffffffffffffffffffffffffffffffffffffffff168460010160009054906101000a900473ffffffffffffffffffffffffffffffffffffffff1673ffffffffffffffffffffffffffffffffffffffff1614611b4e576000611b51565b60055b60ff168460090181905550600184600a0160006101000a81548160ff021916908315150217905550600084600701819055503373ffffffffffffffffffffffffffffffffffffffff167f6b4e2f01b2ba44b3e8bb886c50569cc31c39794011e097221fb192f7006a7a718c600160405180838152602001821515151581526020019250505060405180910390a25b5050505050505050505050565b60026020528060005260406000206000915054906101000a900473ffffffffffffffffffffffffffffffffffffffff1681565b6000803373ffffffffffffffffffffffffffffffffffffffff1673ffffffffffffffffffffffffffffffffffffffff16815260200190815260200160002060040160009054906101000a900460ff161515611c7957600080fd5b346000803373ffffffffffffffffffffffffffffffffffffffff1673ffffffffffffffffffffffffffffffffffffffff168152602001908152602001600020600101600082825401925050819055503373ffffffffffffffffffffffffffffffffffffffff167fbccbe05a3719eacef984f404dd2adff555adcc05fb72fb8b309bafbd462cd6f7346040518082815260200191505060405180910390a2565b6000602052806000526040600020600091509050806000018054600181600116156101000203166002900480601f016020809104026020016040519081016040528092919081815260200182805460018160011615610100020316600290048015611dc45780601f10611d9957610100808354040283529160200191611dc4565b820191906000526020600020905b815481529060010190602001808311611da757829003601f168201915b5050505050908060010154908060020154908060030154908060040160009054906101000a900460ff16905085565b600181815481101515611e0257fe5b90600052602060002090600b02016000915090508060000160009054906101000a900473ffffffffffffffffffffffffffffffffffffffff16908060010160009054906101000a900473ffffffffffffffffffffffffffffffffffffffff16908060020154908060030154908060040154908060050160009054906101000a900473ffffffffffffffffffffffffffffffffffffffff169080600601549080600701549080600801549080600901549080600a0160009054906101000a900460ff1690508b565b60008060008060018a815481101515611ede57fe5b90600052602060002090600b020193503373ffffffffffffffffffffffffffffffffffffffff168460000160009054906101000a900473ffffffffffffffffffffffffffffffffffffffff1673ffffffffffffffffffffffffffffffffffffffff161480611f9b57503373ffffffffffffffffffffffffffffffffffffffff168460010160009054906101000a900473ffffffffffffffffffffffffffffffffffffffff1673ffffffffffffffffffffffffffffffffffffffff16145b1515611fa657600080fd5b83600a0160009054906101000a900460ff16151515611fc457600080fd5b8360050160009054906101000a900473ffffffffffffffffffffffffffffffffffffffff1673ffffffffffffffffffffffffffffffffffffffff163373ffffffffffffffffffffffffffffffffffffffff161415151561202357600080fd5b6120958787873373ffffffffffffffffffffffffffffffffffffffff168860000160009054906101000a900473ffffffffffffffffffffffffffffffffffffffff1673ffffffffffffffffffffffffffffffffffffffff161461208a578760040154612090565b87600301545b612e40565b3373ffffffffffffffffffffffffffffffffffffffff168460000160009054906101000a900473ffffffffffffffffffffffffffffffffffffffff1673ffffffffffffffffffffffffffffffffffffffff1614612116578360000160009054906101000a900473ffffffffffffffffffffffffffffffffffffffff1661213c565b8360010160009054906101000a900473ffffffffffffffffffffffffffffffffffffffff165b9250893389604051602001808481526020018373ffffffffffffffffffffffffffffffffffffffff1673ffffffffffffffffffffffffffffffffffffffff166c0100000000000000000000000002815260140182815260200193505050506040516020818303038152906040526040518082805190602001908083835b6020831015156121de57805182526020820191506020810190506020830392506121b9565b6001836020036101000a03801982511681845116808217855250505050505090500191505060405180910390209150600260008473ffffffffffffffffffffffffffffffffffffffff1673ffffffffffffffffffffffffffffffffffffffff16815260200190815260200160002060009054906101000a900473ffffffffffffffffffffffffffffffffffffffff1673ffffffffffffffffffffffffffffffffffffffff1661228d838b612d44565b73ffffffffffffffffffffffffffffffffffffffff161415156122af57600080fd5b6005888560020154028115156122c157fe5b049050600073ffffffffffffffffffffffffffffffffffffffff168460050160009054906101000a900473ffffffffffffffffffffffffffffffffffffffff1673ffffffffffffffffffffffffffffffffffffffff1614151561259357600184600a0160006101000a81548160ff02191690831515021790555061234633898c61304d565b61235133828c612c96565b600584600801541480612368575060058460090154145b156124fd5760016000808660000160009054906101000a900473ffffffffffffffffffffffffffffffffffffffff1673ffffffffffffffffffffffffffffffffffffffff1673ffffffffffffffffffffffffffffffffffffffff1681526020019081526020016000206003016000828254019250508190555060016000808660010160009054906101000a900473ffffffffffffffffffffffffffffffffffffffff1673ffffffffffffffffffffffffffffffffffffffff1673ffffffffffffffffffffffffffffffffffffffff168152602001908152602001600020600301600082825401925050819055506005846008015414156124af576124aa8460000160009054906101000a900473ffffffffffffffffffffffffffffffffffffffff16600586600901546005038760020154028115156124a357fe5b048c612c96565b6124f8565b6124f78460010160009054906101000a900473ffffffffffffffffffffffffffffffffffffffff16600586600801546005038760020154028115156124f057fe5b048c612c96565b5b61258e565b6125458460000160009054906101000a900473ffffffffffffffffffffffffffffffffffffffff166005866009015460050387600201540281151561253e57fe5b048c612c96565b61258d8460010160009054906101000a900473ffffffffffffffffffffffffffffffffffffffff166005866008015460050387600201540281151561258657fe5b048c612c96565b5b6125ed565b338460050160006101000a81548173ffffffffffffffffffffffffffffffffffffffff021916908373ffffffffffffffffffffffffffffffffffffffff1602179055506125e133898c61304d565b6125ec33828c612c96565b5b3373ffffffffffffffffffffffffffffffffffffffff167f6b4e2f01b2ba44b3e8bb886c50569cc31c39794011e097221fb192f7006a7a718b86600a0160009054906101000a900460ff1660405180838152602001821515151581526020019250505060405180910390a250505050505050505050565b60006001805490508610151561267957600080fd5b600060018781548110151561268a57fe5b90600052602060002090600b020160000160009054906101000a900473ffffffffffffffffffffffffffffffffffffffff1673ffffffffffffffffffffffffffffffffffffffff1614158015612736575060006001878154811015156126ec57fe5b90600052602060002090600b020160010160009054906101000a900473ffffffffffffffffffffffffffffffffffffffff1673ffffffffffffffffffffffffffffffffffffffff16145b151561274157600080fd5b6000803373ffffffffffffffffffffffffffffffffffffffff1673ffffffffffffffffffffffffffffffffffffffff16815260200190815260200160002060040160009054906101000a900460ff16151561279b57600080fd5b346000803373ffffffffffffffffffffffffffffffffffffffff1673ffffffffffffffffffffffffffffffffffffffff168152602001908152602001600020600101540183111515156127ed57600080fd5b600034111561284657346000803373ffffffffffffffffffffffffffffffffffffffff1673ffffffffffffffffffffffffffffffffffffffff168152602001908152602001600020600101600082825401925050819055505b81600260003373ffffffffffffffffffffffffffffffffffffffff1673ffffffffffffffffffffffffffffffffffffffff16815260200190815260200160002060006101000a81548173ffffffffffffffffffffffffffffffffffffffff021916908373ffffffffffffffffffffffffffffffffffffffff1602179055506001868154811015156128d357fe5b90600052602060002090600b02019050828160020154111515156128f657600080fd5b338160010160006101000a81548173ffffffffffffffffffffffffffffffffffffffff021916908373ffffffffffffffffffffffffffffffffffffffff16021790555084816004018160001916905550438160060181905550828160070160008282540192505081905550826000803373ffffffffffffffffffffffffffffffffffffffff1673ffffffffffffffffffffffffffffffffffffffff1681526020019081526020016000206001016000828254039250508190555060016000808360000160009054906101000a900473ffffffffffffffffffffffffffffffffffffffff1673ffffffffffffffffffffffffffffffffffffffff1673ffffffffffffffffffffffffffffffffffffffff1681526020019081526020016000206002016000828254019250508190555060016000808360010160009054906101000a900473ffffffffffffffffffffffffffffffffffffffff1673ffffffffffffffffffffffffffffffffffffffff1673ffffffffffffffffffffffffffffffffffffffff168152602001908152602001600020600201600082825401925050819055503373ffffffffffffffffffffffffffffffffffffffff167f30e3513ecbc62f37c873968e911fa0d35b7a629b002d01c09166ca7e09f7aefa8787878760405180858152602001846000191660001916815260200180602001838152602001828103825284818151815260200191508051906020019080838360005b83811015612b2e578082015181840152602081019050612b13565b50505050905090810190601f168015612b5b5780820380516001836020036101000a031916815260200191505b509550505050505060405180910390a2505050505050565b600060606040805190810160405280601c81526020017f19457468657265756d205369676e6564204d6573736167653a0a333200000000815250905080836040516020018083805190602001908083835b602083101515612be95780518252602082019150602081019050602083039250612bc4565b6001836020036101000a0380198251168184511680821785525050505050509050018260001916600019168152602001925050506040516020818303038152906040526040518082805190602001908083835b602083101515612c615780518252602082019150602081019050602083039250612c3c565b6001836020036101000a0380198251168184511680821785525050505050509050019150506040518091039020915050919050565b600181815481101515612ca557fe5b90600052602060002090600b0201600701548211151515612cc257fe5b816000808573ffffffffffffffffffffffffffffffffffffffff1673ffffffffffffffffffffffffffffffffffffffff1681526020019081526020016000206001016000828254019250508190555081600182815481101515612d2157fe5b90600052602060002090600b020160070160008282540392505081905550505050565b6000612d508383611187565b905092915050565b600080826000600781101515612d6a57fe5b60200201519150600190505b6007811015612e3a57818382600781101515612d8e57fe5b60200201516040516020018083600019166000191681526020018260001916600019168152602001925050506040516020818303038152906040526040518082805190602001908083835b602083101515612dfe5780518252602082019150602081019050602083039250612dd9565b6001836020036101000a038019825116818451168082178552505050505050905001915050604051809103902091508080600101915050612d76565b50919050565b60008060008092505b6005831015613044578583600581101515612e6057fe5b602002015160018685600581101515612e7557fe5b6020020151604051602001808481526020018360ff167f010000000000000000000000000000000000000000000000000000000000000002815260010182815260200193505050506040516020818303038152906040526040518082805190602001908083835b602083101515612f015780518252602082019150602081019050602083039250612edc565b6001836020036101000a038019825116818451168082178552505050505050905001915050604051809103902091508660078402602381101515612f4157fe5b6020020151600019168260001916141515612f5857fe5b600190505b6007811015613026578187826007860201602381101515612f7a57fe5b60200201516040516020018083600019166000191681526020018260001916600019168152602001925050506040516020818303038152906040526040518082805190602001908083835b602083101515612fea5780518252602082019150602081019050602083039250612fc5565b6001836020036101000a038019825116818451168082178552505050505050905001915050604051809103902091508080600101915050612f5d565b8360001916826000191614151561303957fe5b826001019250612e49565b50505050505050565b60018181548110151561305c57fe5b90600052602060002090600b020160000160009054906101000a900473ffffffffffffffffffffffffffffffffffffffff1673ffffffffffffffffffffffffffffffffffffffff168373ffffffffffffffffffffffffffffffffffffffff1614156130eb57816001828154811015156130d157fe5b90600052602060002090600b020160080181905550613111565b816001828154811015156130fb57fe5b90600052602060002090600b0201600901819055505b505050565b828054600181600116156101000203166002900490600052602060002090601f016020900481019282601f1061315757805160ff1916838001178555613185565b82800160010185558215613185579182015b82811115613184578251825591602001919060010190613169565b5b50905061319291906131c8565b5090565b8154818355818111156131c357600b0281600b0283600052602060002091820191016131c291906131ed565b5b505050565b6131ea91905b808211156131e65760008160009055506001016131ce565b5090565b90565b6132ca91905b808211156132c657600080820160006101000a81549073ffffffffffffffffffffffffffffffffffffffff02191690556001820160006101000a81549073ffffffffffffffffffffffffffffffffffffffff02191690556002820160009055600382016000905560048201600090556005820160006101000a81549073ffffffffffffffffffffffffffffffffffffffff02191690556006820160009055600782016000905560088201600090556009820160009055600a820160006101000a81549060ff021916905550600b016131f3565b5090565b905600a165627a7a723058208f26f783ecfd1dece32c4029467c9040e5383ac4c272f1736ea6c7a01f4a14500029",
  "source": "pragma solidity ^0.4.24;\n\nimport \"./ECTools.sol\";\nimport \"./Players.sol\";\n\n/// @title State channel implementation for the clasic Battleship game\ncontract EtherShips is Players, ECTools {\n\n\tstruct Channel {\n\t\taddress p1;\n\t\taddress p2;\n\t\tuint stake;\n\t\tbytes32 p1root;\n\t\tbytes32 p2root;\n\t\taddress halfFinisher;\n\t\tuint blockStarted;\n\t\tuint balance;\n\t\tuint p1Score;  //------|\n\t\tuint p2Score;  //      | TODO: squeeze this into one memory slot\n\t\tbool finished; //------|\n\t}\n\n\tevent OpenChannel(uint channelId, bytes32 root, string webrtcId, uint amount, string username, address indexed addr);\n\tevent JoinChannel(uint channelId, bytes32 root, string webrtcId, uint amount, address indexed addr);\n\tevent CloseChannel(uint channelId, address indexed player, bool finished);\n\n\tChannel[] public channels;\n\tmapping(address => address) public signAddresses;\n\n\tuint TIMEOUT_NUM_BLOCKS = 50; // TODO: this number is used for testing\n\n\t/// @dev User opens a channel and waits for the opponent to join\n\t/// @param _merkleRoot The root node of your boards state\n\t/// @param _webrtcId Connection id used for p2p webrtc connection\n\t/// @param _amount Amount in wei for the channel, joining user must match the amount\n\t/// @param _signAddress Opens channel with one MetaMask address, sign state with anoother\n\tfunction openChannel(bytes32 _merkleRoot, string _webrtcId, uint _amount, address _signAddress) payable public {\n\t\trequire(players[msg.sender].exists);\n\t\trequire(_amount <= players[msg.sender].balance + msg.value);\n\n\t\tif (msg.value > 0) {\n\t\t\tplayers[msg.sender].balance += msg.value;\n\t\t}\n\n\t\tuint _channelId = channels.length;\n        channels.length++;\n\n        signAddresses[msg.sender] = _signAddress;\n\n        players[msg.sender].balance -= _amount;\n        Channel storage c = channels[_channelId];\n\t\tc.p1 = msg.sender;\n\t\tc.stake = _amount;\n\t\tc.p1root = _merkleRoot;\n\t\tc.blockStarted = block.number;\n\t\tc.balance += _amount;\n\n        emit OpenChannel(_channelId, _merkleRoot, _webrtcId, _amount, players[msg.sender].username, msg.sender);\n    }\n    \n\t/// @dev User joins an already opened channe;\n\t/// @param _channelId The id of the channel you want to join\n\t/// @param _merkleRoot The root node of your boards state\n\t/// @param _webrtcId Connection id used for p2p webrtc connection\n\t/// @param _amount Amount in wei for you yo join the channel\n\t/// @param _signAddress Opens channel with one MetaMask address, sign state with anoother\n    function joinChannel(uint _channelId, bytes32 _merkleRoot, string _webrtcId, uint _amount, address _signAddress) payable public {\n    \trequire(_channelId < channels.length);\n\t\trequire((channels[_channelId].p1 != 0x0) && (channels[_channelId].p2 == 0x0));\n\t\trequire(players[msg.sender].exists);\n\t\trequire(_amount <= players[msg.sender].balance + msg.value);\n\n\t\tif (msg.value > 0) {\n\t\t\tplayers[msg.sender].balance += msg.value;\n\t\t}\n\n\t\tsignAddresses[msg.sender] = _signAddress;\n\n\t\tChannel storage c = channels[_channelId];\n\t\t\n\t\trequire(c.stake <= _amount);\n\n\t\tc.p2 = msg.sender;\n\t\tc.p2root = _merkleRoot;\n\t\tc.blockStarted = block.number;\n\t\tc.balance += _amount;\n\n\t\t// update player stats\n\t\tplayers[msg.sender].balance -= _amount;\n\t\tplayers[c.p1].gamesPlayed += 1;\n\t\tplayers[c.p2].gamesPlayed += 1;\n\n        emit JoinChannel(_channelId, _merkleRoot, _webrtcId, _amount, msg.sender);\n    }\n\n\t/// @dev Closes the channel, both users must call this for it to be succesfully closed\n\t/// @param _channelId The id of the channel you want to close\n\t/// @param _sig The signature of the other user confirming how many ships you hit\n\t/// @param _numberOfGuesses Number of ships you hit\n    function closeChannel(uint _channelId, bytes _sig, uint _numberOfGuesses, bytes32[35] _paths, uint[5] _pos, uint[5] _nonces) public {\n\t\tChannel storage c = channels[_channelId];\n\n\t\trequire(c.p1 == msg.sender || c.p2 == msg.sender);\n    \trequire(!c.finished);\n    \trequire(msg.sender != c.halfFinisher);\n\n\t\tdidUserSetShips(_paths, _pos, _nonces, c.p1 == msg.sender ? c.p1root : c.p2root);\n    \t\n    \taddress opponent = c.p1 == msg.sender ? c.p2 : c.p1;\n    \tbytes32 hash = keccak256(abi.encodePacked(_channelId, msg.sender, _numberOfGuesses));\n\n       \trequire(_recoverSig(hash, _sig) == signAddresses[opponent]);\n\n\t\tuint wonAmount = c.stake * _numberOfGuesses / 5;\n\n\t\t// one player already submitted score\n    \tif (c.halfFinisher != address(0)) {\n    \t\tc.finished = true;\n\n\t\t\taddScore(msg.sender, _numberOfGuesses, _channelId);\n\n\t\t\taddBalanceToPlayer(msg.sender, wonAmount, _channelId);\n\n\t\t\t// sombody won the game\n\t\t\tif (c.p1Score == 5 || c.p2Score == 5) {\n\t\t\t\tplayers[c.p1].finishedGames += 1;\n\t\t\t\tplayers[c.p2].finishedGames += 1;\n\n\t\t\t\t// if game ended we send rest of stake to winner\n\t\t\t\tif (c.p1Score == 5) {\n\t\t\t\t\taddBalanceToPlayer(c.p1, c.stake * (5 - c.p2Score) / 5, _channelId);\n\t\t\t\t} else {\n\t\t\t\t\taddBalanceToPlayer(c.p2, c.stake * (5 - c.p1Score) / 5, _channelId);\n\t\t\t\t}\n\t\t\t}\n\t\t\t// nobody has won the game distribute the rest of the money accordingly\n\t\t\telse {\n\t\t\t\taddBalanceToPlayer(c.p1, c.stake * (5 - c.p2Score) / 5, _channelId);\n\t\t\t\taddBalanceToPlayer(c.p2, c.stake * (5 - c.p1Score) / 5, _channelId);\n\t\t\t}\n\n    \t} else { // the first time close is called on this channel\n\t\t\tc.halfFinisher = msg.sender;\n\n\t\t\taddScore(msg.sender, _numberOfGuesses, _channelId);\n\t\t\taddBalanceToPlayer(msg.sender, wonAmount, _channelId);\n    \t}\n\n    \temit CloseChannel(_channelId, msg.sender, c.finished);\n    }\n\n\t/// @dev After N blocks if the channel isn't closed/joined the user can timeout close it\n\t/// @param _channelId Id of the channel\n\tfunction timeout(uint _channelId) public {\n\t\tChannel storage c = channels[_channelId];\n\n\t\trequire(c.p1 == msg.sender || c.p2 == msg.sender);\n\t\trequire(block.number > (c.blockStarted + TIMEOUT_NUM_BLOCKS));\n\t\trequire(!c.finished);\n\n\t\t// If nobody joined the channel let the user retreive the money\n\t\tif (c.p2 == 0x0) {\n\t\t\taddBalanceToPlayer(c.p1, c.stake, _channelId);\n\n\t\t\tc.finished = true;\n\t\t\temit CloseChannel(_channelId, msg.sender, c.finished);\n\t\t} \n\t\t// If one of the players hasn't closed the game\n\t\telse if (c.halfFinisher != 0x0) {\n\t\t\t// the user gets all the left over money in the channel\n\t\t\taddBalanceToPlayer(c.halfFinisher, c.balance, _channelId);\n\n\t\t\tc.finished = true;\n\t\t\tc.balance = 0;\n\t\t\tc.p1Score = c.p1 == msg.sender ? 5 : 0;\n    \t\tc.p2Score = c.p2 == msg.sender ? 5 : 0;\n\t\t\t\n\t\t\tplayers[msg.sender].finishedGames += 1;\n\n\t\t\temit CloseChannel(_channelId, msg.sender, c.finished);\n\t\t}\n\t}\n\n\t/// @dev If the other player lies that you didn't hit his ships merkle proof resolve that he's cheating\n\t/// @param _channelId Id of the channel\n\t/// @param _sig Signature of the move that you're disputing\n\t/// @param _pos Position on the grid\n\t/// @param _seq Sequence number of the move\n\t/// @param _type Type 1 means is hit, 0 is missed\n\t/// @param _nonce The nonce the user hashed the field\n\t/// @param _path Merkle path that is disputed\n    function disputeAnswer(uint _channelId, bytes _sig, uint _pos, uint _seq, uint _type, uint _nonce, bytes32[7] _path) public {\n\t\tChannel storage c = channels[_channelId];\n\t\t\n    \trequire(c.p1 == msg.sender || c.p2 == msg.sender);\n    \trequire(!c.finished);\n\n    \taddress opponent = c.p1 == msg.sender ? c.p2 : c.p1;\n\t\t\n    \tbytes32 hash = keccak256(abi.encodePacked(_channelId, _pos, _seq, _type, _nonce, _path));\n    \trequire(_recoverSig(hash, _sig) == signAddresses[opponent]);\n\n    \tbytes32 opponentRoot = c.p1 == msg.sender ? c.p2root : c.p1root;\n    \tif (keccak256(abi.encodePacked(_pos, _type, _nonce)) != _path[0] || _getRoot(_path) != opponentRoot) {\n    \t\t// only player that didn't cheat get plus one on finished games\n    \t\tplayers[msg.sender].finishedGames += 1;\n\n\t\t\t// gets all the leftover money from the channel\n\t\t\taddBalanceToPlayer(msg.sender, c.balance, _channelId);\n    \t\t\n    \t\tc.p1Score = c.p1 == msg.sender ? 5 : 0;\n    \t\tc.p2Score = c.p2 == msg.sender ? 5 : 0;\n    \t\tc.finished = true;\n\t\t\tc.balance = 0;\n\n    \t\temit CloseChannel(_channelId, msg.sender, true);\n    \t}\n    }\n\n\t/** PRIVATE METHODS */\n\n\tfunction addBalanceToPlayer(address _p, uint _amount, uint _channelId) private {\n\t\tassert(_amount <= channels[_channelId].balance);\n\t\tplayers[_p].balance += _amount;\n\t\tchannels[_channelId].balance -= _amount;\n\t}\n\n\tfunction addScore(address _sender, uint _numberOfGuesses, uint _channelId) private {\n\t\tif (_sender == channels[_channelId].p1) {\n\t\t\tchannels[_channelId].p1Score = _numberOfGuesses;\n\t\t} else {\n\t\t\tchannels[_channelId].p2Score = _numberOfGuesses;\n\t\t}\n\t}\n\n    function _recoverSig(bytes32 _hash, bytes _sig) private pure returns (address) {\n\t\treturn prefixedRecover(_hash, _sig);\n\t}\n\n\tfunction _getRoot(bytes32[7] _path) private pure returns(bytes32 _root) {\n\t    _root = _path[0];\n\t    \n\t    for (uint i=1; i<7; i++) {\n\t        _root = keccak256(abi.encodePacked(_root, _path[i]));\n\t    }\n    }\n\n\tfunction didUserSetShips(bytes32[35] _paths, uint[5] _pos, uint[5] _nonces, bytes32 _root) private {\n\t\tfor(uint i = 0; i < 5; ++i) {\n\t\t\tbytes32 startNode = keccak256(abi.encodePacked(_pos[i], 1, _nonces[i]));\n\t\t\t\n\t\t\tassert(startNode == _paths[i*7]);\n\t\t\t\t\t\n\t\t\tfor (uint j=1; j<7; j++) {\n\t\t\t\tstartNode = keccak256(abi.encodePacked(startNode, _paths[(i*7) + j]));\n\t\t\t}\n\t\t\t\n\t\t\tassert(startNode == _root);\n\t\t}\n\t}\n}",
  "sourcePath": "/Users/nenadpalinkasevic/Desktop/blockchain/StateChannels/solidity/contracts/EtherShips.sol",
  "compiler": {
    "name": "solc",
    "version": "0.4.24+commit.e67f0147.Emscripten.clang"
  },
  "schemaVersion": "2.0.0",
  "updatedAt": "2018-07-25T12:21:21.818Z"
}