{
  "contractName": "EtherShips",
  "abi": [
    {
      "constant": true,
      "inputs": [
        {
          "name": "hash",
          "type": "bytes32"
        },
        {
          "name": "sig",
          "type": "bytes"
        }
      ],
      "name": "recover",
      "outputs": [
        {
          "name": "",
          "type": "address"
        }
      ],
      "payable": false,
      "stateMutability": "pure",
      "type": "function"
    },
    {
      "constant": false,
      "inputs": [
        {
          "name": "_username",
          "type": "string"
        }
      ],
      "name": "createAccount",
      "outputs": [],
      "payable": true,
      "stateMutability": "payable",
      "type": "function"
    },
    {
      "constant": false,
      "inputs": [
        {
          "name": "_amount",
          "type": "uint256"
        }
      ],
      "name": "withdraw",
      "outputs": [],
      "payable": false,
      "stateMutability": "nonpayable",
      "type": "function"
    },
    {
      "constant": true,
      "inputs": [
        {
          "name": "_msg",
          "type": "bytes32"
        },
        {
          "name": "sig",
          "type": "bytes"
        }
      ],
      "name": "prefixedRecover",
      "outputs": [
        {
          "name": "",
          "type": "address"
        }
      ],
      "payable": false,
      "stateMutability": "pure",
      "type": "function"
    },
    {
      "constant": true,
      "inputs": [
        {
          "name": "",
          "type": "address"
        }
      ],
      "name": "signAddresses",
      "outputs": [
        {
          "name": "",
          "type": "address"
        }
      ],
      "payable": false,
      "stateMutability": "view",
      "type": "function"
    },
    {
      "constant": false,
      "inputs": [],
      "name": "fundAccount",
      "outputs": [],
      "payable": true,
      "stateMutability": "payable",
      "type": "function"
    },
    {
      "constant": true,
      "inputs": [
        {
          "name": "",
          "type": "address"
        }
      ],
      "name": "players",
      "outputs": [
        {
          "name": "username",
          "type": "string"
        },
        {
          "name": "balance",
          "type": "uint256"
        },
        {
          "name": "gamesPlayed",
          "type": "uint256"
        },
        {
          "name": "finishedGames",
          "type": "uint256"
        },
        {
          "name": "exists",
          "type": "bool"
        }
      ],
      "payable": false,
      "stateMutability": "view",
      "type": "function"
    },
    {
      "constant": true,
      "inputs": [
        {
          "name": "",
          "type": "uint256"
        }
      ],
      "name": "channels",
      "outputs": [
        {
          "name": "p1",
          "type": "address"
        },
        {
          "name": "p2",
          "type": "address"
        },
        {
          "name": "stake",
          "type": "uint256"
        },
        {
          "name": "p1root",
          "type": "bytes32"
        },
        {
          "name": "p2root",
          "type": "bytes32"
        },
        {
          "name": "halfFinisher",
          "type": "address"
        },
        {
          "name": "timeStarted",
          "type": "uint256"
        },
        {
          "name": "p1Score",
          "type": "uint256"
        },
        {
          "name": "p2Score",
          "type": "uint256"
        },
        {
          "name": "finished",
          "type": "bool"
        }
      ],
      "payable": false,
      "stateMutability": "view",
      "type": "function"
    },
    {
      "constant": true,
      "inputs": [
        {
          "name": "_msg",
          "type": "bytes32"
        }
      ],
      "name": "toEthereumSignedMessage",
      "outputs": [
        {
          "name": "",
          "type": "bytes32"
        }
      ],
      "payable": false,
      "stateMutability": "pure",
      "type": "function"
    },
    {
      "anonymous": false,
      "inputs": [
        {
          "indexed": false,
          "name": "channelId",
          "type": "uint256"
        },
        {
          "indexed": false,
          "name": "root",
          "type": "bytes32"
        },
        {
          "indexed": false,
          "name": "webrtcId",
          "type": "string"
        },
        {
          "indexed": false,
          "name": "amount",
          "type": "uint256"
        },
        {
          "indexed": false,
          "name": "username",
          "type": "string"
        },
        {
          "indexed": true,
          "name": "addr",
          "type": "address"
        }
      ],
      "name": "OpenChannel",
      "type": "event"
    },
    {
      "anonymous": false,
      "inputs": [
        {
          "indexed": false,
          "name": "channelId",
          "type": "uint256"
        },
        {
          "indexed": false,
          "name": "root",
          "type": "bytes32"
        },
        {
          "indexed": false,
          "name": "webrtcId",
          "type": "string"
        },
        {
          "indexed": false,
          "name": "amount",
          "type": "uint256"
        },
        {
          "indexed": true,
          "name": "addr",
          "type": "address"
        }
      ],
      "name": "JoinChannel",
      "type": "event"
    },
    {
      "anonymous": false,
      "inputs": [
        {
          "indexed": false,
          "name": "channelId",
          "type": "uint256"
        },
        {
          "indexed": false,
          "name": "player",
          "type": "address"
        },
        {
          "indexed": false,
          "name": "finished",
          "type": "bool"
        }
      ],
      "name": "CloseChannel",
      "type": "event"
    },
    {
      "anonymous": false,
      "inputs": [
        {
          "indexed": false,
          "name": "addr1",
          "type": "address"
        },
        {
          "indexed": false,
          "name": "addr2",
          "type": "address"
        },
        {
          "indexed": false,
          "name": "hash",
          "type": "bytes32"
        }
      ],
      "name": "Log",
      "type": "event"
    },
    {
      "anonymous": false,
      "inputs": [
        {
          "indexed": true,
          "name": "player",
          "type": "address"
        },
        {
          "indexed": false,
          "name": "username",
          "type": "string"
        },
        {
          "indexed": false,
          "name": "balance",
          "type": "uint256"
        }
      ],
      "name": "NewPlayer",
      "type": "event"
    },
    {
      "anonymous": false,
      "inputs": [
        {
          "indexed": true,
          "name": "player",
          "type": "address"
        },
        {
          "indexed": false,
          "name": "value",
          "type": "uint256"
        }
      ],
      "name": "AccountFunded",
      "type": "event"
    },
    {
      "anonymous": false,
      "inputs": [
        {
          "indexed": true,
          "name": "player",
          "type": "address"
        },
        {
          "indexed": false,
          "name": "amount",
          "type": "uint256"
        }
      ],
      "name": "Withdraw",
      "type": "event"
    },
    {
      "constant": false,
      "inputs": [
        {
          "name": "_merkleRoot",
          "type": "bytes32"
        },
        {
          "name": "_webrtcId",
          "type": "string"
        },
        {
          "name": "_amount",
          "type": "uint256"
        },
        {
          "name": "_signAddress",
          "type": "address"
        }
      ],
      "name": "openChannel",
      "outputs": [],
      "payable": true,
      "stateMutability": "payable",
      "type": "function"
    },
    {
      "constant": false,
      "inputs": [
        {
          "name": "_channelId",
          "type": "uint256"
        },
        {
          "name": "_merkleRoot",
          "type": "bytes32"
        },
        {
          "name": "_webrtcId",
          "type": "string"
        },
        {
          "name": "_amount",
          "type": "uint256"
        },
        {
          "name": "_signAddress",
          "type": "address"
        }
      ],
      "name": "joinChannel",
      "outputs": [],
      "payable": true,
      "stateMutability": "payable",
      "type": "function"
    },
    {
      "constant": false,
      "inputs": [
        {
          "name": "_channelId",
          "type": "uint256"
        },
        {
          "name": "_sig",
          "type": "bytes"
        },
        {
          "name": "_numberOfGuesses",
          "type": "uint256"
        }
      ],
      "name": "closeChannel",
      "outputs": [],
      "payable": false,
      "stateMutability": "nonpayable",
      "type": "function"
    },
    {
      "constant": false,
      "inputs": [
        {
          "name": "_channelId",
          "type": "uint256"
        }
      ],
      "name": "timeout",
      "outputs": [],
      "payable": false,
      "stateMutability": "nonpayable",
      "type": "function"
    },
    {
      "constant": false,
      "inputs": [
        {
          "name": "_channelId",
          "type": "uint256"
        },
        {
          "name": "_sig",
          "type": "bytes"
        },
        {
          "name": "_pos",
          "type": "uint256"
        },
        {
          "name": "_seq",
          "type": "uint256"
        },
        {
          "name": "_type",
          "type": "uint256"
        },
        {
          "name": "_nonce",
          "type": "uint256"
        },
        {
          "name": "_path",
          "type": "bytes32[7]"
        }
      ],
      "name": "disputeAnswer",
      "outputs": [],
      "payable": false,
      "stateMutability": "nonpayable",
      "type": "function"
    }
  ],
  "bytecode": "0x60806040526202a30060035534801561001757600080fd5b5061333f806100276000396000f3006080604052600436106100d0576000357c0100000000000000000000000000000000000000000000000000000000900463ffffffff16806308148f7a146100d557806319045a2514610102578063298daf5b146101b95780632e1a7d4d14610215578063380388f11461024257806345fbd477146102f95780635f41a61d146103765780637d9a63211461040a578063913595b0146104d4578063d9a8748c14610557578063e2eb41ff14610561578063e5949b5d1461063d578063f4c67c5514610755578063fc960e15146107f3575b600080fd5b3480156100e157600080fd5b5061010060048036038101908080359060200190929190505050610840565b005b34801561010e57600080fd5b506101776004803603810190808035600019169060200190929190803590602001908201803590602001908080601f0160208091040260200160405190810160405280939291908181526020018383808284378201915050505050509192919290505050610c08565b604051808273ffffffffffffffffffffffffffffffffffffffff1673ffffffffffffffffffffffffffffffffffffffff16815260200191505060405180910390f35b610213600480360381019080803590602001908201803590602001908080601f0160208091040260200160405190810160405280939291908181526020018383808284378201915050505050509192919290505050610d00565b005b34801561022157600080fd5b5061024060048036038101908080359060200190929190505050610ee2565b005b34801561024e57600080fd5b506102b76004803603810190808035600019169060200190929190803590602001908201803590602001908080601f0160208091040260200160405190810160405280939291908181526020018383808284378201915050505050509192919290505050611073565b604051808273ffffffffffffffffffffffffffffffffffffffff1673ffffffffffffffffffffffffffffffffffffffff16815260200191505060405180910390f35b34801561030557600080fd5b5061037460048036038101908080359060200190929190803590602001908201803590602001908080601f016020809104026020016040519081016040528093929190818152602001838380828437820191505050505050919291929080359060200190929190505050611094565b005b6104086004803603810190808035600019169060200190929190803590602001908201803590602001908080601f016020809104026020016040519081016040528093929190818152602001838380828437820191505050505050919291929080359060200190929190803573ffffffffffffffffffffffffffffffffffffffff169060200190929190505050611acc565b005b34801561041657600080fd5b506104d260048036038101908080359060200190929190803590602001908201803590602001908080601f0160208091040260200160405190810160405280939291908181526020018383808284378201915050505050509192919290803590602001909291908035906020019092919080359060200190929190803590602001909291908060e00190600780602002604051908101604052809291908260076020028082843782019150505050509192919290505050611ee4565b005b3480156104e057600080fd5b50610515600480360381019080803573ffffffffffffffffffffffffffffffffffffffff1690602001909291905050506126d3565b604051808273ffffffffffffffffffffffffffffffffffffffff1673ffffffffffffffffffffffffffffffffffffffff16815260200191505060405180910390f35b61055f612706565b005b34801561056d57600080fd5b506105a2600480360381019080803573ffffffffffffffffffffffffffffffffffffffff1690602001909291905050506127ff565b604051808060200186815260200185815260200184815260200183151515158152602001828103825287818151815260200191508051906020019080838360005b838110156105fe5780820151818401526020810190506105e3565b50505050905090810190601f16801561062b5780820380516001836020036101000a031916815260200191505b50965050505050505060405180910390f35b34801561064957600080fd5b50610668600480360381019080803590602001909291905050506128da565b604051808b73ffffffffffffffffffffffffffffffffffffffff1673ffffffffffffffffffffffffffffffffffffffff1681526020018a73ffffffffffffffffffffffffffffffffffffffff1673ffffffffffffffffffffffffffffffffffffffff168152602001898152602001886000191660001916815260200187600019166000191681526020018673ffffffffffffffffffffffffffffffffffffffff1673ffffffffffffffffffffffffffffffffffffffff168152602001858152602001848152602001838152602001821515151581526020019a505050505050505050505060405180910390f35b6107f1600480360381019080803590602001909291908035600019169060200190929190803590602001908201803590602001908080601f016020809104026020016040519081016040528093929190818152602001838380828437820191505050505050919291929080359060200190929190803573ffffffffffffffffffffffffffffffffffffffff1690602001909291905050506129aa565b005b3480156107ff57600080fd5b506108226004803603810190808035600019169060200190929190505050612ea7565b60405180826000191660001916815260200191505060405180910390f35b6108486130c6565b60008060018481548110151561085a57fe5b90600052602060002090600a020161014060405190810160405290816000820160009054906101000a900473ffffffffffffffffffffffffffffffffffffffff1673ffffffffffffffffffffffffffffffffffffffff1673ffffffffffffffffffffffffffffffffffffffff1681526020016001820160009054906101000a900473ffffffffffffffffffffffffffffffffffffffff1673ffffffffffffffffffffffffffffffffffffffff1673ffffffffffffffffffffffffffffffffffffffff168152602001600282015481526020016003820154600019166000191681526020016004820154600019166000191681526020016005820160009054906101000a900473ffffffffffffffffffffffffffffffffffffffff1673ffffffffffffffffffffffffffffffffffffffff1673ffffffffffffffffffffffffffffffffffffffff1681526020016006820154815260200160078201548152602001600882015481526020016009820160009054906101000a900460ff16151515158152505092503373ffffffffffffffffffffffffffffffffffffffff16836000015173ffffffffffffffffffffffffffffffffffffffff161480610a4d57503373ffffffffffffffffffffffffffffffffffffffff16836020015173ffffffffffffffffffffffffffffffffffffffff16145b1515610a5857600080fd5b6003548360c001510142111515610a6e57600080fd5b826101200151151515610a8057600080fd5b6000836020015173ffffffffffffffffffffffffffffffffffffffff161415610b11578260400151600080856000015173ffffffffffffffffffffffffffffffffffffffff1673ffffffffffffffffffffffffffffffffffffffff16815260200190815260200160002060010160008282540192505081905550600183610120019015159081151581525050610c02565b60008360a0015173ffffffffffffffffffffffffffffffffffffffff16141515610c0157826000015173ffffffffffffffffffffffffffffffffffffffff168360a0015173ffffffffffffffffffffffffffffffffffffffff1614610b7b57826101000151610b81565b8260e001515b915060058360400151811515610b9357fe5b04905081600a0381026000808560a0015173ffffffffffffffffffffffffffffffffffffffff1673ffffffffffffffffffffffffffffffffffffffff168152602001908152602001600020600101600082825401925050819055506001836101200190151590811515815250505b5b50505050565b60008060008060418551141515610c225760009350610cf7565b6020850151925060408501519150606085015160001a9050601b8160ff161015610c4d57601b810190505b601b8160ff1614158015610c655750601c8160ff1614155b15610c735760009350610cf7565b600186828585604051600081526020016040526040518085600019166000191681526020018460ff1660ff1681526020018360001916600019168152602001826000191660001916815260200194505050505060206040516020810390808403906000865af1158015610cea573d6000803e3d6000fd5b5050506020604051035193505b50505092915050565b6000803373ffffffffffffffffffffffffffffffffffffffff1673ffffffffffffffffffffffffffffffffffffffff16815260200190815260200160002060040160009054906101000a900460ff16151515610d5b57600080fd5b60a0604051908101604052808281526020013481526020016000815260200160008152602001600115158152506000803373ffffffffffffffffffffffffffffffffffffffff1673ffffffffffffffffffffffffffffffffffffffff1681526020019081526020016000206000820151816000019080519060200190610de2929190613164565b5060208201518160010155604082015181600201556060820151816003015560808201518160040160006101000a81548160ff0219169083151502179055509050503373ffffffffffffffffffffffffffffffffffffffff167f5ca95187458a3a347baad567891df2db769ad6c7e1a06e416d9132abd658cbee82346040518080602001838152602001828103825284818151815260200191508051906020019080838360005b83811015610ea4578082015181840152602081019050610e89565b50505050905090810190601f168015610ed15780820380516001836020036101000a031916815260200191505b50935050505060405180910390a250565b6000803373ffffffffffffffffffffffffffffffffffffffff1673ffffffffffffffffffffffffffffffffffffffff16815260200190815260200160002060040160009054906101000a900460ff161515610f3c57600080fd5b806000803373ffffffffffffffffffffffffffffffffffffffff1673ffffffffffffffffffffffffffffffffffffffff1681526020019081526020016000206001015410151515610f8c57600080fd5b806000803373ffffffffffffffffffffffffffffffffffffffff1673ffffffffffffffffffffffffffffffffffffffff168152602001908152602001600020600101600082825403925050819055503373ffffffffffffffffffffffffffffffffffffffff166108fc829081150290604051600060405180830381858888f19350505050158015611021573d6000803e3d6000fd5b503373ffffffffffffffffffffffffffffffffffffffff167f884edad9ce6fa2440d8a54cc123490eb96d2768479d49ff9c7366125a9424364826040518082815260200191505060405180910390a250565b60008061107f84612ea7565b905061108b8184610c08565b91505092915050565b61109c6130c6565b6000806001868154811015156110ae57fe5b90600052602060002090600a020161014060405190810160405290816000820160009054906101000a900473ffffffffffffffffffffffffffffffffffffffff1673ffffffffffffffffffffffffffffffffffffffff1673ffffffffffffffffffffffffffffffffffffffff1681526020016001820160009054906101000a900473ffffffffffffffffffffffffffffffffffffffff1673ffffffffffffffffffffffffffffffffffffffff1673ffffffffffffffffffffffffffffffffffffffff168152602001600282015481526020016003820154600019166000191681526020016004820154600019166000191681526020016005820160009054906101000a900473ffffffffffffffffffffffffffffffffffffffff1673ffffffffffffffffffffffffffffffffffffffff1673ffffffffffffffffffffffffffffffffffffffff1681526020016006820154815260200160078201548152602001600882015481526020016009820160009054906101000a900460ff16151515158152505092503373ffffffffffffffffffffffffffffffffffffffff16836000015173ffffffffffffffffffffffffffffffffffffffff1614806112a157503373ffffffffffffffffffffffffffffffffffffffff16836020015173ffffffffffffffffffffffffffffffffffffffff16145b15156112ac57600080fd5b8261012001511515156112be57600080fd5b8260a0015173ffffffffffffffffffffffffffffffffffffffff163373ffffffffffffffffffffffffffffffffffffffff16141515156112fd57600080fd5b3373ffffffffffffffffffffffffffffffffffffffff16836000015173ffffffffffffffffffffffffffffffffffffffff161461133e578260000151611344565b82602001515b9150853385604051602001808481526020018373ffffffffffffffffffffffffffffffffffffffff1673ffffffffffffffffffffffffffffffffffffffff166c0100000000000000000000000002815260140182815260200193505050506040516020818303038152906040526040518082805190602001908083835b6020831015156113e657805182526020820191506020810190506020830392506113c1565b6001836020036101000a038019825116818451168082178552505050505050905001915050604051809103902090507fe759d27a5d1ab1c6040f642956a9c46af053efc2469b0ba9350afbce593ddbbb6114408287612fca565b600260008573ffffffffffffffffffffffffffffffffffffffff1673ffffffffffffffffffffffffffffffffffffffff16815260200190815260200160002060009054906101000a900473ffffffffffffffffffffffffffffffffffffffff1683604051808473ffffffffffffffffffffffffffffffffffffffff1673ffffffffffffffffffffffffffffffffffffffff1681526020018373ffffffffffffffffffffffffffffffffffffffff1673ffffffffffffffffffffffffffffffffffffffff1681526020018260001916600019168152602001935050505060405180910390a1600260008373ffffffffffffffffffffffffffffffffffffffff1673ffffffffffffffffffffffffffffffffffffffff16815260200190815260200160002060009054906101000a900473ffffffffffffffffffffffffffffffffffffffff1673ffffffffffffffffffffffffffffffffffffffff166115a48287612fca565b73ffffffffffffffffffffffffffffffffffffffff161415156115c657600080fd5b600073ffffffffffffffffffffffffffffffffffffffff168360a0015173ffffffffffffffffffffffffffffffffffffffff1614151561195b57600183610120019015159081151581525050826000015173ffffffffffffffffffffffffffffffffffffffff163373ffffffffffffffffffffffffffffffffffffffff16141561165957838360e0018181525050611665565b83836101000181815250505b60058484604001510281151561167757fe5b046000803373ffffffffffffffffffffffffffffffffffffffff1673ffffffffffffffffffffffffffffffffffffffff1681526020019081526020016000206001016000828254019250508190555060058360e0015114806116de57506005836101000151145b1561187c576001600080856000015173ffffffffffffffffffffffffffffffffffffffff1673ffffffffffffffffffffffffffffffffffffffff168152602001908152602001600020600301600082825401925050819055506001600080856020015173ffffffffffffffffffffffffffffffffffffffff1673ffffffffffffffffffffffffffffffffffffffff1681526020019081526020016000206003016000828254019250508190555060058360e00151141561180a5760058361010001516005038460400151028115156117b257fe5b04600080856000015173ffffffffffffffffffffffffffffffffffffffff1673ffffffffffffffffffffffffffffffffffffffff16815260200190815260200160002060010160008282540192505081905550611877565b60058360e0015160050384604001510281151561182357fe5b04600080856020015173ffffffffffffffffffffffffffffffffffffffff1673ffffffffffffffffffffffffffffffffffffffff168152602001908152602001600020600101600082825401925050819055505b611956565b600583610100015160050384604001510281151561189657fe5b04600080856000015173ffffffffffffffffffffffffffffffffffffffff1673ffffffffffffffffffffffffffffffffffffffff1681526020019081526020016000206001016000828254019250508190555060058360e0015160050384604001510281151561190257fe5b04600080856020015173ffffffffffffffffffffffffffffffffffffffff1673ffffffffffffffffffffffffffffffffffffffff168152602001908152602001600020600101600082825401925050819055505b611a48565b338360a0019073ffffffffffffffffffffffffffffffffffffffff16908173ffffffffffffffffffffffffffffffffffffffff1681525050826000015173ffffffffffffffffffffffffffffffffffffffff163373ffffffffffffffffffffffffffffffffffffffff1614156119da57838360e00181815250506119e6565b83836101000181815250505b6005848460400151028115156119f857fe5b046000803373ffffffffffffffffffffffffffffffffffffffff1673ffffffffffffffffffffffffffffffffffffffff168152602001908152602001600020600101600082825401925050819055505b7f6b4e2f01b2ba44b3e8bb886c50569cc31c39794011e097221fb192f7006a7a718633856101200151604051808481526020018373ffffffffffffffffffffffffffffffffffffffff1673ffffffffffffffffffffffffffffffffffffffff16815260200182151515158152602001935050505060405180910390a1505050505050565b6000806000803373ffffffffffffffffffffffffffffffffffffffff1673ffffffffffffffffffffffffffffffffffffffff16815260200190815260200160002060040160009054906101000a900460ff161515611b2957600080fd5b346000803373ffffffffffffffffffffffffffffffffffffffff1673ffffffffffffffffffffffffffffffffffffffff16815260200190815260200160002060010154018411151515611b7b57600080fd5b6000341115611bd457346000803373ffffffffffffffffffffffffffffffffffffffff1673ffffffffffffffffffffffffffffffffffffffff168152602001908152602001600020600101600082825401925050819055505b600180549050915060018054809190600101611bf091906131e4565b5082600260003373ffffffffffffffffffffffffffffffffffffffff1673ffffffffffffffffffffffffffffffffffffffff16815260200190815260200160002060006101000a81548173ffffffffffffffffffffffffffffffffffffffff021916908373ffffffffffffffffffffffffffffffffffffffff160217905550836000803373ffffffffffffffffffffffffffffffffffffffff1673ffffffffffffffffffffffffffffffffffffffff16815260200190815260200160002060010160008282540392505081905550600182815481101515611ccd57fe5b90600052602060002090600a02019050338160000160006101000a81548173ffffffffffffffffffffffffffffffffffffffff021916908373ffffffffffffffffffffffffffffffffffffffff160217905550838160020181905550858160030181600019169055504281600601819055503373ffffffffffffffffffffffffffffffffffffffff167fafc7cc2db6b05682d5db7330ed6892baa2d02024b373bf030e58c602f1c8924c838888886000803373ffffffffffffffffffffffffffffffffffffffff1673ffffffffffffffffffffffffffffffffffffffff1681526020019081526020016000206000016040518086815260200185600019166000191681526020018060200184815260200180602001838103835286818151815260200191508051906020019080838360005b83811015611e1a578082015181840152602081019050611dff565b50505050905090810190601f168015611e475780820380516001836020036101000a031916815260200191505b50838103825284818154600181600116156101000203166002900481526020019150805460018160011615610100020316600290048015611ec95780601f10611e9e57610100808354040283529160200191611ec9565b820191906000526020600020905b815481529060010190602001808311611eac57829003601f168201915b505097505050505050505060405180910390a2505050505050565b60008060003373ffffffffffffffffffffffffffffffffffffffff1660018b815481101515611f0f57fe5b90600052602060002090600a020160000160009054906101000a900473ffffffffffffffffffffffffffffffffffffffff1673ffffffffffffffffffffffffffffffffffffffff161480611fce57503373ffffffffffffffffffffffffffffffffffffffff1660018b815481101515611f8457fe5b90600052602060002090600a020160010160009054906101000a900473ffffffffffffffffffffffffffffffffffffffff1673ffffffffffffffffffffffffffffffffffffffff16145b1515611fd957600080fd5b60018a815481101515611fe857fe5b90600052602060002090600a020160090160009054906101000a900460ff1615151561201357600080fd5b3373ffffffffffffffffffffffffffffffffffffffff1660018b81548110151561203957fe5b90600052602060002090600a020160000160009054906101000a900473ffffffffffffffffffffffffffffffffffffffff1673ffffffffffffffffffffffffffffffffffffffff16146120cc5760018a81548110151561209557fe5b90600052602060002090600a020160000160009054906101000a900473ffffffffffffffffffffffffffffffffffffffff1661210e565b60018a8154811015156120db57fe5b90600052602060002090600a020160010160009054906101000a900473ffffffffffffffffffffffffffffffffffffffff165b92508988888888886040516020018087815260200186815260200185815260200184815260200183815260200182600760200280838360005b83811015612162578082015181840152602081019050612147565b5050505090500196505050505050506040516020818303038152906040526040518082805190602001908083835b6020831015156121b55780518252602082019150602081019050602083039250612190565b6001836020036101000a03801982511681845116808217855250505050505090500191505060405180910390209150600260008473ffffffffffffffffffffffffffffffffffffffff1673ffffffffffffffffffffffffffffffffffffffff16815260200190815260200160002060009054906101000a900473ffffffffffffffffffffffffffffffffffffffff1673ffffffffffffffffffffffffffffffffffffffff16612264838b612fca565b73ffffffffffffffffffffffffffffffffffffffff1614151561228657600080fd5b3373ffffffffffffffffffffffffffffffffffffffff1660018b8154811015156122ac57fe5b90600052602060002090600a020160000160009054906101000a900473ffffffffffffffffffffffffffffffffffffffff1673ffffffffffffffffffffffffffffffffffffffff161461231f5760018a81548110151561230857fe5b90600052602060002090600a020160030154612341565b60018a81548110151561232e57fe5b90600052602060002090600a0201600401545b905083600060078110151561235257fe5b6020020151600019168887876040516020018084815260200183815260200182815260200193505050506040516020818303038152906040526040518082805190602001908083835b6020831015156123c0578051825260208201915060208101905060208303925061239b565b6001836020036101000a03801982511681845116808217855250505050505090500191505060405180910390206000191614158061240e5750806000191661240785612fde565b6000191614155b156126c75760016000803373ffffffffffffffffffffffffffffffffffffffff1673ffffffffffffffffffffffffffffffffffffffff16815260200190815260200160002060030160008282540192505081905550600260018b81548110151561247457fe5b90600052602060002090600a020160020154026000803373ffffffffffffffffffffffffffffffffffffffff1673ffffffffffffffffffffffffffffffffffffffff168152602001908152602001600020600101600082825401925050819055503373ffffffffffffffffffffffffffffffffffffffff1660018b8154811015156124fb57fe5b90600052602060002090600a020160000160009054906101000a900473ffffffffffffffffffffffffffffffffffffffff1673ffffffffffffffffffffffffffffffffffffffff161461254f576000612552565b60055b60ff1660018b81548110151561256457fe5b90600052602060002090600a0201600701819055503373ffffffffffffffffffffffffffffffffffffffff1660018b81548110151561259f57fe5b90600052602060002090600a020160010160009054906101000a900473ffffffffffffffffffffffffffffffffffffffff1673ffffffffffffffffffffffffffffffffffffffff16146125f35760006125f6565b60055b60ff1660018b81548110151561260857fe5b90600052602060002090600a0201600801819055506001151560018b81548110151561263057fe5b90600052602060002090600a020160090160009054906101000a905050507f6b4e2f01b2ba44b3e8bb886c50569cc31c39794011e097221fb192f7006a7a718a336001604051808481526020018373ffffffffffffffffffffffffffffffffffffffff1673ffffffffffffffffffffffffffffffffffffffff16815260200182151515158152602001935050505060405180910390a15b50505050505050505050565b60026020528060005260406000206000915054906101000a900473ffffffffffffffffffffffffffffffffffffffff1681565b6000803373ffffffffffffffffffffffffffffffffffffffff1673ffffffffffffffffffffffffffffffffffffffff16815260200190815260200160002060040160009054906101000a900460ff16151561276057600080fd5b346000803373ffffffffffffffffffffffffffffffffffffffff1673ffffffffffffffffffffffffffffffffffffffff168152602001908152602001600020600101600082825401925050819055503373ffffffffffffffffffffffffffffffffffffffff167fbccbe05a3719eacef984f404dd2adff555adcc05fb72fb8b309bafbd462cd6f7346040518082815260200191505060405180910390a2565b6000602052806000526040600020600091509050806000018054600181600116156101000203166002900480601f0160208091040260200160405190810160405280929190818152602001828054600181600116156101000203166002900480156128ab5780601f10612880576101008083540402835291602001916128ab565b820191906000526020600020905b81548152906001019060200180831161288e57829003601f168201915b5050505050908060010154908060020154908060030154908060040160009054906101000a900460ff16905085565b6001818154811015156128e957fe5b90600052602060002090600a02016000915090508060000160009054906101000a900473ffffffffffffffffffffffffffffffffffffffff16908060010160009054906101000a900473ffffffffffffffffffffffffffffffffffffffff16908060020154908060030154908060040154908060050160009054906101000a900473ffffffffffffffffffffffffffffffffffffffff16908060060154908060070154908060080154908060090160009054906101000a900460ff1690508a565b6000600180549050861015156129bf57600080fd5b60006001878154811015156129d057fe5b90600052602060002090600a020160000160009054906101000a900473ffffffffffffffffffffffffffffffffffffffff1673ffffffffffffffffffffffffffffffffffffffff1614158015612a7c57506000600187815481101515612a3257fe5b90600052602060002090600a020160010160009054906101000a900473ffffffffffffffffffffffffffffffffffffffff1673ffffffffffffffffffffffffffffffffffffffff16145b1515612a8757600080fd5b6000803373ffffffffffffffffffffffffffffffffffffffff1673ffffffffffffffffffffffffffffffffffffffff16815260200190815260200160002060040160009054906101000a900460ff161515612ae157600080fd5b346000803373ffffffffffffffffffffffffffffffffffffffff1673ffffffffffffffffffffffffffffffffffffffff16815260200190815260200160002060010154018311151515612b3357600080fd5b6000341115612b8c57346000803373ffffffffffffffffffffffffffffffffffffffff1673ffffffffffffffffffffffffffffffffffffffff168152602001908152602001600020600101600082825401925050819055505b81600260003373ffffffffffffffffffffffffffffffffffffffff1673ffffffffffffffffffffffffffffffffffffffff16815260200190815260200160002060006101000a81548173ffffffffffffffffffffffffffffffffffffffff021916908373ffffffffffffffffffffffffffffffffffffffff160217905550600186815481101515612c1957fe5b90600052602060002090600a0201905082816002015411151515612c3c57600080fd5b338160010160006101000a81548173ffffffffffffffffffffffffffffffffffffffff021916908373ffffffffffffffffffffffffffffffffffffffff16021790555084816004018160001916905550428160060181905550826000803373ffffffffffffffffffffffffffffffffffffffff1673ffffffffffffffffffffffffffffffffffffffff1681526020019081526020016000206001016000828254039250508190555060016000808360000160009054906101000a900473ffffffffffffffffffffffffffffffffffffffff1673ffffffffffffffffffffffffffffffffffffffff1673ffffffffffffffffffffffffffffffffffffffff1681526020019081526020016000206002016000828254019250508190555060016000808360010160009054906101000a900473ffffffffffffffffffffffffffffffffffffffff1673ffffffffffffffffffffffffffffffffffffffff1673ffffffffffffffffffffffffffffffffffffffff168152602001908152602001600020600201600082825401925050819055503373ffffffffffffffffffffffffffffffffffffffff167f30e3513ecbc62f37c873968e911fa0d35b7a629b002d01c09166ca7e09f7aefa8787878760405180858152602001846000191660001916815260200180602001838152602001828103825284818151815260200191508051906020019080838360005b83811015612e62578082015181840152602081019050612e47565b50505050905090810190601f168015612e8f5780820380516001836020036101000a031916815260200191505b509550505050505060405180910390a2505050505050565b600060606040805190810160405280601c81526020017f19457468657265756d205369676e6564204d6573736167653a0a333200000000815250905080836040516020018083805190602001908083835b602083101515612f1d5780518252602082019150602081019050602083039250612ef8565b6001836020036101000a0380198251168184511680821785525050505050509050018260001916600019168152602001925050506040516020818303038152906040526040518082805190602001908083835b602083101515612f955780518252602082019150602081019050602083039250612f70565b6001836020036101000a0380198251168184511680821785525050505050509050019150506040518091039020915050919050565b6000612fd68383611073565b905092915050565b600080826000600781101515612ff057fe5b60200201519150600190505b60078110156130c05781838260078110151561301457fe5b60200201516040516020018083600019166000191681526020018260001916600019168152602001925050506040516020818303038152906040526040518082805190602001908083835b602083101515613084578051825260208201915060208101905060208303925061305f565b6001836020036101000a038019825116818451168082178552505050505050905001915050604051809103902091508080600101915050612ffc565b50919050565b61014060405190810160405280600073ffffffffffffffffffffffffffffffffffffffff168152602001600073ffffffffffffffffffffffffffffffffffffffff168152602001600081526020016000801916815260200160008019168152602001600073ffffffffffffffffffffffffffffffffffffffff1681526020016000815260200160008152602001600081526020016000151581525090565b828054600181600116156101000203166002900490600052602060002090601f016020900481019282601f106131a557805160ff19168380011785556131d3565b828001600101855582156131d3579182015b828111156131d25782518255916020019190600101906131b7565b5b5090506131e09190613216565b5090565b81548183558181111561321157600a0281600a028360005260206000209182019101613210919061323b565b5b505050565b61323891905b8082111561323457600081600090555060010161321c565b5090565b90565b61331091905b8082111561330c57600080820160006101000a81549073ffffffffffffffffffffffffffffffffffffffff02191690556001820160006101000a81549073ffffffffffffffffffffffffffffffffffffffff02191690556002820160009055600382016000905560048201600090556005820160006101000a81549073ffffffffffffffffffffffffffffffffffffffff02191690556006820160009055600782016000905560088201600090556009820160006101000a81549060ff021916905550600a01613241565b5090565b905600a165627a7a7230582018cfa2541c628e400e4eb28a49ec443b912d97179712466216b530b7f18afc090029",
  "source": "pragma solidity ^0.4.24;\n\nimport \"./ECTools.sol\";\nimport \"./Players.sol\";\n\n// board is 8x8\ncontract EtherShips is Players, ECTools {\n\n\tstruct Channel {\n\t\taddress p1;\n\t\taddress p2;\n\t\tuint stake;\n\t\tbytes32 p1root;\n\t\tbytes32 p2root;\n\t\taddress halfFinisher;\n\t\tuint timeStarted;\n\t\tuint p1Score;\n\t\tuint p2Score;\n\t\tbool finished;\n\n\t}\n\n\tevent OpenChannel(uint channelId, bytes32 root, string webrtcId, uint amount, string username, address indexed addr);\n\tevent JoinChannel(uint channelId, bytes32 root, string webrtcId, uint amount, address indexed addr);\n\tevent CloseChannel(uint channelId, address player, bool finished);\n\n\tevent Log(address addr1, address addr2, bytes32 hash);\n\n\tChannel[] public channels;\n\tmapping(address => address) public signAddresses;\n\n\tuint TIMEOUT_PERIOD = 2 days;\n\n\tfunction openChannel(bytes32 _merkleRoot, string _webrtcId, uint _amount, address _signAddress) payable public {\n\t\trequire(players[msg.sender].exists);\n\t\trequire(_amount <= players[msg.sender].balance + msg.value);\n\n\t\tif (msg.value > 0) {\n\t\t\tplayers[msg.sender].balance += msg.value;\n\t\t}\n\n\t\tuint _channelId = channels.length;\n        channels.length++;\n\n        signAddresses[msg.sender] = _signAddress;\n\n        players[msg.sender].balance -= _amount;\n        Channel storage c = channels[_channelId];\n\t\tc.p1 = msg.sender;\n\t\tc.stake = _amount;\n\t\tc.p1root = _merkleRoot;\n\t\tc.timeStarted = now;\n\n        emit OpenChannel(_channelId, _merkleRoot, _webrtcId, _amount, players[msg.sender].username, msg.sender);\n    }\n    \n    function joinChannel(uint _channelId, bytes32 _merkleRoot, string _webrtcId, uint _amount, address _signAddress) payable public {\n    \trequire(_channelId < channels.length);\n\t\trequire((channels[_channelId].p1 != 0x0) && (channels[_channelId].p2 == 0x0));\n\t\trequire(players[msg.sender].exists);\n\t\trequire(_amount <= players[msg.sender].balance + msg.value);\n\n\t\tif (msg.value > 0) {\n\t\t\tplayers[msg.sender].balance += msg.value;\n\t\t}\n\n\t\tsignAddresses[msg.sender] = _signAddress;\n\n\t\tChannel storage c = channels[_channelId];\n\t\t\n\t\trequire(c.stake <= _amount);\n\n\t\tc.p2 = msg.sender;\n\t\tc.p2root = _merkleRoot;\n\t\tc.timeStarted = now;\n\n\t\t// update player stats\n\t\tplayers[msg.sender].balance -= _amount;\n\t\tplayers[c.p1].gamesPlayed += 1;\n\t\tplayers[c.p2].gamesPlayed += 1;\n\n        emit JoinChannel(_channelId, _merkleRoot, _webrtcId, _amount, msg.sender);\n    }\n\n    function closeChannel(uint _channelId, bytes _sig, uint _numberOfGuesses) public {\n\t\tChannel memory c = channels[_channelId];\n\n\t\trequire(c.p1 == msg.sender || c.p2 == msg.sender);\n    \trequire(!c.finished);\n    \trequire(msg.sender != c.halfFinisher);\n    \t\n    \taddress opponent = c.p1 == msg.sender ? c.p2 : c.p1;\n    \tbytes32 hash = keccak256(abi.encodePacked(_channelId, msg.sender, _numberOfGuesses));\n\n\t\temit Log(_recoverSig(hash, _sig), signAddresses[opponent], hash);\n\n       \trequire(_recoverSig(hash, _sig) == signAddresses[opponent]);\n\n    \tif (c.halfFinisher != address(0)) {\n    \t\t// one player already submitted score\n    \t\tc.finished = true;\n    \t\tif (msg.sender == c.p1) {\n\t\t\t\tc.p1Score = _numberOfGuesses;\n\t\t\t} else {\n\t\t\t\tc.p2Score = _numberOfGuesses;\n\t\t\t}\n\n\t\t\tplayers[msg.sender].balance += c.stake * _numberOfGuesses / 5;\n\n\t\t\tif (c.p1Score == 5 || c.p2Score == 5) {\n\t\t\t\tplayers[c.p1].finishedGames += 1;\n\t\t\t\tplayers[c.p2].finishedGames += 1;\n\n\t\t\t\t// if game ended we send rest of stake to winner\n\t\t\t\tif (c.p1Score == 5) {\n\t\t\t\t\tplayers[c.p1].balance += c.stake * (5 - c.p2Score) / 5;\n\t\t\t\t} else {\n\t\t\t\t\tplayers[c.p2].balance += c.stake * (5 - c.p1Score) / 5;\n\t\t\t\t}\n\t\t\t}\n\t\t\t// nobody has won the game distribute the rest of the money accordingly\n\t\t\telse {\n\t\t\t\tplayers[c.p1].balance += c.stake * (5 - c.p2Score) / 5;\n\t\t\t\tplayers[c.p2].balance += c.stake * (5 - c.p1Score) / 5;\n\t\t\t}\n    \t} else {\n    \t\t// other player still didn't answer\n\t\t\tc.halfFinisher = msg.sender;\n\t\t\tif (msg.sender == c.p1) {\n\t\t\t\tc.p1Score = _numberOfGuesses;\n\t\t\t} else {\n\t\t\t\tc.p2Score = _numberOfGuesses;\n\t\t\t}\n\n\t\t\tplayers[msg.sender].balance += c.stake * _numberOfGuesses / 5;\n    \t}\n\n    \temit CloseChannel(_channelId, msg.sender, c.finished);\n    }\n\n\tfunction timeout(uint _channelId) public {\n\t\tChannel memory c = channels[_channelId];\n\n\t\trequire(c.p1 == msg.sender || c.p2 == msg.sender);\n\t\trequire(now > (c.timeStarted + TIMEOUT_PERIOD));\n\t\trequire(!c.finished);\n\n\t\t// If nobody joined the channel let the user retreive the money\n\t\tif (c.p2 == 0x0) {\n\t\t\tplayers[c.p1].balance += c.stake;\n\t\t\tc.finished = true;\n\t\t} \n\t\t// If one of the players hasn't closed the game\n\t\telse if (c.halfFinisher != 0x0) {\n\t\t\tuint score = c.halfFinisher == c.p1 ? c.p1Score : c.p2Score;\n\t\t\tuint oneHit = c.stake / 5;\n\n\t\t\t// the user gets all the left over money in the channel\n\t\t\tplayers[c.halfFinisher].balance += oneHit * (10 - score);\n\t\t\tc.finished = true;\n\t\t}\n\t}\n\n\n    function disputeAnswer(uint _channelId, bytes _sig, uint _pos, uint _seq, uint _type, uint _nonce, bytes32[7] _path) public {\n    \trequire(channels[_channelId].p1 == msg.sender || channels[_channelId].p2 == msg.sender);\n    \trequire(!channels[_channelId].finished);\n\n    \taddress opponent = channels[_channelId].p1 == msg.sender ? channels[_channelId].p2 : channels[_channelId].p1;\n\t\t\n    \tbytes32 hash = keccak256(abi.encodePacked(_channelId, _pos, _seq, _type, _nonce, _path));\n    \trequire(_recoverSig(hash, _sig) == signAddresses[opponent]);\n\n    \tbytes32 opponentRoot = channels[_channelId].p1 == msg.sender ? channels[_channelId].p2root : channels[_channelId].p1root;\n    \tif (keccak256(abi.encodePacked(_pos, _type, _nonce)) != _path[0] || _getRoot(_path) != opponentRoot) {\n    \t\t// only player that didn't cheat get plus one on finished games\n    \t\tplayers[msg.sender].finishedGames += 1;\n    \t\tplayers[msg.sender].balance += channels[_channelId].stake * 2;\n    \t\t\n    \t\tchannels[_channelId].p1Score = channels[_channelId].p1 == msg.sender ? 5 : 0;\n    \t\tchannels[_channelId].p2Score = channels[_channelId].p2 == msg.sender ? 5 : 0;\n    \t\tchannels[_channelId].finished == true;\n\n    \t\temit CloseChannel(_channelId, msg.sender, true);\n    \t}\n    }\n\n    function _recoverSig(bytes32 _hash, bytes _sig) private pure returns (address) {\n\n\t\treturn prefixedRecover(_hash, _sig);\n\t}\n\n\tfunction _getRoot(bytes32[7] _path) private pure returns(bytes32 _root) {\n\t    _root = _path[0];\n\t    \n\t    for (uint i=1; i<7; i++) {\n\t        _root = keccak256(abi.encodePacked(_root, _path[i]));\n\t    }\n    }\n}",
  "sourcePath": "/Users/nikolaklipa/Decenter/MatchChannels/solidity/contracts/EtherShips.sol",
  "compiler": {
    "name": "solc",
    "version": "0.4.24+commit.e67f0147.Emscripten.clang"
  },
  "schemaVersion": "2.0.1",
  "updatedAt": "2018-07-19T10:40:39.333Z"
}