{
  "contractName": "StakeManager",
  "abi": [
    {
      "constant": false,
      "inputs": [
        {
          "name": "_channelId",
          "type": "uint256"
        }
      ],
      "name": "joinChannel",
      "outputs": [],
      "payable": true,
      "stateMutability": "payable",
      "type": "function"
    },
    {
      "constant": true,
      "inputs": [],
      "name": "nChannel",
      "outputs": [
        {
          "name": "_n",
          "type": "uint256"
        }
      ],
      "payable": false,
      "stateMutability": "view",
      "type": "function"
    },
    {
      "constant": false,
      "inputs": [
        {
          "name": "_channelId",
          "type": "uint256"
        },
        {
          "name": "_h",
          "type": "bytes32"
        },
        {
          "name": "_v",
          "type": "uint8"
        },
        {
          "name": "_r",
          "type": "bytes32"
        },
        {
          "name": "_s",
          "type": "bytes32"
        },
        {
          "name": "_state",
          "type": "bytes"
        }
      ],
      "name": "fastClose",
      "outputs": [],
      "payable": false,
      "stateMutability": "nonpayable",
      "type": "function"
    },
    {
      "constant": false,
      "inputs": [
        {
          "name": "_channelId",
          "type": "uint256"
        },
        {
          "name": "_h",
          "type": "bytes32[2]"
        },
        {
          "name": "_v",
          "type": "uint8[2]"
        },
        {
          "name": "_r",
          "type": "bytes32[2]"
        },
        {
          "name": "_s",
          "type": "bytes32[2]"
        },
        {
          "name": "_state1",
          "type": "bytes"
        },
        {
          "name": "_state2",
          "type": "bytes"
        }
      ],
      "name": "close",
      "outputs": [],
      "payable": false,
      "stateMutability": "nonpayable",
      "type": "function"
    },
    {
      "constant": true,
      "inputs": [],
      "name": "owner",
      "outputs": [
        {
          "name": "",
          "type": "address"
        }
      ],
      "payable": false,
      "stateMutability": "view",
      "type": "function"
    },
    {
      "constant": false,
      "inputs": [
        {
          "name": "_channelId",
          "type": "uint256"
        }
      ],
      "name": "closeTimeoutedChannel",
      "outputs": [],
      "payable": false,
      "stateMutability": "nonpayable",
      "type": "function"
    },
    {
      "constant": true,
      "inputs": [
        {
          "name": "",
          "type": "uint256"
        }
      ],
      "name": "resolvers",
      "outputs": [
        {
          "name": "resolverAddress",
          "type": "address"
        },
        {
          "name": "name",
          "type": "string"
        }
      ],
      "payable": false,
      "stateMutability": "view",
      "type": "function"
    },
    {
      "constant": false,
      "inputs": [
        {
          "name": "_name",
          "type": "string"
        },
        {
          "name": "_resolverAddress",
          "type": "address"
        }
      ],
      "name": "addResolver",
      "outputs": [
        {
          "name": "_resolverId",
          "type": "uint256"
        }
      ],
      "payable": false,
      "stateMutability": "nonpayable",
      "type": "function"
    },
    {
      "constant": true,
      "inputs": [
        {
          "name": "",
          "type": "uint256"
        }
      ],
      "name": "channels",
      "outputs": [
        {
          "name": "p1",
          "type": "address"
        },
        {
          "name": "p2",
          "type": "address"
        },
        {
          "name": "stake",
          "type": "uint256"
        },
        {
          "name": "resolver",
          "type": "address"
        },
        {
          "name": "winner",
          "type": "address"
        },
        {
          "name": "finished",
          "type": "bool"
        },
        {
          "name": "resolveStart",
          "type": "uint256"
        }
      ],
      "payable": false,
      "stateMutability": "view",
      "type": "function"
    },
    {
      "constant": false,
      "inputs": [
        {
          "name": "newOwner",
          "type": "address"
        }
      ],
      "name": "transferOwnership",
      "outputs": [],
      "payable": false,
      "stateMutability": "nonpayable",
      "type": "function"
    },
    {
      "constant": false,
      "inputs": [
        {
          "name": "_resolverId",
          "type": "uint256"
        }
      ],
      "name": "openChannel",
      "outputs": [
        {
          "name": "_channelId",
          "type": "uint256"
        }
      ],
      "payable": true,
      "stateMutability": "payable",
      "type": "function"
    },
    {
      "anonymous": false,
      "inputs": [
        {
          "indexed": true,
          "name": "previousOwner",
          "type": "address"
        },
        {
          "indexed": true,
          "name": "newOwner",
          "type": "address"
        }
      ],
      "name": "OwnershipTransferred",
      "type": "event"
    }
  ],
  "bytecode": "0x6060604052336000806101000a81548173ffffffffffffffffffffffffffffffffffffffff021916908373ffffffffffffffffffffffffffffffffffffffff160217905550612161806100536000396000f3006060604052600436106100af576000357c0100000000000000000000000000000000000000000000000000000000900463ffffffff1680632819cc0c146100b457806335f77938146100cc57806342bede40146100f55780636720afda1461018e5780638da5cb5b146102e7578063a5d21a9814610310578063b158fd5c14610333578063c30b83a11461036b578063e5949b5d146103fb578063f2fde38b14610438578063fd85b1a714610471575b600080fd5b6100ca600480803590602001909190505061049d565b005b34156100d757600080fd5b6100df610547565b6040516100ec9190612055565b60405180910390f35b341561010057600080fd5b61018c60048080359060200190919080356000191690602001909190803560ff16906020019091908035600019169060200190919080356000191690602001909190803590602001908201803590602001908080601f01602080910402602001604051908101604052809392919081815260200183838082843782019150505050505091905050610554565b005b341561019957600080fd5b6102e56004808035906020019091908060400190600280602002604051908101604052809291908260026020028082843782019150505050509190806040019060028060200260405190810160405280929190826002602002808284378201915050505050919080604001906002806020026040519081016040528092919082600260200280828437820191505050505091908060400190600280602002604051908101604052809291908260026020028082843782019150505050509190803590602001908201803590602001908080601f0160208091040260200160405190810160405280939291908181526020018383808284378201915050505050509190803590602001908201803590602001908080601f0160208091040260200160405190810160405280939291908181526020018383808284378201915050505050509190505061071b565b005b34156102f257600080fd5b6102fa610bac565b6040516103079190611eef565b60405180910390f35b341561031b57600080fd5b6103316004808035906020019091905050610bd1565b005b341561033e57600080fd5b6103546004808035906020019091905050610ead565b604051610362929190611f79565b60405180910390f35b341561037657600080fd5b6103e5600480803590602001908201803590602001908080601f0160208091040260200160405190810160405280939291908181526020018383808284378201915050505050509190803573ffffffffffffffffffffffffffffffffffffffff16906020019091905050610eff565b6040516103f29190612055565b60405180910390f35b341561040657600080fd5b61041c6004808035906020019091905050610ffc565b60405161042f9796959493929190611f0a565b60405180910390f35b341561044357600080fd5b61046f600480803573ffffffffffffffffffffffffffffffffffffffff169060200190919050506110da565b005b610487600480803590602001909190505061122f565b6040516104949190612055565b60405180910390f35b6000600180549050821015156104b257600080fd5b6104bb8261134a565b1515156104c757600080fd5b6001828154811015156104d657fe5b90600052602060002090600602019050348160020154111515156104f957600080fd5b610501611447565b8160010160006101000a81548173ffffffffffffffffffffffffffffffffffffffff021916908373ffffffffffffffffffffffffffffffffffffffff1602179055505050565b6000600180549050905090565b60008060008060006105658b61134a565b151561057057600080fd5b60018b81548110151561057f57fe5b9060005260206000209060060201945061059c8a8a8a8a8a61144f565b93506105af8b6105aa611447565b61152d565b92508273ffffffffffffffffffffffffffffffffffffffff168473ffffffffffffffffffffffffffffffffffffffff161415156105e857fe5b6105f186611632565b8092508193505050818b14151561060457fe5b60008114156106565760008560040160006101000a81548173ffffffffffffffffffffffffffffffffffffffff021916908373ffffffffffffffffffffffffffffffffffffffff1602179055506106f1565b60018114610688578460010160009054906101000a900473ffffffffffffffffffffffffffffffffffffffff166106ae565b8460000160009054906101000a900473ffffffffffffffffffffffffffffffffffffffff165b8560040160006101000a81548173ffffffffffffffffffffffffffffffffffffffff021916908373ffffffffffffffffffffffffffffffffffffffff1602179055505b60018560040160146101000a81548160ff0219169083151502179055505050505050505050505050565b60008060008061072a8b61134a565b151561073557600080fd5b60018b81548110151561074457fe5b906000526020600020906006020193506107ad8a600060028110151561076657fe5b60200201518a600060028110151561077a57fe5b60200201518a600060028110151561078e57fe5b60200201518a60006002811015156107a257fe5b60200201518a61144f565b92506108088a60016002811015156107c157fe5b60200201518a60016002811015156107d557fe5b60200201518a60016002811015156107e957fe5b60200201518a60016002811015156107fd57fe5b60200201518961144f565b91508360000160009054906101000a900473ffffffffffffffffffffffffffffffffffffffff1673ffffffffffffffffffffffffffffffffffffffff168373ffffffffffffffffffffffffffffffffffffffff1614806108b757508360010160009054906101000a900473ffffffffffffffffffffffffffffffffffffffff1673ffffffffffffffffffffffffffffffffffffffff168373ffffffffffffffffffffffffffffffffffffffff16145b15156108bf57fe5b8360000160009054906101000a900473ffffffffffffffffffffffffffffffffffffffff1673ffffffffffffffffffffffffffffffffffffffff168273ffffffffffffffffffffffffffffffffffffffff16148061096c57508360010160009054906101000a900473ffffffffffffffffffffffffffffffffffffffff1673ffffffffffffffffffffffffffffffffffffffff168273ffffffffffffffffffffffffffffffffffffffff16145b151561097457fe5b8173ffffffffffffffffffffffffffffffffffffffff168373ffffffffffffffffffffffffffffffffffffffff16141515156109ac57fe5b8360030160009054906101000a900473ffffffffffffffffffffffffffffffffffffffff1673ffffffffffffffffffffffffffffffffffffffff16639061b92387876000604051602001526040518363ffffffff167c0100000000000000000000000000000000000000000000000000000000028152600401610a30929190611fee565b602060405180830381600087803b1515610a4957600080fd5b6102c65a03f11515610a5a57600080fd5b505050604051805190501515610a6c57fe5b610a768b866116df565b905060008460040160009054906101000a900473ffffffffffffffffffffffffffffffffffffffff1673ffffffffffffffffffffffffffffffffffffffff16148015610ac6575060008460050154145b15610b2357808460040160006101000a81548173ffffffffffffffffffffffffffffffffffffffff021916908373ffffffffffffffffffffffffffffffffffffffff160217905550610b16611a38565b8460050181905550610b9f565b8073ffffffffffffffffffffffffffffffffffffffff168460040160009054906101000a900473ffffffffffffffffffffffffffffffffffffffff1673ffffffffffffffffffffffffffffffffffffffff161415610b9d5760018460040160146101000a81548160ff021916908315150217905550610b9e565b5b5b5050505050505050505050565b6000809054906101000a900473ffffffffffffffffffffffffffffffffffffffff1681565b610bd9611aca565b600182815481101515610be857fe5b906000526020600020906006020160e060405190810160405290816000820160009054906101000a900473ffffffffffffffffffffffffffffffffffffffff1673ffffffffffffffffffffffffffffffffffffffff1673ffffffffffffffffffffffffffffffffffffffff1681526020016001820160009054906101000a900473ffffffffffffffffffffffffffffffffffffffff1673ffffffffffffffffffffffffffffffffffffffff1673ffffffffffffffffffffffffffffffffffffffff168152602001600282015481526020016003820160009054906101000a900473ffffffffffffffffffffffffffffffffffffffff1673ffffffffffffffffffffffffffffffffffffffff1673ffffffffffffffffffffffffffffffffffffffff1681526020016004820160009054906101000a900473ffffffffffffffffffffffffffffffffffffffff1673ffffffffffffffffffffffffffffffffffffffff1673ffffffffffffffffffffffffffffffffffffffff1681526020016004820160149054906101000a900460ff161515151581526020016005820154815250509050610d948261134a565b1515610d9f57600080fd5b8060a00151151515610db057600080fd5b610db8611a38565b6101f48260c0015101101515610dcd57600080fd5b6000816080015173ffffffffffffffffffffffffffffffffffffffff161415610e5d576000809054906101000a900473ffffffffffffffffffffffffffffffffffffffff1673ffffffffffffffffffffffffffffffffffffffff166108fc60028360400151029081150290604051600060405180830381858888f193505050501515610e5857600080fd5b610ea9565b806080015173ffffffffffffffffffffffffffffffffffffffff166108fc60028360400151029081150290604051600060405180830381858888f193505050501515610ea857600080fd5b5b5050565b600281815481101515610ebc57fe5b90600052602060002090600202016000915090508060000160009054906101000a900473ffffffffffffffffffffffffffffffffffffffff169080600101905082565b6000806000809054906101000a900473ffffffffffffffffffffffffffffffffffffffff1673ffffffffffffffffffffffffffffffffffffffff163373ffffffffffffffffffffffffffffffffffffffff16141515610f5d57600080fd5b600280549050915060028054809190600101610f799190611b62565b50600282815481101515610f8957fe5b9060005260206000209060020201905083816001019080519060200190610fb1929190611b94565b50828160000160006101000a81548173ffffffffffffffffffffffffffffffffffffffff021916908373ffffffffffffffffffffffffffffffffffffffff1602179055505092915050565b60018181548110151561100b57fe5b90600052602060002090600602016000915090508060000160009054906101000a900473ffffffffffffffffffffffffffffffffffffffff16908060010160009054906101000a900473ffffffffffffffffffffffffffffffffffffffff16908060020154908060030160009054906101000a900473ffffffffffffffffffffffffffffffffffffffff16908060040160009054906101000a900473ffffffffffffffffffffffffffffffffffffffff16908060040160149054906101000a900460ff16908060050154905087565b6000809054906101000a900473ffffffffffffffffffffffffffffffffffffffff1673ffffffffffffffffffffffffffffffffffffffff163373ffffffffffffffffffffffffffffffffffffffff1614151561113557600080fd5b600073ffffffffffffffffffffffffffffffffffffffff168173ffffffffffffffffffffffffffffffffffffffff161415151561117157600080fd5b8073ffffffffffffffffffffffffffffffffffffffff166000809054906101000a900473ffffffffffffffffffffffffffffffffffffffff1673ffffffffffffffffffffffffffffffffffffffff167f8be0079c531659141344cd1fd0a4f28419497f9722a3daafe3b4186f6b6457e060405160405180910390a3806000806101000a81548173ffffffffffffffffffffffffffffffffffffffff021916908373ffffffffffffffffffffffffffffffffffffffff16021790555050565b60008060018054905091506001805480919060010161124e9190611c14565b5060018281548110151561125e57fe5b90600052602060002090600602019050611276611447565b8160000160006101000a81548173ffffffffffffffffffffffffffffffffffffffff021916908373ffffffffffffffffffffffffffffffffffffffff1602179055503481600201819055506002838154811015156112d057fe5b906000526020600020906002020160000160009054906101000a900473ffffffffffffffffffffffffffffffffffffffff168160030160006101000a81548173ffffffffffffffffffffffffffffffffffffffff021916908373ffffffffffffffffffffffffffffffffffffffff16021790555050919050565b60008060018381548110151561135c57fe5b906000526020600020906006020160000160009054906101000a900473ffffffffffffffffffffffffffffffffffffffff1673ffffffffffffffffffffffffffffffffffffffff1614158015611409575060006001838154811015156113be57fe5b906000526020600020906006020160010160009054906101000a900473ffffffffffffffffffffffffffffffffffffffff1673ffffffffffffffffffffffffffffffffffffffff1614155b8015611440575060018281548110151561141f57fe5b906000526020600020906006020160040160149054906101000a900460ff16155b9050919050565b600033905090565b600080826040518082805190602001908083835b6020831015156114885780518252602082019150602081019050602083039250611463565b6001836020036101000a03801982511681845116808217855250505050505090500191505060405180910390209050866000191681600019161415156114ca57fe5b600187878787604051600081526020016040526000604051602001526040516114f69493929190611fa9565b602060405160208103908084039060008661646e5a03f1151561151857600080fd5b50506020604051035191505095945050505050565b60008173ffffffffffffffffffffffffffffffffffffffff1660018481548110151561155557fe5b906000526020600020906006020160000160009054906101000a900473ffffffffffffffffffffffffffffffffffffffff1673ffffffffffffffffffffffffffffffffffffffff16146115e8576001838154811015156115b157fe5b906000526020600020906006020160000160009054906101000a900473ffffffffffffffffffffffffffffffffffffffff1661162a565b6001838154811015156115f757fe5b906000526020600020906006020160010160009054906101000a900473ffffffffffffffffffffffffffffffffffffffff165b905092915050565b600080600080600080600893505b6000841115611697578360080360200187015192506030837f010000000000000000000000000000000000000000000000000000000000000090040391508160ff16600a8702019550838060019003945050611640565b602887015190506030817f010000000000000000000000000000000000000000000000000000000000000090040360ff1694506003851015156116d657fe5b50505050915091565b60006116e9611aca565b6000806001868154811015156116fb57fe5b906000526020600020906006020160e060405190810160405290816000820160009054906101000a900473ffffffffffffffffffffffffffffffffffffffff1673ffffffffffffffffffffffffffffffffffffffff1673ffffffffffffffffffffffffffffffffffffffff1681526020016001820160009054906101000a900473ffffffffffffffffffffffffffffffffffffffff1673ffffffffffffffffffffffffffffffffffffffff1673ffffffffffffffffffffffffffffffffffffffff168152602001600282015481526020016003820160009054906101000a900473ffffffffffffffffffffffffffffffffffffffff1673ffffffffffffffffffffffffffffffffffffffff1673ffffffffffffffffffffffffffffffffffffffff1681526020016004820160009054906101000a900473ffffffffffffffffffffffffffffffffffffffff1673ffffffffffffffffffffffffffffffffffffffff1673ffffffffffffffffffffffffffffffffffffffff1681526020016004820160149054906101000a900460ff161515151581526020016005820154815250509250826060015173ffffffffffffffffffffffffffffffffffffffff16634cc93fb5866118cd898760000151611a40565b6000604051602001526040518363ffffffff167c010000000000000000000000000000000000000000000000000000000002815260040161190f929190612025565b602060405180830381600087803b151561192857600080fd5b6102c65a03f1151561193957600080fd5b505050604051805190509150826060015173ffffffffffffffffffffffffffffffffffffffff16634cc93fb586611974898760200151611a40565b6000604051602001526040518363ffffffff167c01000000000000000000000000000000000000000000000000000000000281526004016119b6929190612025565b602060405180830381600087803b15156119cf57600080fd5b6102c65a03f115156119e057600080fd5b5050506040518051905090508015158215151480156119fc5750815b151515611a0557fe5b80151582151514611a2a5781611a1f578260200151611a25565b82600001515b611a2d565b60005b935050505092915050565b600043905090565b60008173ffffffffffffffffffffffffffffffffffffffff16600184815481101515611a6857fe5b906000526020600020906006020160000160009054906101000a900473ffffffffffffffffffffffffffffffffffffffff1673ffffffffffffffffffffffffffffffffffffffff161415611abf5760019050611ac4565b600290505b92915050565b60e060405190810160405280600073ffffffffffffffffffffffffffffffffffffffff168152602001600073ffffffffffffffffffffffffffffffffffffffff16815260200160008152602001600073ffffffffffffffffffffffffffffffffffffffff168152602001600073ffffffffffffffffffffffffffffffffffffffff168152602001600015158152602001600081525090565b815481835581811511611b8f57600202816002028360005260206000209182019101611b8e9190611c46565b5b505050565b828054600181600116156101000203166002900490600052602060002090601f016020900481019282601f10611bd557805160ff1916838001178555611c03565b82800160010185558215611c03579182015b82811115611c02578251825591602001919060010190611be7565b5b509050611c109190611c9c565b5090565b815481835581811511611c4157600602816006028360005260206000209182019101611c409190611cc1565b5b505050565b611c9991905b80821115611c9557600080820160006101000a81549073ffffffffffffffffffffffffffffffffffffffff0219169055600182016000611c8c9190611da0565b50600201611c4c565b5090565b90565b611cbe91905b80821115611cba576000816000905550600101611ca2565b5090565b90565b611d9d91905b80821115611d9957600080820160006101000a81549073ffffffffffffffffffffffffffffffffffffffff02191690556001820160006101000a81549073ffffffffffffffffffffffffffffffffffffffff021916905560028201600090556003820160006101000a81549073ffffffffffffffffffffffffffffffffffffffff02191690556004820160006101000a81549073ffffffffffffffffffffffffffffffffffffffff02191690556004820160146101000a81549060ff0219169055600582016000905550600601611cc7565b5090565b90565b50805460018160011615610100020316600290046000825580601f10611dc65750611de5565b601f016020900490600052602060002090810190611de49190611c9c565b5b50565b611df18161208d565b82525050565b611e00816120ad565b82525050565b611e0f816120b9565b82525050565b6000611e2082612082565b808452611e348160208601602086016120da565b611e3d81612116565b602085010191505092915050565b600081546001811660008114611e685760018114611e8857611ec9565b607f600283041680865260ff198316602087015260408601935050611ec9565b60028204808652602086019550611e9e85612070565b60005b82811015611ec057815481890152600182019150602081019050611ea1565b80880195505050505b505092915050565b611eda816120c3565b82525050565b611ee9816120cd565b82525050565b6000602082019050611f046000830184611de8565b92915050565b600060e082019050611f1f600083018a611de8565b611f2c6020830189611de8565b611f396040830188611ed1565b611f466060830187611de8565b611f536080830186611de8565b611f6060a0830185611df7565b611f6d60c0830184611ed1565b98975050505050505050565b6000604082019050611f8e6000830185611de8565b8181036020830152611fa08184611e4b565b90509392505050565b6000608082019050611fbe6000830187611e06565b611fcb6020830186611ee0565b611fd86040830185611e06565b611fe56060830184611e06565b95945050505050565b600060408201905081810360008301526120088185611e15565b9050818103602083015261201c8184611e15565b90509392505050565b6000604082019050818103600083015261203f8185611e15565b905061204e6020830184611ed1565b9392505050565b600060208201905061206a6000830184611ed1565b92915050565b60008160005260206000209050919050565b600081519050919050565b600073ffffffffffffffffffffffffffffffffffffffff82169050919050565b60008115159050919050565b6000819050919050565b6000819050919050565b600060ff82169050919050565b60005b838110156120f85780820151818401526020810190506120dd565b838114600081146121085761210f565b6000858501525b5050505050565b6000601f19601f83011690509190505600a265627a7a7230582082a829e61c701c950b461dbd41420e967551be41a0f579b0d23648af71c75ef96c6578706572696d656e74616cf50037",
  "source": "pragma solidity ^0.4.18;\npragma experimental ABIEncoderV2;\n\nimport \"./Ownable.sol\";\nimport \"./ResolverInterface.sol\";\n\ncontract StakeManager is Ownable {\n\n\tstruct Channel {\n\t\taddress p1;\n\t\taddress p2;\n\t\tuint stake;\n\t\taddress resolver;\n\t\taddress winner;\n\t\tbool finished;\n\t\tuint resolveStart;\n\t}\n\n\tstruct ResolverStruct {\n\t\taddress resolverAddress;\n\t\tstring name;\n\t}\n\t\n\tuint constant MAX_OPEN_TIME = 500; // 500 blocks\n\t\n\tChannel[] public channels;\n\tResolverStruct[] public resolvers;\n\n\tfunction addResolver(string _name, address _resolverAddress) public onlyOwner returns(uint _resolverId) {\n\t\t\n\t\t_resolverId = resolvers.length;\n\t\tresolvers.length++;\n\n\t\tResolverStruct storage r = resolvers[_resolverId];\n\t\tr.name = _name;\n\t\tr.resolverAddress = _resolverAddress;\n\t}\n\t\n\n\tfunction openChannel(uint _resolverId) public payable returns(uint _channelId) {\n\n        _channelId = channels.length;\n        channels.length++;\n\n        Channel storage c = channels[_channelId];\n\t\tc.p1 = _currUser();\n\t\tc.stake = msg.value;\n\t\tc.resolver = resolvers[_resolverId].resolverAddress;\n\t}\n\n\tfunction joinChannel(uint _channelId) public payable {\n\t\trequire(_channelId < channels.length);\n\t\trequire(!_isActive(_channelId));\n\n\t\tChannel storage c = channels[_channelId];\n\t\t\n\t\trequire(c.stake <= msg.value);\n\n\t\tc.p2 = _currUser();\n\t}\n\n\t// state should be first 8 places for number as channelId and after that one number where 0-draw,1-p1 wins,2-p2 wins\n\t// for example \"000012340\"-this is channelId == 1234 and its a draw\n\tfunction fastClose(uint _channelId, \n\t\tbytes32 _h, \n\t\tuint8 _v, \n\t\tbytes32 _r, \n\t\tbytes32 _s, \n\t\tbytes _state) public {\n\n\t\trequire(_isActive(_channelId));\n\t\t\n\t\tChannel storage c = channels[_channelId];\n\n\t\taddress signer = _resolveRecover(_h, _v, _r, _s, _state);\n\t\taddress opponent = _getOtherPlayer(_channelId, _currUser());\n\n\t\tassert(signer == opponent);\n\n\t\tuint channelId;\n\t\tuint winner;\n\n\t\t(channelId, winner) = _getState(_state);\n\n\t\tassert(_channelId == channelId);\n\n\t\tif (winner == 0) {\n\t\t\tc.winner = 0x0;\n\t\t} else {\n\t\t\tc.winner = winner == 1 ? c.p1 : c.p2;\n\t\t}\n\n\t\tc.finished = true;\n\t}\n\n\tfunction close(uint _channelId, \n\t\tbytes32[2] _h, \n\t\tuint8[2] _v, \n\t\tbytes32[2] _r, \n\t\tbytes32[2] _s,\n\t\tbytes _state1,\n\t\tbytes _state2\n\t\t) public {\n\n\t\trequire(_isActive(_channelId));\n\n\t\tChannel storage c = channels[_channelId];\n\n\n\t\taddress signer = _resolveRecover(_h[0], _v[0], _r[0], _s[0], _state1);\n\t\taddress signer2 = _resolveRecover(_h[1], _v[1], _r[1], _s[1], _state2);\n\n        // it must be signed by one of the players in the channel\n        assert(signer == c.p1 || signer == c.p2);\n        assert(signer2 == c.p1 || signer2 == c.p2);\n\n\t\t// we are getting last two states and they must be signed with two different players\n\t\tassert(signer != signer2);\n        assert(ResolverInterface(c.resolver).resolve(_state1, _state2));\n\n\t\taddress _winner = _getWinner(_channelId, _state2);\n\n        if (c.winner == 0x0 && c.resolveStart == 0) {\n\t    \tc.winner = _winner;\n\t    \tc.resolveStart = _currBlock();\n    \t} else {\n    \t\tif (c.winner == _winner) {\n    \t\t\tc.finished = true;\n    \t\t} else {\n    \t\t\t//// OPTIONS:\n    \t\t\t//// 1. if first player send some previous state with no winner\n    \t\t\t//// 2. ?\n    \t\t}\n    \t}\n\t}\n\n\tfunction _getWinner(uint _channelId, bytes _state) private view returns(address _winner) {\n\t\tChannel memory c = channels[_channelId];\n\n\t\tbool p1winner = ResolverInterface(c.resolver).isWinner(_state, _getSign(_channelId, c.p1));\n\t\tbool p2winner = ResolverInterface(c.resolver).isWinner(_state, _getSign(_channelId, c.p2));\n\n\t\t// its not possible that both players win\n\t\tassert(!(p1winner == p2winner && p1winner));\n\n\t\t//if its both false then _winner is 0x0 else if p1winner then p1 else p2\n\t\t_winner = (p1winner == p2winner) ? 0x0 : (p1winner ? c.p1 : c.p2);\n\t}\n\n\tfunction closeTimeoutedChannel(uint _channelId) public {\n\t\tChannel memory c = channels[_channelId];\n\n\t\trequire(_isActive(_channelId));\n\t\trequire(!c.finished);\n\t\trequire(c.resolveStart + MAX_OPEN_TIME < _currBlock());\n\n\t\tif (c.winner == 0x0) {\n\t\t\towner.transfer(c.stake * 2);\n\t\t} else {\n\t\t\tc.winner.transfer(c.stake * 2);\n\t\t}\n\t}\n\n\tfunction _getSign(uint _channelId, address _player) private view returns(uint _sign) {\n\t\t\n\t\tif (channels[_channelId].p1 == _player) {\n\t\t\t_sign = 1;\n\t\t} else {\n\t\t\t_sign = 2;\n\t\t}\n\t}\n\n\tfunction _getState(bytes _state) private pure returns(uint _channelId, uint _winner) {\n\n        for (uint i=8; i>0; i--){\n            byte t;\n            assembly {\n                t := mload(add(_state, add(32, sub(8, i))))\n            }\n            uint8 num = uint8(t) - 48;\n            _channelId = _channelId*10+num;\n        }\n        \n        byte winner;\n        assembly {\n            winner := mload(add(_state, 40))\n        }\n\n        _winner = uint8(winner) - 48;\n        \n        assert(_winner < 3);\n\t}\n\n\tfunction _resolveRecover(bytes32 _h, uint8 _v, bytes32 _r, bytes32 _s, bytes _currState) private pure returns(address _signer) {\n\t\tbytes32 proof = keccak256(_currState);\n\t\tassert(proof == _h);\n\n\t\t_signer = ecrecover(_h, _v, _r, _s);\n\t}\n\t\n\tfunction nChannel() public view returns(uint _n) {\n\t    _n = channels.length;\n\t}\n\t\n\tfunction _isActive(uint _channelId) private view returns(bool _active) {\n\t\n\t\t_active = (channels[_channelId].p1 != 0x0) && (channels[_channelId].p2 != 0x0) && !channels[_channelId].finished;\n\t}\n\n\tfunction _getOtherPlayer(uint _channelId, address _player) private view returns(address _otherPlayer) {\n\t\t_otherPlayer = (channels[_channelId].p1 == _player) ? channels[_channelId].p2 : channels[_channelId].p1;  \n\t}\n\n\tfunction _currUser() private view returns(address currUser) {\n\t\tcurrUser = msg.sender;\n\t}\n\n\tfunction _currBlock() private view returns(uint currBlock) {\n\t\tcurrBlock = block.number;\n\t}\n}",
  "sourcePath": "/Users/nenadpalinkasevic/Desktop/blockchain/StateChannels/solidity/contracts/StakeManager.sol",
  "compiler": {
    "name": "solc",
    "version": "0.4.18+commit.9cf6e910.Emscripten.clang"
  },
  "schemaVersion": "1.0.1",
  "updatedAt": "2018-03-22T15:30:13.806Z"
}