{
  "contractName": "StakeManager",
  "abi": [
    {
      "constant": true,
      "inputs": [
        {
          "name": "hash",
          "type": "bytes32"
        },
        {
          "name": "sig",
          "type": "bytes"
        }
      ],
      "name": "recover",
      "outputs": [
        {
          "name": "",
          "type": "address"
        }
      ],
      "payable": false,
      "stateMutability": "view",
      "type": "function"
    },
    {
      "constant": true,
      "inputs": [
        {
          "name": "_msg",
          "type": "bytes32"
        },
        {
          "name": "sig",
          "type": "bytes"
        }
      ],
      "name": "prefixedRecover",
      "outputs": [
        {
          "name": "",
          "type": "address"
        }
      ],
      "payable": false,
      "stateMutability": "view",
      "type": "function"
    },
    {
      "constant": true,
      "inputs": [],
      "name": "owner",
      "outputs": [
        {
          "name": "",
          "type": "address"
        }
      ],
      "payable": false,
      "stateMutability": "view",
      "type": "function"
    },
    {
      "constant": true,
      "inputs": [
        {
          "name": "",
          "type": "uint256"
        }
      ],
      "name": "resolvers",
      "outputs": [
        {
          "name": "resolverAddress",
          "type": "address"
        },
        {
          "name": "name",
          "type": "string"
        }
      ],
      "payable": false,
      "stateMutability": "view",
      "type": "function"
    },
    {
      "constant": true,
      "inputs": [
        {
          "name": "",
          "type": "uint256"
        }
      ],
      "name": "channels",
      "outputs": [
        {
          "name": "p1",
          "type": "address"
        },
        {
          "name": "p2",
          "type": "address"
        },
        {
          "name": "stake",
          "type": "uint256"
        },
        {
          "name": "resolver",
          "type": "address"
        },
        {
          "name": "winner",
          "type": "address"
        },
        {
          "name": "finished",
          "type": "bool"
        },
        {
          "name": "resolveStart",
          "type": "uint256"
        }
      ],
      "payable": false,
      "stateMutability": "view",
      "type": "function"
    },
    {
      "constant": false,
      "inputs": [
        {
          "name": "newOwner",
          "type": "address"
        }
      ],
      "name": "transferOwnership",
      "outputs": [],
      "payable": false,
      "stateMutability": "nonpayable",
      "type": "function"
    },
    {
      "constant": true,
      "inputs": [
        {
          "name": "_msg",
          "type": "bytes32"
        }
      ],
      "name": "toEthereumSignedMessage",
      "outputs": [
        {
          "name": "",
          "type": "bytes32"
        }
      ],
      "payable": false,
      "stateMutability": "view",
      "type": "function"
    },
    {
      "anonymous": false,
      "inputs": [
        {
          "indexed": false,
          "name": "_channelId",
          "type": "uint256"
        },
        {
          "indexed": false,
          "name": "_winner",
          "type": "address"
        },
        {
          "indexed": false,
          "name": "_stake",
          "type": "uint256"
        },
        {
          "indexed": false,
          "name": "_type",
          "type": "uint256"
        }
      ],
      "name": "MatchOutcome",
      "type": "event"
    },
    {
      "anonymous": false,
      "inputs": [
        {
          "indexed": false,
          "name": "signer",
          "type": "address"
        },
        {
          "indexed": false,
          "name": "opponent",
          "type": "address"
        }
      ],
      "name": "Test",
      "type": "event"
    },
    {
      "anonymous": false,
      "inputs": [
        {
          "indexed": true,
          "name": "previousOwner",
          "type": "address"
        },
        {
          "indexed": true,
          "name": "newOwner",
          "type": "address"
        }
      ],
      "name": "OwnershipTransferred",
      "type": "event"
    },
    {
      "constant": false,
      "inputs": [
        {
          "name": "_name",
          "type": "string"
        },
        {
          "name": "_resolverAddress",
          "type": "address"
        }
      ],
      "name": "addResolver",
      "outputs": [
        {
          "name": "_resolverId",
          "type": "uint256"
        }
      ],
      "payable": false,
      "stateMutability": "nonpayable",
      "type": "function"
    },
    {
      "constant": false,
      "inputs": [
        {
          "name": "_resolverId",
          "type": "uint256"
        },
        {
          "name": "_signAddress",
          "type": "address"
        }
      ],
      "name": "openChannel",
      "outputs": [
        {
          "name": "_channelId",
          "type": "uint256"
        }
      ],
      "payable": true,
      "stateMutability": "payable",
      "type": "function"
    },
    {
      "constant": false,
      "inputs": [
        {
          "name": "_channelId",
          "type": "uint256"
        },
        {
          "name": "_signAddress",
          "type": "address"
        }
      ],
      "name": "joinChannel",
      "outputs": [],
      "payable": true,
      "stateMutability": "payable",
      "type": "function"
    },
    {
      "constant": false,
      "inputs": [
        {
          "name": "_channelId",
          "type": "uint256"
        },
        {
          "name": "_h",
          "type": "bytes32"
        },
        {
          "name": "sig",
          "type": "bytes"
        },
        {
          "name": "_state",
          "type": "bytes"
        }
      ],
      "name": "fastClose",
      "outputs": [],
      "payable": false,
      "stateMutability": "nonpayable",
      "type": "function"
    },
    {
      "constant": false,
      "inputs": [
        {
          "name": "_channelId",
          "type": "uint256"
        },
        {
          "name": "_h",
          "type": "bytes32[2]"
        },
        {
          "name": "_sig1",
          "type": "bytes"
        },
        {
          "name": "_sig2",
          "type": "bytes"
        },
        {
          "name": "_state1",
          "type": "bytes"
        },
        {
          "name": "_state2",
          "type": "bytes"
        }
      ],
      "name": "disputeMove",
      "outputs": [],
      "payable": false,
      "stateMutability": "nonpayable",
      "type": "function"
    },
    {
      "constant": false,
      "inputs": [
        {
          "name": "_channelId",
          "type": "uint256"
        },
        {
          "name": "_h",
          "type": "bytes32[2]"
        },
        {
          "name": "_sig1",
          "type": "bytes"
        },
        {
          "name": "_sig2",
          "type": "bytes"
        },
        {
          "name": "_state1",
          "type": "bytes"
        },
        {
          "name": "_state2",
          "type": "bytes"
        }
      ],
      "name": "challengeTimeout",
      "outputs": [],
      "payable": false,
      "stateMutability": "nonpayable",
      "type": "function"
    },
    {
      "constant": false,
      "inputs": [
        {
          "name": "_channelId",
          "type": "uint256"
        }
      ],
      "name": "closeTimeoutedChannel",
      "outputs": [],
      "payable": false,
      "stateMutability": "nonpayable",
      "type": "function"
    },
    {
      "constant": true,
      "inputs": [
        {
          "name": "_hash",
          "type": "bytes32"
        },
        {
          "name": "_sig",
          "type": "bytes"
        },
        {
          "name": "_state",
          "type": "bytes"
        }
      ],
      "name": "recoverSig",
      "outputs": [
        {
          "name": "",
          "type": "address"
        }
      ],
      "payable": false,
      "stateMutability": "view",
      "type": "function"
    },
    {
      "constant": true,
      "inputs": [],
      "name": "nChannel",
      "outputs": [
        {
          "name": "_n",
          "type": "uint256"
        }
      ],
      "payable": false,
      "stateMutability": "view",
      "type": "function"
    }
  ],
  "bytecode": "0x6080604052336000806101000a81548173ffffffffffffffffffffffffffffffffffffffff021916908373ffffffffffffffffffffffffffffffffffffffff160217905550612910806100536000396000f3006080604052600436106100e6576000357c0100000000000000000000000000000000000000000000000000000000900463ffffffff16806319045a25146100eb57806335f77938146101a2578063380388f1146101cd5780633cf2ec6e1461028457806352be10b9146103f857806353d785ab146104f557806354398494146105495780635b5df5d0146106bd5780638da5cb5b14610784578063a5d21a98146107db578063b158fd5c14610808578063c30b83a1146108e1578063ca288bf91461097e578063e5949b5d146109be578063f2fde38b14610add578063fc960e1514610b20575b600080fd5b3480156100f757600080fd5b506101606004803603810190808035600019169060200190929190803590602001908201803590602001908080601f0160208091040260200160405190810160405280939291908181526020018383808284378201915050505050509192919290505050610b6d565b604051808273ffffffffffffffffffffffffffffffffffffffff1673ffffffffffffffffffffffffffffffffffffffff16815260200191505060405180910390f35b3480156101ae57600080fd5b506101b7610c65565b6040518082815260200191505060405180910390f35b3480156101d957600080fd5b506102426004803603810190808035600019169060200190929190803590602001908201803590602001908080601f0160208091040260200160405190810160405280939291908181526020018383808284378201915050505050509192919290505050610c72565b604051808273ffffffffffffffffffffffffffffffffffffffff1673ffffffffffffffffffffffffffffffffffffffff16815260200191505060405180910390f35b34801561029057600080fd5b506103f6600480360381019080803590602001909291908060400190600280602002604051908101604052809291908260026020028082843782019150505050509192919290803590602001908201803590602001908080601f0160208091040260200160405190810160405280939291908181526020018383808284378201915050505050509192919290803590602001908201803590602001908080601f0160208091040260200160405190810160405280939291908181526020018383808284378201915050505050509192919290803590602001908201803590602001908080601f0160208091040260200160405190810160405280939291908181526020018383808284378201915050505050509192919290803590602001908201803590602001908080601f0160208091040260200160405190810160405280939291908181526020018383808284378201915050505050509192919290505050610c93565b005b34801561040457600080fd5b506104b36004803603810190808035600019169060200190929190803590602001908201803590602001908080601f0160208091040260200160405190810160405280939291908181526020018383808284378201915050505050509192919290803590602001908201803590602001908080601f0160208091040260200160405190810160405280939291908181526020018383808284378201915050505050509192919290505050610f42565b604051808273ffffffffffffffffffffffffffffffffffffffff1673ffffffffffffffffffffffffffffffffffffffff16815260200191505060405180910390f35b61053360048036038101908080359060200190929190803573ffffffffffffffffffffffffffffffffffffffff169060200190929190505050610fcc565b6040518082815260200191505060405180910390f35b34801561055557600080fd5b506106bb600480360381019080803590602001909291908060400190600280602002604051908101604052809291908260026020028082843782019150505050509192919290803590602001908201803590602001908080601f0160208091040260200160405190810160405280939291908181526020018383808284378201915050505050509192919290803590602001908201803590602001908080601f0160208091040260200160405190810160405280939291908181526020018383808284378201915050505050509192919290803590602001908201803590602001908080601f0160208091040260200160405190810160405280939291908181526020018383808284378201915050505050509192919290803590602001908201803590602001908080601f016020809104026020016040519081016040528093929190818152602001838380828437820191505050505050919291929050505061115f565b005b3480156106c957600080fd5b50610782600480360381019080803590602001909291908035600019169060200190929190803590602001908201803590602001908080601f0160208091040260200160405190810160405280939291908181526020018383808284378201915050505050509192919290803590602001908201803590602001908080601f01602080910402602001604051908101604052809392919081815260200183838082843782019150505050505091929192905050506114ab565b005b34801561079057600080fd5b506107996118a4565b604051808273ffffffffffffffffffffffffffffffffffffffff1673ffffffffffffffffffffffffffffffffffffffff16815260200191505060405180910390f35b3480156107e757600080fd5b50610806600480360381019080803590602001909291905050506118c9565b005b34801561081457600080fd5b5061083360048036038101908080359060200190929190505050611ac9565b604051808373ffffffffffffffffffffffffffffffffffffffff1673ffffffffffffffffffffffffffffffffffffffff16815260200180602001828103825283818151815260200191508051906020019080838360005b838110156108a557808201518184015260208101905061088a565b50505050905090810190601f1680156108d25780820380516001836020036101000a031916815260200191505b50935050505060405180910390f35b3480156108ed57600080fd5b50610968600480360381019080803590602001908201803590602001908080601f0160208091040260200160405190810160405280939291908181526020018383808284378201915050505050509192919290803573ffffffffffffffffffffffffffffffffffffffff169060200190929190505050611bb4565b6040518082815260200191505060405180910390f35b6109bc60048036038101908080359060200190929190803573ffffffffffffffffffffffffffffffffffffffff169060200190929190505050611cb1565b005b3480156109ca57600080fd5b506109e960048036038101908080359060200190929190505050611dd3565b604051808873ffffffffffffffffffffffffffffffffffffffff1673ffffffffffffffffffffffffffffffffffffffff1681526020018773ffffffffffffffffffffffffffffffffffffffff1673ffffffffffffffffffffffffffffffffffffffff1681526020018681526020018573ffffffffffffffffffffffffffffffffffffffff1673ffffffffffffffffffffffffffffffffffffffff1681526020018473ffffffffffffffffffffffffffffffffffffffff1673ffffffffffffffffffffffffffffffffffffffff1681526020018315151515815260200182815260200197505050505050505060405180910390f35b348015610ae957600080fd5b50610b1e600480360381019080803573ffffffffffffffffffffffffffffffffffffffff169060200190929190505050611eb1565b005b348015610b2c57600080fd5b50610b4f6004803603810190808035600019169060200190929190505050612006565b60405180826000191660001916815260200191505060405180910390f35b60008060008060418551141515610b875760009350610c5c565b6020850151925060408501519150606085015160001a9050601b8160ff161015610bb257601b810190505b601b8160ff1614158015610bca5750601c8160ff1614155b15610bd85760009350610c5c565b600186828585604051600081526020016040526040518085600019166000191681526020018460ff1660ff1681526020018360001916600019168152602001826000191660001916815260200194505050505060206040516020810390808403906000865af1158015610c4f573d6000803e3d6000fd5b5050506020604051035193505b50505092915050565b6000600180549050905090565b600080610c7e84612006565b9050610c8a8184610b6d565b91505092915050565b6000806000610ca1896120bd565b1515610cac57600080fd5b600189815481101515610cbb57fe5b90600052602060002090600602019250610ce9886000600281101515610cdd57fe5b60200201518887610f42565b9150610d09886001600281101515610cfd57fe5b60200201518786610f42565b9050610d1c89610d176121ba565b612221565b73ffffffffffffffffffffffffffffffffffffffff168273ffffffffffffffffffffffffffffffffffffffff16141515610d5557600080fd5b610d5d6121ba565b73ffffffffffffffffffffffffffffffffffffffff168173ffffffffffffffffffffffffffffffffffffffff16141515610d9657600080fd5b8260030160009054906101000a900473ffffffffffffffffffffffffffffffffffffffff1673ffffffffffffffffffffffffffffffffffffffff16639061b92386866040518363ffffffff167c0100000000000000000000000000000000000000000000000000000000028152600401808060200180602001838103835285818151815260200191508051906020019080838360005b83811015610e47578082015181840152602081019050610e2c565b50505050905090810190601f168015610e745780820380516001836020036101000a031916815260200191505b50838103825284818151815260200191508051906020019080838360005b83811015610ead578082015181840152602081019050610e92565b50505050905090810190601f168015610eda5780820380516001836020036101000a031916815260200191505b50945050505050602060405180830381600087803b158015610efb57600080fd5b505af1158015610f0f573d6000803e3d6000fd5b505050506040513d6020811015610f2557600080fd5b810190808051906020019092919050505050505050505050505050565b60008360001916826040518082805190602001908083835b602083101515610f7f5780518252602082019150602081019050602083039250610f5a565b6001836020036101000a038019825116818451168082178552505050505050905001915050604051809103902060001916141515610fb957fe5b610fc38484610c72565b90509392505050565b600080600180549050915060018054809190600101610feb91906125c6565b5082600360003373ffffffffffffffffffffffffffffffffffffffff1673ffffffffffffffffffffffffffffffffffffffff16815260200190815260200160002060006101000a81548173ffffffffffffffffffffffffffffffffffffffff021916908373ffffffffffffffffffffffffffffffffffffffff16021790555060018281548110151561107957fe5b90600052602060002090600602019050338160000160006101000a81548173ffffffffffffffffffffffffffffffffffffffff021916908373ffffffffffffffffffffffffffffffffffffffff1602179055503481600201819055506002848154811015156110e457fe5b906000526020600020906002020160000160009054906101000a900473ffffffffffffffffffffffffffffffffffffffff168160030160006101000a81548173ffffffffffffffffffffffffffffffffffffffff021916908373ffffffffffffffffffffffffffffffffffffffff1602179055505092915050565b60008060008061116e8a6120bd565b151561117957600080fd5b60018a81548110151561118857fe5b906000526020600020906006020193506111b68960006002811015156111aa57fe5b60200201518988610f42565b92506111d68960016002811015156111ca57fe5b60200201518887610f42565b91506111e98a6111e46121ba565b612221565b90508073ffffffffffffffffffffffffffffffffffffffff168273ffffffffffffffffffffffffffffffffffffffff1614151561122257fe5b8073ffffffffffffffffffffffffffffffffffffffff168373ffffffffffffffffffffffffffffffffffffffff1614151561125957fe5b8360030160009054906101000a900473ffffffffffffffffffffffffffffffffffffffff1673ffffffffffffffffffffffffffffffffffffffff16639061b92387876040518363ffffffff167c0100000000000000000000000000000000000000000000000000000000028152600401808060200180602001838103835285818151815260200191508051906020019080838360005b8381101561130a5780820151818401526020810190506112ef565b50505050905090810190601f1680156113375780820380516001836020036101000a031916815260200191505b50838103825284818151815260200191508051906020019080838360005b83811015611370578082015181840152602081019050611355565b50505050905090810190601f16801561139d5780820380516001836020036101000a031916815260200191505b50945050505050602060405180830381600087803b1580156113be57600080fd5b505af11580156113d2573d6000803e3d6000fd5b505050506040513d60208110156113e857600080fd5b81019080805190602001909291905050501561148d576114088a82612326565b7fb4a68eb032e74b632b1df8af3826c7aa7b93ef5eff76449153e96af5ba3d7feb8a8286600201546001604051808581526020018473ffffffffffffffffffffffffffffffffffffffff1673ffffffffffffffffffffffffffffffffffffffff16815260200183815260200182815260200194505050505060405180910390a161149f565b61149e8a6114996121ba565b612326565b5b50505050505050505050565b6000806000806000806114bd8a6120bd565b15156114c857600080fd5b60018a8154811015156114d757fe5b906000526020600020906006020195506114f2898989610f42565b94508473ffffffffffffffffffffffffffffffffffffffff16600360008860000160009054906101000a900473ffffffffffffffffffffffffffffffffffffffff1673ffffffffffffffffffffffffffffffffffffffff1673ffffffffffffffffffffffffffffffffffffffff16815260200190815260200160002060009054906101000a900473ffffffffffffffffffffffffffffffffffffffff1673ffffffffffffffffffffffffffffffffffffffff161461163357600360008760010160009054906101000a900473ffffffffffffffffffffffffffffffffffffffff1673ffffffffffffffffffffffffffffffffffffffff1673ffffffffffffffffffffffffffffffffffffffff16815260200190815260200160002060009054906101000a900473ffffffffffffffffffffffffffffffffffffffff166116b8565b600360008760000160009054906101000a900473ffffffffffffffffffffffffffffffffffffffff1673ffffffffffffffffffffffffffffffffffffffff1673ffffffffffffffffffffffffffffffffffffffff16815260200190815260200160002060009054906101000a900473ffffffffffffffffffffffffffffffffffffffff165b93507f7b1552a0e55cb4bed1d019e97a53783567f2ad67d79f1ebe4f2ecd868aed295e8585604051808373ffffffffffffffffffffffffffffffffffffffff1673ffffffffffffffffffffffffffffffffffffffff1681526020018273ffffffffffffffffffffffffffffffffffffffff1673ffffffffffffffffffffffffffffffffffffffff1681526020019250505060405180910390a18373ffffffffffffffffffffffffffffffffffffffff168473ffffffffffffffffffffffffffffffffffffffff1614151561178857fe5b61179187612511565b8093508194505050828a1415156117a457fe5b6000821461180957600182146117de578560010160009054906101000a900473ffffffffffffffffffffffffffffffffffffffff16611804565b8560000160009054906101000a900473ffffffffffffffffffffffffffffffffffffffff165b61180c565b60005b90506118188a82612326565b7fb4a68eb032e74b632b1df8af3826c7aa7b93ef5eff76449153e96af5ba3d7feb8a8288600201546001604051808581526020018473ffffffffffffffffffffffffffffffffffffffff1673ffffffffffffffffffffffffffffffffffffffff16815260200183815260200182815260200194505050505060405180910390a150505050505050505050565b6000809054906101000a900473ffffffffffffffffffffffffffffffffffffffff1681565b6118d16125f8565b6001828154811015156118e057fe5b906000526020600020906006020160e060405190810160405290816000820160009054906101000a900473ffffffffffffffffffffffffffffffffffffffff1673ffffffffffffffffffffffffffffffffffffffff1673ffffffffffffffffffffffffffffffffffffffff1681526020016001820160009054906101000a900473ffffffffffffffffffffffffffffffffffffffff1673ffffffffffffffffffffffffffffffffffffffff1673ffffffffffffffffffffffffffffffffffffffff168152602001600282015481526020016003820160009054906101000a900473ffffffffffffffffffffffffffffffffffffffff1673ffffffffffffffffffffffffffffffffffffffff1673ffffffffffffffffffffffffffffffffffffffff1681526020016004820160009054906101000a900473ffffffffffffffffffffffffffffffffffffffff1673ffffffffffffffffffffffffffffffffffffffff1673ffffffffffffffffffffffffffffffffffffffff1681526020016004820160149054906101000a900460ff161515151581526020016005820154815250509050611a8c826120bd565b1515611a9757600080fd5b8060a00151151515611aa857600080fd5b611ab06125be565b6101f48260c0015101101515611ac557600080fd5b5050565b600281815481101515611ad857fe5b90600052602060002090600202016000915090508060000160009054906101000a900473ffffffffffffffffffffffffffffffffffffffff1690806001018054600181600116156101000203166002900480601f016020809104026020016040519081016040528092919081815260200182805460018160011615610100020316600290048015611baa5780601f10611b7f57610100808354040283529160200191611baa565b820191906000526020600020905b815481529060010190602001808311611b8d57829003601f168201915b5050505050905082565b6000806000809054906101000a900473ffffffffffffffffffffffffffffffffffffffff1673ffffffffffffffffffffffffffffffffffffffff163373ffffffffffffffffffffffffffffffffffffffff16141515611c1257600080fd5b600280549050915060028054809190600101611c2e9190612690565b50600282815481101515611c3e57fe5b9060005260206000209060020201905083816001019080519060200190611c669291906126c2565b50828160000160006101000a81548173ffffffffffffffffffffffffffffffffffffffff021916908373ffffffffffffffffffffffffffffffffffffffff1602179055505092915050565b600060018054905083101515611cc657600080fd5b611ccf836120bd565b151515611cdb57600080fd5b81600360003373ffffffffffffffffffffffffffffffffffffffff1673ffffffffffffffffffffffffffffffffffffffff16815260200190815260200160002060006101000a81548173ffffffffffffffffffffffffffffffffffffffff021916908373ffffffffffffffffffffffffffffffffffffffff160217905550600183815481101515611d6857fe5b9060005260206000209060060201905034816002015411151515611d8b57600080fd5b338160010160006101000a81548173ffffffffffffffffffffffffffffffffffffffff021916908373ffffffffffffffffffffffffffffffffffffffff160217905550505050565b600181815481101515611de257fe5b90600052602060002090600602016000915090508060000160009054906101000a900473ffffffffffffffffffffffffffffffffffffffff16908060010160009054906101000a900473ffffffffffffffffffffffffffffffffffffffff16908060020154908060030160009054906101000a900473ffffffffffffffffffffffffffffffffffffffff16908060040160009054906101000a900473ffffffffffffffffffffffffffffffffffffffff16908060040160149054906101000a900460ff16908060050154905087565b6000809054906101000a900473ffffffffffffffffffffffffffffffffffffffff1673ffffffffffffffffffffffffffffffffffffffff163373ffffffffffffffffffffffffffffffffffffffff16141515611f0c57600080fd5b600073ffffffffffffffffffffffffffffffffffffffff168173ffffffffffffffffffffffffffffffffffffffff1614151515611f4857600080fd5b8073ffffffffffffffffffffffffffffffffffffffff166000809054906101000a900473ffffffffffffffffffffffffffffffffffffffff1673ffffffffffffffffffffffffffffffffffffffff167f8be0079c531659141344cd1fd0a4f28419497f9722a3daafe3b4186f6b6457e060405160405180910390a3806000806101000a81548173ffffffffffffffffffffffffffffffffffffffff021916908373ffffffffffffffffffffffffffffffffffffffff16021790555050565b600060606040805190810160405280601c81526020017f19457468657265756d205369676e6564204d6573736167653a0a333200000000815250905080836040518083805190602001908083835b6020831015156120795780518252602082019150602081019050602083039250612054565b6001836020036101000a0380198251168184511680821785525050505050509050018260001916600019168152602001925050506040518091039020915050919050565b6000806001838154811015156120cf57fe5b906000526020600020906006020160000160009054906101000a900473ffffffffffffffffffffffffffffffffffffffff1673ffffffffffffffffffffffffffffffffffffffff161415801561217c5750600060018381548110151561213157fe5b906000526020600020906006020160010160009054906101000a900473ffffffffffffffffffffffffffffffffffffffff1673ffffffffffffffffffffffffffffffffffffffff1614155b80156121b3575060018281548110151561219257fe5b906000526020600020906006020160040160149054906101000a900460ff16155b9050919050565b6000600360003373ffffffffffffffffffffffffffffffffffffffff1673ffffffffffffffffffffffffffffffffffffffff16815260200190815260200160002060009054906101000a900473ffffffffffffffffffffffffffffffffffffffff16905090565b60008173ffffffffffffffffffffffffffffffffffffffff1660018481548110151561224957fe5b906000526020600020906006020160000160009054906101000a900473ffffffffffffffffffffffffffffffffffffffff1673ffffffffffffffffffffffffffffffffffffffff16146122dc576001838154811015156122a557fe5b906000526020600020906006020160000160009054906101000a900473ffffffffffffffffffffffffffffffffffffffff1661231e565b6001838154811015156122eb57fe5b906000526020600020906006020160010160009054906101000a900473ffffffffffffffffffffffffffffffffffffffff165b905092915050565b6000612331836120bd565b151561233c57600080fd5b60018381548110151561234b57fe5b9060005260206000209060060201905060008273ffffffffffffffffffffffffffffffffffffffff16141561245d578060000160009054906101000a900473ffffffffffffffffffffffffffffffffffffffff1673ffffffffffffffffffffffffffffffffffffffff166108fc82600201549081150290604051600060405180830381858888f193505050501580156123e8573d6000803e3d6000fd5b508060010160009054906101000a900473ffffffffffffffffffffffffffffffffffffffff1673ffffffffffffffffffffffffffffffffffffffff166108fc82600201549081150290604051600060405180830381858888f19350505050158015612457573d6000803e3d6000fd5b506124ac565b8173ffffffffffffffffffffffffffffffffffffffff166108fc60028360020154029081150290604051600060405180830381858888f193505050501580156124aa573d6000803e3d6000fd5b505b60018160040160146101000a81548160ff021916908315150217905550818160040160006101000a81548173ffffffffffffffffffffffffffffffffffffffff021916908373ffffffffffffffffffffffffffffffffffffffff160217905550505050565b600080600080600080600893505b6000841115612576578360080360200187015192506030837f010000000000000000000000000000000000000000000000000000000000000090040391508160ff16600a870201955083806001900394505061251f565b602887015190506030817f010000000000000000000000000000000000000000000000000000000000000090040360ff1694506003851015156125b557fe5b50505050915091565b600043905090565b8154818355818111156125f3576006028160060283600052602060002091820191016125f29190612742565b5b505050565b60e060405190810160405280600073ffffffffffffffffffffffffffffffffffffffff168152602001600073ffffffffffffffffffffffffffffffffffffffff16815260200160008152602001600073ffffffffffffffffffffffffffffffffffffffff168152602001600073ffffffffffffffffffffffffffffffffffffffff168152602001600015158152602001600081525090565b8154818355818111156126bd576002028160020283600052602060002091820191016126bc9190612821565b5b505050565b828054600181600116156101000203166002900490600052602060002090601f016020900481019282601f1061270357805160ff1916838001178555612731565b82800160010185558215612731579182015b82811115612730578251825591602001919060010190612715565b5b50905061273e9190612877565b5090565b61281e91905b8082111561281a57600080820160006101000a81549073ffffffffffffffffffffffffffffffffffffffff02191690556001820160006101000a81549073ffffffffffffffffffffffffffffffffffffffff021916905560028201600090556003820160006101000a81549073ffffffffffffffffffffffffffffffffffffffff02191690556004820160006101000a81549073ffffffffffffffffffffffffffffffffffffffff02191690556004820160146101000a81549060ff0219169055600582016000905550600601612748565b5090565b90565b61287491905b8082111561287057600080820160006101000a81549073ffffffffffffffffffffffffffffffffffffffff0219169055600182016000612867919061289c565b50600201612827565b5090565b90565b61289991905b8082111561289557600081600090555060010161287d565b5090565b90565b50805460018160011615610100020316600290046000825580601f106128c257506128e1565b601f0160209004906000526020600020908101906128e09190612877565b5b505600a165627a7a723058205b77381ebf47a97e31aa7c4c4d5c1ded61b2bc6aea899c0f0600cb66f8d5a4e00029",
  "source": "pragma solidity ^0.4.23;\n\nimport \"./Ownable.sol\";\nimport \"./ResolverInterface.sol\";\nimport \"./ECTools.sol\";\n\ncontract StakeManager is Ownable, ECTools {\n\n\t// _type - 0 is for fastClose and 1 is for a dispute\n\tevent MatchOutcome(uint _channelId, address _winner, uint _stake, uint _type);\n\n\tevent Test(address signer, address opponent);\n\n\tstruct Channel {\n\t\taddress p1;\n\t\taddress p2;\n\t\tuint stake;\n\t\taddress resolver;\n\t\taddress winner;\n\t\tbool finished;\n\t\tuint resolveStart;\n\t}\n\n\tstruct ResolverStruct {\n\t\taddress resolverAddress;\n\t\tstring name;\n\t}\n\t\n\tuint constant MAX_OPEN_TIME = 500; // 500 blocks\n\t\n\tChannel[] public channels;\n\tResolverStruct[] public resolvers;\n\tmapping(address => address) signAddresses;\n\t\n\n\tfunction addResolver(string _name, address _resolverAddress) public onlyOwner returns(uint _resolverId) {\n\t\t\n\t\t_resolverId = resolvers.length;\n\t\tresolvers.length++;\n\n\t\tResolverStruct storage r = resolvers[_resolverId];\n\t\tr.name = _name;\n\t\tr.resolverAddress = _resolverAddress;\n\t}\n\t\n\n\tfunction openChannel(uint _resolverId, address _signAddress) public payable returns(uint _channelId) {\n\n        _channelId = channels.length;\n        channels.length++;\n\n        signAddresses[msg.sender] = _signAddress;\n\n        Channel storage c = channels[_channelId];\n\t\tc.p1 = msg.sender;\n\t\tc.stake = msg.value;\n\t\tc.resolver = resolvers[_resolverId].resolverAddress;\n\t}\n\n\tfunction joinChannel(uint _channelId, address _signAddress) public payable {\n\t\trequire(_channelId < channels.length);\n\t\trequire(!_isActive(_channelId));\n\n\t\tsignAddresses[msg.sender] = _signAddress;\n\n\t\tChannel storage c = channels[_channelId];\n\t\t\n\t\trequire(c.stake <= msg.value);\n\n\t\tc.p2 = msg.sender;\n\t}\n\n\t///@dev Maybe put contract address in state as well so cross contract reply attacks are prevented \n\t// state should be first 8 places for number as channelId and after that one number where 0-draw,1-p1 wins,2-p2 wins\n\t// for example \"000012340\"-this is channelId == 1234 and its a draw\n\tfunction fastClose(uint _channelId, bytes32 _h, bytes sig, bytes _state) public {\n\n\t\trequire(_isActive(_channelId));\n\t\t\n\t\tChannel storage c = channels[_channelId];\n\n\t\taddress signer = recoverSig(_h, sig, _state);\n\n\t\taddress opponent = signAddresses[c.p1] == signer ? signAddresses[c.p1] : signAddresses[c.p2];\n\n\t\temit Test(signer, opponent);\n\n\t\t// TODO: security check if this is enough\n\t\tassert(opponent == opponent);\n\n\t\tuint channelId;\n\t\tuint winner;\n\n\t\t(channelId, winner) = _getState(_state);\n\n\t\tassert(_channelId == channelId);\n\n\t\taddress winnerAddr = winner == 0 ? 0x0 : (winner == 1 ? c.p1 : c.p2);\n\n\t\t_closeChannel(_channelId, winnerAddr);\n\n\t\temit MatchOutcome(_channelId, winnerAddr, c.stake, 1);\n\t}\n\n\tfunction disputeMove(uint _channelId, \n\t\tbytes32[2] _h, \n\t\tbytes _sig1,\n\t\tbytes _sig2,\n\t\tbytes _state1,\n\t\tbytes _state2\n\t\t) public {\n\t\t\n\t\trequire(_isActive(_channelId));\n\n\t\tChannel storage c = channels[_channelId];\n\n\t\taddress signer = recoverSig(_h[0], _sig1, _state1);\n\t\taddress signer2 = recoverSig(_h[1], _sig2, _state2);\n\n\t\taddress otherPlayer = _getOtherPlayer(_channelId, _currUser());\n\n        // both moves must be signed by other player\n        assert(signer2 == otherPlayer);\n        assert(signer == otherPlayer);\n\n        if (ResolverInterface(c.resolver).resolve(_state1, _state2)) {\n        \t_closeChannel(_channelId, otherPlayer);\n\t\t\temit MatchOutcome(_channelId, otherPlayer, c.stake, 1);\n        } else {\n        \t_closeChannel(_channelId, _currUser());\n        }\n\t}\n\n\tfunction challengeTimeout(uint _channelId, \n\t\tbytes32[2] _h, \n\t\tbytes _sig1,\n\t\tbytes _sig2,\n\t\tbytes _state1,\n\t\tbytes _state2\n\t\t) public {\n\n\t\trequire(_isActive(_channelId));\n\n\t\tChannel storage c = channels[_channelId];\n\n\t\taddress signer = recoverSig(_h[0], _sig1, _state1);\n\t\taddress signer2 = recoverSig(_h[1], _sig2, _state2);\n\n\t\trequire(signer == _getOtherPlayer(_channelId, _currUser()));\n\t\trequire(signer2 == _currUser());\n\t\t\n\t\tif (ResolverInterface(c.resolver).resolve(_state1, _state2)) {\n\n\t\t} \n\t}\n\n\tfunction _getWinner(uint _channelId, bytes _state) private view returns(address _winner) {\n\t\tChannel memory c = channels[_channelId];\n\n\t\tbool p1winner = ResolverInterface(c.resolver).isWinner(_state, _getSign(_channelId, c.p1));\n\t\tbool p2winner = ResolverInterface(c.resolver).isWinner(_state, _getSign(_channelId, c.p2));\n\n\t\t// its not possible that both players win\n\t\tassert(!(p1winner == p2winner && p1winner));\n\n\t\t//if its both false then _winner is 0x0 else if p1winner then p1 else p2\n\t\t_winner = (p1winner == p2winner) ? 0x0 : (p1winner ? c.p1 : c.p2);\n\t}\n\n\tfunction closeTimeoutedChannel(uint _channelId) public {\n\t\tChannel memory c = channels[_channelId];\n\n\t\trequire(_isActive(_channelId));\n\t\trequire(!c.finished);\n\t\trequire(c.resolveStart + MAX_OPEN_TIME < _currBlock());\n\n\n\t}\n\n\tfunction _closeChannel(uint _channelId, address _winner) private {\n\t\trequire (_isActive(_channelId));\n\n\t\tChannel storage c = channels[_channelId];\n\n\t\tif (_winner == 0x0) {\n\t\t\tc.p1.transfer(c.stake);\n\t\t\tc.p2.transfer(c.stake);\n\t\t} else {\n\t\t\t_winner.transfer(c.stake * 2);\n\t\t}\n\n\t\tc.finished = true;\n\t\tc.winner = _winner;\n\t}\n\t\n\n\tfunction _getSign(uint _channelId, address _player) private view returns(uint _sign) {\n\t\t\n\t\tif (channels[_channelId].p1 == _player) {\n\t\t\t_sign = 1;\n\t\t} else {\n\t\t\t_sign = 2;\n\t\t}\n\t}\n\n\tfunction _getState(bytes _state) private pure returns(uint _channelId, uint _winner) {\n\n        for (uint i=8; i>0; i--){\n            byte t;\n            assembly {\n                t := mload(add(_state, add(32, sub(8, i))))\n            }\n            uint8 num = uint8(t) - 48;\n            _channelId = _channelId*10+num;\n        }\n        \n        byte winner;\n        assembly {\n            winner := mload(add(_state, 40))\n        }\n\n        _winner = uint8(winner) - 48;\n        \n        assert(_winner < 3);\n\t}\n\n\tfunction recoverSig(bytes32 _hash, bytes _sig, bytes _state) public view returns (address) {\n\t\tassert(keccak256(_state) == _hash);\n\n\t\treturn prefixedRecover(_hash, _sig);\n\t}\n\t\n\tfunction nChannel() public view returns(uint _n) {\n\t    _n = channels.length;\n\t}\n\t\n\tfunction _isActive(uint _channelId) private view returns(bool _active) {\n\t\n\t\t_active = (channels[_channelId].p1 != 0x0) && (channels[_channelId].p2 != 0x0) && !channels[_channelId].finished;\n\t}\n\n\tfunction _getOtherPlayer(uint _channelId, address _player) private view returns(address _otherPlayer) {\n\t\t_otherPlayer = (channels[_channelId].p1 == _player) ? channels[_channelId].p2 : channels[_channelId].p1;  \n\t}\n\n\tfunction _currUser() private view returns(address currUser) {\n\t\tcurrUser = signAddresses[msg.sender];\n\t}\n\n\tfunction _currBlock() private view returns(uint currBlock) {\n\t\tcurrBlock = block.number;\n\t}\n}",
  "sourcePath": "/Users/nenadpalinkasevic/Desktop/blockchain/StateChannels/solidity/contracts/StakeManager.sol",
  "compiler": {
    "name": "solc",
    "version": "0.4.23+commit.124ca40d.Emscripten.clang"
  },
  "schemaVersion": "2.0.0",
  "updatedAt": "2018-05-09T10:17:17.498Z"
}