{
  "contractName": "StakeManager",
  "abi": [
    {
      "constant": true,
      "inputs": [],
      "name": "owner",
      "outputs": [
        {
          "name": "",
          "type": "address"
        }
      ],
      "payable": false,
      "stateMutability": "view",
      "type": "function"
    },
    {
      "constant": true,
      "inputs": [
        {
          "name": "",
          "type": "uint256"
        }
      ],
      "name": "resolvers",
      "outputs": [
        {
          "name": "resolverAddress",
          "type": "address"
        },
        {
          "name": "name",
          "type": "string"
        }
      ],
      "payable": false,
      "stateMutability": "view",
      "type": "function"
    },
    {
      "constant": true,
      "inputs": [
        {
          "name": "",
          "type": "uint256"
        }
      ],
      "name": "channels",
      "outputs": [
        {
          "name": "p1",
          "type": "address"
        },
        {
          "name": "p2",
          "type": "address"
        },
        {
          "name": "stake",
          "type": "uint256"
        },
        {
          "name": "resolver",
          "type": "address"
        },
        {
          "name": "winner",
          "type": "address"
        },
        {
          "name": "finished",
          "type": "bool"
        },
        {
          "name": "resolveStart",
          "type": "uint256"
        }
      ],
      "payable": false,
      "stateMutability": "view",
      "type": "function"
    },
    {
      "constant": false,
      "inputs": [
        {
          "name": "newOwner",
          "type": "address"
        }
      ],
      "name": "transferOwnership",
      "outputs": [],
      "payable": false,
      "stateMutability": "nonpayable",
      "type": "function"
    },
    {
      "anonymous": false,
      "inputs": [
        {
          "indexed": false,
          "name": "_channelId",
          "type": "uint256"
        },
        {
          "indexed": false,
          "name": "_winner",
          "type": "address"
        },
        {
          "indexed": false,
          "name": "_stake",
          "type": "uint256"
        },
        {
          "indexed": false,
          "name": "_type",
          "type": "uint256"
        }
      ],
      "name": "MatchOutcome",
      "type": "event"
    },
    {
      "anonymous": false,
      "inputs": [
        {
          "indexed": false,
          "name": "signer",
          "type": "address"
        },
        {
          "indexed": false,
          "name": "opponent",
          "type": "address"
        }
      ],
      "name": "Test",
      "type": "event"
    },
    {
      "anonymous": false,
      "inputs": [
        {
          "indexed": true,
          "name": "previousOwner",
          "type": "address"
        },
        {
          "indexed": true,
          "name": "newOwner",
          "type": "address"
        }
      ],
      "name": "OwnershipTransferred",
      "type": "event"
    },
    {
      "constant": false,
      "inputs": [
        {
          "name": "_name",
          "type": "string"
        },
        {
          "name": "_resolverAddress",
          "type": "address"
        }
      ],
      "name": "addResolver",
      "outputs": [
        {
          "name": "_resolverId",
          "type": "uint256"
        }
      ],
      "payable": false,
      "stateMutability": "nonpayable",
      "type": "function"
    },
    {
      "constant": false,
      "inputs": [
        {
          "name": "_resolverId",
          "type": "uint256"
        },
        {
          "name": "_signAddress",
          "type": "address"
        }
      ],
      "name": "openChannel",
      "outputs": [
        {
          "name": "_channelId",
          "type": "uint256"
        }
      ],
      "payable": true,
      "stateMutability": "payable",
      "type": "function"
    },
    {
      "constant": false,
      "inputs": [
        {
          "name": "_channelId",
          "type": "uint256"
        },
        {
          "name": "_signAddress",
          "type": "address"
        }
      ],
      "name": "joinChannel",
      "outputs": [],
      "payable": true,
      "stateMutability": "payable",
      "type": "function"
    },
    {
      "constant": false,
      "inputs": [
        {
          "name": "_channelId",
          "type": "uint256"
        },
        {
          "name": "_h",
          "type": "bytes32"
        },
        {
          "name": "_v",
          "type": "uint8"
        },
        {
          "name": "_r",
          "type": "bytes32"
        },
        {
          "name": "_s",
          "type": "bytes32"
        },
        {
          "name": "_state",
          "type": "bytes"
        }
      ],
      "name": "fastClose",
      "outputs": [],
      "payable": false,
      "stateMutability": "nonpayable",
      "type": "function"
    },
    {
      "constant": false,
      "inputs": [
        {
          "name": "_channelId",
          "type": "uint256"
        },
        {
          "name": "_h",
          "type": "bytes32[2]"
        },
        {
          "name": "_v",
          "type": "uint8[2]"
        },
        {
          "name": "_r",
          "type": "bytes32[2]"
        },
        {
          "name": "_s",
          "type": "bytes32[2]"
        },
        {
          "name": "_state1",
          "type": "bytes"
        },
        {
          "name": "_state2",
          "type": "bytes"
        }
      ],
      "name": "disputeMove",
      "outputs": [],
      "payable": false,
      "stateMutability": "nonpayable",
      "type": "function"
    },
    {
      "constant": false,
      "inputs": [
        {
          "name": "_channelId",
          "type": "uint256"
        },
        {
          "name": "_h",
          "type": "bytes32[2]"
        },
        {
          "name": "_v",
          "type": "uint8[2]"
        },
        {
          "name": "_r",
          "type": "bytes32[2]"
        },
        {
          "name": "_s",
          "type": "bytes32[2]"
        },
        {
          "name": "_state1",
          "type": "bytes"
        },
        {
          "name": "_state2",
          "type": "bytes"
        }
      ],
      "name": "challengeTimeout",
      "outputs": [],
      "payable": false,
      "stateMutability": "nonpayable",
      "type": "function"
    },
    {
      "constant": false,
      "inputs": [
        {
          "name": "_channelId",
          "type": "uint256"
        }
      ],
      "name": "closeTimeoutedChannel",
      "outputs": [],
      "payable": false,
      "stateMutability": "nonpayable",
      "type": "function"
    },
    {
      "constant": true,
      "inputs": [],
      "name": "nChannel",
      "outputs": [
        {
          "name": "_n",
          "type": "uint256"
        }
      ],
      "payable": false,
      "stateMutability": "view",
      "type": "function"
    }
  ],
  "bytecode": "0x6080604052336000806101000a81548173ffffffffffffffffffffffffffffffffffffffff021916908373ffffffffffffffffffffffffffffffffffffffff160217905550612360806100536000396000f3006080604052600436106100ba576000357c0100000000000000000000000000000000000000000000000000000000900463ffffffff16806335f77938146100bf57806342bede40146100ea5780634c79321e1461019457806353d785ab146103095780638da5cb5b1461035d578063a5d21a98146103b4578063b158fd5c146103e1578063c30b83a1146104ba578063ca288bf914610557578063d17b7e7f14610597578063e5949b5d1461070c578063f2fde38b1461082b575b600080fd5b3480156100cb57600080fd5b506100d461086e565b6040518082815260200191505060405180910390f35b3480156100f657600080fd5b50610192600480360381019080803590602001909291908035600019169060200190929190803560ff16906020019092919080356000191690602001909291908035600019169060200190929190803590602001908201803590602001908080601f016020809104026020016040519081016040528093929190818152602001838380828437820191505050505050919291929050505061087b565b005b3480156101a057600080fd5b50610307600480360381019080803590602001909291908060400190600280602002604051908101604052809291908260026020028082843782019150505050509192919290806040019060028060200260405190810160405280929190826002602002808284378201915050505050919291929080604001906002806020026040519081016040528092919082600260200280828437820191505050505091929192908060400190600280602002604051908101604052809291908260026020028082843782019150505050509192919290803590602001908201803590602001908080601f0160208091040260200160405190810160405280939291908181526020018383808284378201915050505050509192919290803590602001908201803590602001908080601f0160208091040260200160405190810160405280939291908181526020018383808284378201915050505050509192919290505050610a27565b005b61034760048036038101908080359060200190929190803573ffffffffffffffffffffffffffffffffffffffff169060200190929190505050610d4d565b6040518082815260200191505060405180910390f35b34801561036957600080fd5b50610372610ee0565b604051808273ffffffffffffffffffffffffffffffffffffffff1673ffffffffffffffffffffffffffffffffffffffff16815260200191505060405180910390f35b3480156103c057600080fd5b506103df60048036038101908080359060200190929190505050610f05565b005b3480156103ed57600080fd5b5061040c60048036038101908080359060200190929190505050611105565b604051808373ffffffffffffffffffffffffffffffffffffffff1673ffffffffffffffffffffffffffffffffffffffff16815260200180602001828103825283818151815260200191508051906020019080838360005b8381101561047e578082015181840152602081019050610463565b50505050905090810190601f1680156104ab5780820380516001836020036101000a031916815260200191505b50935050505060405180910390f35b3480156104c657600080fd5b50610541600480360381019080803590602001908201803590602001908080601f0160208091040260200160405190810160405280939291908181526020018383808284378201915050505050509192919290803573ffffffffffffffffffffffffffffffffffffffff1690602001909291905050506111f0565b6040518082815260200191505060405180910390f35b61059560048036038101908080359060200190929190803573ffffffffffffffffffffffffffffffffffffffff1690602001909291905050506112ed565b005b3480156105a357600080fd5b5061070a600480360381019080803590602001909291908060400190600280602002604051908101604052809291908260026020028082843782019150505050509192919290806040019060028060200260405190810160405280929190826002602002808284378201915050505050919291929080604001906002806020026040519081016040528092919082600260200280828437820191505050505091929192908060400190600280602002604051908101604052809291908260026020028082843782019150505050509192919290803590602001908201803590602001908080601f0160208091040260200160405190810160405280939291908181526020018383808284378201915050505050509192919290803590602001908201803590602001908080601f016020809104026020016040519081016040528093929190818152602001838380828437820191505050505050919291929050505061140f565b005b34801561071857600080fd5b50610737600480360381019080803590602001909291905050506117d2565b604051808873ffffffffffffffffffffffffffffffffffffffff1673ffffffffffffffffffffffffffffffffffffffff1681526020018773ffffffffffffffffffffffffffffffffffffffff1673ffffffffffffffffffffffffffffffffffffffff1681526020018681526020018573ffffffffffffffffffffffffffffffffffffffff1673ffffffffffffffffffffffffffffffffffffffff1681526020018473ffffffffffffffffffffffffffffffffffffffff1673ffffffffffffffffffffffffffffffffffffffff1681526020018315151515815260200182815260200197505050505050505060405180910390f35b34801561083757600080fd5b5061086c600480360381019080803573ffffffffffffffffffffffffffffffffffffffff1690602001909291905050506118b0565b005b6000600180549050905090565b60008060008060008061088d8c611a05565b151561089857600080fd5b60018c8154811015156108a757fe5b906000526020600020906006020195506108c48b8b8b8b8b611b02565b94506108d08c86611c0a565b93503373ffffffffffffffffffffffffffffffffffffffff168473ffffffffffffffffffffffffffffffffffffffff1614151561090957fe5b61091287611d0f565b8093508194505050828c14151561092557fe5b6000821461098a576001821461095f578560010160009054906101000a900473ffffffffffffffffffffffffffffffffffffffff16610985565b8560000160009054906101000a900473ffffffffffffffffffffffffffffffffffffffff165b61098d565b60005b90506109998c82611dbc565b7fb4a68eb032e74b632b1df8af3826c7aa7b93ef5eff76449153e96af5ba3d7feb8c8288600201546001604051808581526020018473ffffffffffffffffffffffffffffffffffffffff1673ffffffffffffffffffffffffffffffffffffffff16815260200183815260200182815260200194505050505060405180910390a1505050505050505050505050565b6000806000610a358a611a05565b1515610a4057600080fd5b60018a815481101515610a4f57fe5b90600052602060002090600602019250610ab8896000600281101515610a7157fe5b6020020151896000600281101515610a8557fe5b6020020151896000600281101515610a9957fe5b6020020151896000600281101515610aad57fe5b602002015189611b02565b9150610b13896001600281101515610acc57fe5b6020020151896001600281101515610ae057fe5b6020020151896001600281101515610af457fe5b6020020151896001600281101515610b0857fe5b602002015188611b02565b9050610b268a610b21611fa7565b611c0a565b73ffffffffffffffffffffffffffffffffffffffff168273ffffffffffffffffffffffffffffffffffffffff16141515610b5f57600080fd5b610b67611fa7565b73ffffffffffffffffffffffffffffffffffffffff168173ffffffffffffffffffffffffffffffffffffffff16141515610ba057600080fd5b8260030160009054906101000a900473ffffffffffffffffffffffffffffffffffffffff1673ffffffffffffffffffffffffffffffffffffffff16639061b92386866040518363ffffffff167c0100000000000000000000000000000000000000000000000000000000028152600401808060200180602001838103835285818151815260200191508051906020019080838360005b83811015610c51578082015181840152602081019050610c36565b50505050905090810190601f168015610c7e5780820380516001836020036101000a031916815260200191505b50838103825284818151815260200191508051906020019080838360005b83811015610cb7578082015181840152602081019050610c9c565b50505050905090810190601f168015610ce45780820380516001836020036101000a031916815260200191505b50945050505050602060405180830381600087803b158015610d0557600080fd5b505af1158015610d19573d6000803e3d6000fd5b505050506040513d6020811015610d2f57600080fd5b81019080805190602001909291905050505050505050505050505050565b600080600180549050915060018054809190600101610d6c9190612016565b5082600360003373ffffffffffffffffffffffffffffffffffffffff1673ffffffffffffffffffffffffffffffffffffffff16815260200190815260200160002060006101000a81548173ffffffffffffffffffffffffffffffffffffffff021916908373ffffffffffffffffffffffffffffffffffffffff160217905550600182815481101515610dfa57fe5b90600052602060002090600602019050338160000160006101000a81548173ffffffffffffffffffffffffffffffffffffffff021916908373ffffffffffffffffffffffffffffffffffffffff160217905550348160020181905550600284815481101515610e6557fe5b906000526020600020906002020160000160009054906101000a900473ffffffffffffffffffffffffffffffffffffffff168160030160006101000a81548173ffffffffffffffffffffffffffffffffffffffff021916908373ffffffffffffffffffffffffffffffffffffffff1602179055505092915050565b6000809054906101000a900473ffffffffffffffffffffffffffffffffffffffff1681565b610f0d612048565b600182815481101515610f1c57fe5b906000526020600020906006020160e060405190810160405290816000820160009054906101000a900473ffffffffffffffffffffffffffffffffffffffff1673ffffffffffffffffffffffffffffffffffffffff1673ffffffffffffffffffffffffffffffffffffffff1681526020016001820160009054906101000a900473ffffffffffffffffffffffffffffffffffffffff1673ffffffffffffffffffffffffffffffffffffffff1673ffffffffffffffffffffffffffffffffffffffff168152602001600282015481526020016003820160009054906101000a900473ffffffffffffffffffffffffffffffffffffffff1673ffffffffffffffffffffffffffffffffffffffff1673ffffffffffffffffffffffffffffffffffffffff1681526020016004820160009054906101000a900473ffffffffffffffffffffffffffffffffffffffff1673ffffffffffffffffffffffffffffffffffffffff1673ffffffffffffffffffffffffffffffffffffffff1681526020016004820160149054906101000a900460ff1615151515815260200160058201548152505090506110c882611a05565b15156110d357600080fd5b8060a001511515156110e457600080fd5b6110ec61200e565b6101f48260c001510110151561110157600080fd5b5050565b60028181548110151561111457fe5b90600052602060002090600202016000915090508060000160009054906101000a900473ffffffffffffffffffffffffffffffffffffffff1690806001018054600181600116156101000203166002900480601f0160208091040260200160405190810160405280929190818152602001828054600181600116156101000203166002900480156111e65780601f106111bb576101008083540402835291602001916111e6565b820191906000526020600020905b8154815290600101906020018083116111c957829003601f168201915b5050505050905082565b6000806000809054906101000a900473ffffffffffffffffffffffffffffffffffffffff1673ffffffffffffffffffffffffffffffffffffffff163373ffffffffffffffffffffffffffffffffffffffff1614151561124e57600080fd5b60028054905091506002805480919060010161126a91906120e0565b5060028281548110151561127a57fe5b90600052602060002090600202019050838160010190805190602001906112a2929190612112565b50828160000160006101000a81548173ffffffffffffffffffffffffffffffffffffffff021916908373ffffffffffffffffffffffffffffffffffffffff1602179055505092915050565b60006001805490508310151561130257600080fd5b61130b83611a05565b15151561131757600080fd5b81600360003373ffffffffffffffffffffffffffffffffffffffff1673ffffffffffffffffffffffffffffffffffffffff16815260200190815260200160002060006101000a81548173ffffffffffffffffffffffffffffffffffffffff021916908373ffffffffffffffffffffffffffffffffffffffff1602179055506001838154811015156113a457fe5b90600052602060002090600602019050348160020154111515156113c757600080fd5b338160010160006101000a81548173ffffffffffffffffffffffffffffffffffffffff021916908373ffffffffffffffffffffffffffffffffffffffff160217905550505050565b60008060008061141e8b611a05565b151561142957600080fd5b60018b81548110151561143857fe5b906000526020600020906006020193506114a18a600060028110151561145a57fe5b60200201518a600060028110151561146e57fe5b60200201518a600060028110151561148257fe5b60200201518a600060028110151561149657fe5b60200201518a611b02565b92506114fc8a60016002811015156114b557fe5b60200201518a60016002811015156114c957fe5b60200201518a60016002811015156114dd57fe5b60200201518a60016002811015156114f157fe5b602002015189611b02565b915061150f8b61150a611fa7565b611c0a565b90508073ffffffffffffffffffffffffffffffffffffffff168273ffffffffffffffffffffffffffffffffffffffff1614151561154857fe5b8073ffffffffffffffffffffffffffffffffffffffff168373ffffffffffffffffffffffffffffffffffffffff1614151561157f57fe5b8360030160009054906101000a900473ffffffffffffffffffffffffffffffffffffffff1673ffffffffffffffffffffffffffffffffffffffff16639061b92387876040518363ffffffff167c0100000000000000000000000000000000000000000000000000000000028152600401808060200180602001838103835285818151815260200191508051906020019080838360005b83811015611630578082015181840152602081019050611615565b50505050905090810190601f16801561165d5780820380516001836020036101000a031916815260200191505b50838103825284818151815260200191508051906020019080838360005b8381101561169657808201518184015260208101905061167b565b50505050905090810190601f1680156116c35780820380516001836020036101000a031916815260200191505b50945050505050602060405180830381600087803b1580156116e457600080fd5b505af11580156116f8573d6000803e3d6000fd5b505050506040513d602081101561170e57600080fd5b8101908080519060200190929190505050156117b35761172e8b82611dbc565b7fb4a68eb032e74b632b1df8af3826c7aa7b93ef5eff76449153e96af5ba3d7feb8b8286600201546001604051808581526020018473ffffffffffffffffffffffffffffffffffffffff1673ffffffffffffffffffffffffffffffffffffffff16815260200183815260200182815260200194505050505060405180910390a16117c5565b6117c48b6117bf611fa7565b611dbc565b5b5050505050505050505050565b6001818154811015156117e157fe5b90600052602060002090600602016000915090508060000160009054906101000a900473ffffffffffffffffffffffffffffffffffffffff16908060010160009054906101000a900473ffffffffffffffffffffffffffffffffffffffff16908060020154908060030160009054906101000a900473ffffffffffffffffffffffffffffffffffffffff16908060040160009054906101000a900473ffffffffffffffffffffffffffffffffffffffff16908060040160149054906101000a900460ff16908060050154905087565b6000809054906101000a900473ffffffffffffffffffffffffffffffffffffffff1673ffffffffffffffffffffffffffffffffffffffff163373ffffffffffffffffffffffffffffffffffffffff1614151561190b57600080fd5b600073ffffffffffffffffffffffffffffffffffffffff168173ffffffffffffffffffffffffffffffffffffffff161415151561194757600080fd5b8073ffffffffffffffffffffffffffffffffffffffff166000809054906101000a900473ffffffffffffffffffffffffffffffffffffffff1673ffffffffffffffffffffffffffffffffffffffff167f8be0079c531659141344cd1fd0a4f28419497f9722a3daafe3b4186f6b6457e060405160405180910390a3806000806101000a81548173ffffffffffffffffffffffffffffffffffffffff021916908373ffffffffffffffffffffffffffffffffffffffff16021790555050565b600080600183815481101515611a1757fe5b906000526020600020906006020160000160009054906101000a900473ffffffffffffffffffffffffffffffffffffffff1673ffffffffffffffffffffffffffffffffffffffff1614158015611ac457506000600183815481101515611a7957fe5b906000526020600020906006020160010160009054906101000a900473ffffffffffffffffffffffffffffffffffffffff1673ffffffffffffffffffffffffffffffffffffffff1614155b8015611afb5750600182815481101515611ada57fe5b906000526020600020906006020160040160149054906101000a900460ff16155b9050919050565b600080826040518082805190602001908083835b602083101515611b3b5780518252602082019150602081019050602083039250611b16565b6001836020036101000a0380198251168184511680821785525050505050509050019150506040518091039020905086600019168160001916141515611b7d57fe5b600187878787604051600081526020016040526040518085600019166000191681526020018460ff1660ff1681526020018360001916600019168152602001826000191660001916815260200194505050505060206040516020810390808403906000865af1158015611bf4573d6000803e3d6000fd5b5050506020604051035191505095945050505050565b60008173ffffffffffffffffffffffffffffffffffffffff16600184815481101515611c3257fe5b906000526020600020906006020160000160009054906101000a900473ffffffffffffffffffffffffffffffffffffffff1673ffffffffffffffffffffffffffffffffffffffff1614611cc557600183815481101515611c8e57fe5b906000526020600020906006020160000160009054906101000a900473ffffffffffffffffffffffffffffffffffffffff16611d07565b600183815481101515611cd457fe5b906000526020600020906006020160010160009054906101000a900473ffffffffffffffffffffffffffffffffffffffff165b905092915050565b600080600080600080600893505b6000841115611d74578360080360200187015192506030837f010000000000000000000000000000000000000000000000000000000000000090040391508160ff16600a8702019550838060019003945050611d1d565b602887015190506030817f010000000000000000000000000000000000000000000000000000000000000090040360ff169450600385101515611db357fe5b50505050915091565b6000611dc783611a05565b1515611dd257600080fd5b600183815481101515611de157fe5b9060005260206000209060060201905060008273ffffffffffffffffffffffffffffffffffffffff161415611ef3578060000160009054906101000a900473ffffffffffffffffffffffffffffffffffffffff1673ffffffffffffffffffffffffffffffffffffffff166108fc82600201549081150290604051600060405180830381858888f19350505050158015611e7e573d6000803e3d6000fd5b508060010160009054906101000a900473ffffffffffffffffffffffffffffffffffffffff1673ffffffffffffffffffffffffffffffffffffffff166108fc82600201549081150290604051600060405180830381858888f19350505050158015611eed573d6000803e3d6000fd5b50611f42565b8173ffffffffffffffffffffffffffffffffffffffff166108fc60028360020154029081150290604051600060405180830381858888f19350505050158015611f40573d6000803e3d6000fd5b505b60018160040160146101000a81548160ff021916908315150217905550818160040160006101000a81548173ffffffffffffffffffffffffffffffffffffffff021916908373ffffffffffffffffffffffffffffffffffffffff160217905550505050565b6000600360003373ffffffffffffffffffffffffffffffffffffffff1673ffffffffffffffffffffffffffffffffffffffff16815260200190815260200160002060009054906101000a900473ffffffffffffffffffffffffffffffffffffffff16905090565b600043905090565b815481835581811115612043576006028160060283600052602060002091820191016120429190612192565b5b505050565b60e060405190810160405280600073ffffffffffffffffffffffffffffffffffffffff168152602001600073ffffffffffffffffffffffffffffffffffffffff16815260200160008152602001600073ffffffffffffffffffffffffffffffffffffffff168152602001600073ffffffffffffffffffffffffffffffffffffffff168152602001600015158152602001600081525090565b81548183558181111561210d5760020281600202836000526020600020918201910161210c9190612271565b5b505050565b828054600181600116156101000203166002900490600052602060002090601f016020900481019282601f1061215357805160ff1916838001178555612181565b82800160010185558215612181579182015b82811115612180578251825591602001919060010190612165565b5b50905061218e91906122c7565b5090565b61226e91905b8082111561226a57600080820160006101000a81549073ffffffffffffffffffffffffffffffffffffffff02191690556001820160006101000a81549073ffffffffffffffffffffffffffffffffffffffff021916905560028201600090556003820160006101000a81549073ffffffffffffffffffffffffffffffffffffffff02191690556004820160006101000a81549073ffffffffffffffffffffffffffffffffffffffff02191690556004820160146101000a81549060ff0219169055600582016000905550600601612198565b5090565b90565b6122c491905b808211156122c057600080820160006101000a81549073ffffffffffffffffffffffffffffffffffffffff02191690556001820160006122b791906122ec565b50600201612277565b5090565b90565b6122e991905b808211156122e55760008160009055506001016122cd565b5090565b90565b50805460018160011615610100020316600290046000825580601f106123125750612331565b601f01602090049060005260206000209081019061233091906122c7565b5b505600a165627a7a7230582078911c9794faf156995630db616cef9bfaf74eeb6349d1b5fe5e6a481ddc0f9f0029",
  "source": "pragma solidity ^0.4.23;\n\nimport \"./Ownable.sol\";\nimport \"./ResolverInterface.sol\";\n\ncontract StakeManager is Ownable {\n\n\t// _type - 0 is for fastClose and 1 is for a dispute\n\tevent MatchOutcome(uint _channelId, address _winner, uint _stake, uint _type);\n\n\tevent Test(address signer, address opponent);\n\n\tstruct Channel {\n\t\taddress p1;\n\t\taddress p2;\n\t\tuint stake;\n\t\taddress resolver;\n\t\taddress winner;\n\t\tbool finished;\n\t\tuint resolveStart;\n\t}\n\n\tstruct ResolverStruct {\n\t\taddress resolverAddress;\n\t\tstring name;\n\t}\n\t\n\tuint constant MAX_OPEN_TIME = 500; // 500 blocks\n\t\n\tChannel[] public channels;\n\tResolverStruct[] public resolvers;\n\tmapping(address => address) signAddresses;\n\t\n\n\tfunction addResolver(string _name, address _resolverAddress) public onlyOwner returns(uint _resolverId) {\n\t\t\n\t\t_resolverId = resolvers.length;\n\t\tresolvers.length++;\n\n\t\tResolverStruct storage r = resolvers[_resolverId];\n\t\tr.name = _name;\n\t\tr.resolverAddress = _resolverAddress;\n\t}\n\t\n\n\tfunction openChannel(uint _resolverId, address _signAddress) public payable returns(uint _channelId) {\n\n        _channelId = channels.length;\n        channels.length++;\n\n        signAddresses[msg.sender] = _signAddress;\n\n        Channel storage c = channels[_channelId];\n\t\tc.p1 = msg.sender;\n\t\tc.stake = msg.value;\n\t\tc.resolver = resolvers[_resolverId].resolverAddress;\n\t}\n\n\tfunction joinChannel(uint _channelId, address _signAddress) public payable {\n\t\trequire(_channelId < channels.length);\n\t\trequire(!_isActive(_channelId));\n\n\t\tsignAddresses[msg.sender] = _signAddress;\n\n\t\tChannel storage c = channels[_channelId];\n\t\t\n\t\trequire(c.stake <= msg.value);\n\n\t\tc.p2 = msg.sender;\n\t}\n\n\t///@dev Maybe put contract address in state as well so cross contract reply attacks are prevented \n\t// state should be first 8 places for number as channelId and after that one number where 0-draw,1-p1 wins,2-p2 wins\n\t// for example \"000012340\"-this is channelId == 1234 and its a draw\n\tfunction fastClose(uint _channelId, \n\t\tbytes32 _h, \n\t\tuint8 _v, \n\t\tbytes32 _r, \n\t\tbytes32 _s, \n\t\tbytes _state) public {\n\n\t\trequire(_isActive(_channelId));\n\t\t\n\t\tChannel storage c = channels[_channelId];\n\n\t\taddress signer = _resolveRecover(_h, _v, _r, _s, _state);\n\n\t\t// TODO: security check if we can pass msg.sender like this\n\n\t\taddress opponent = _getOtherPlayer(_channelId, signer);\n\n\t\tassert(opponent == msg.sender);\n\n\t\tuint channelId;\n\t\tuint winner;\n\n\t\t(channelId, winner) = _getState(_state);\n\n\t\tassert(_channelId == channelId);\n\n\t\taddress winnerAddr = winner == 0 ? 0x0 : (winner == 1 ? c.p1 : c.p2);\n\n\t\t_closeChannel(_channelId, winnerAddr);\n\n\t\temit MatchOutcome(_channelId, winnerAddr, c.stake, 1);\n\t}\n\n\tfunction disputeMove(uint _channelId, \n\t\tbytes32[2] _h, \n\t\tuint8[2] _v, \n\t\tbytes32[2] _r, \n\t\tbytes32[2] _s,\n\t\tbytes _state1,\n\t\tbytes _state2\n\t\t) public {\n\t\t\n\t\trequire(_isActive(_channelId));\n\n\t\tChannel storage c = channels[_channelId];\n\n\t\taddress signer = _resolveRecover(_h[0], _v[0], _r[0], _s[0], _state1);\n\t\taddress signer2 = _resolveRecover(_h[1], _v[1], _r[1], _s[1], _state2);\n\n\t\taddress otherPlayer = _getOtherPlayer(_channelId, _currUser());\n\n        // both moves must be signed by other player\n        assert(signer2 == otherPlayer);\n        assert(signer == otherPlayer);\n\n        if (ResolverInterface(c.resolver).resolve(_state1, _state2)) {\n        \t_closeChannel(_channelId, otherPlayer);\n\t\t\temit MatchOutcome(_channelId, otherPlayer, c.stake, 1);\n        } else {\n        \t_closeChannel(_channelId, _currUser());\n        }\n\t}\n\n\tfunction challengeTimeout(uint _channelId, \n\t\tbytes32[2] _h, \n\t\tuint8[2] _v, \n\t\tbytes32[2] _r, \n\t\tbytes32[2] _s,\n\t\tbytes _state1,\n\t\tbytes _state2\n\t\t) public {\n\n\t\trequire(_isActive(_channelId));\n\n\t\tChannel storage c = channels[_channelId];\n\n\t\taddress signer = _resolveRecover(_h[0], _v[0], _r[0], _s[0], _state1);\n\t\taddress signer2 = _resolveRecover(_h[1], _v[1], _r[1], _s[1], _state2);\n\n\t\trequire(signer == _getOtherPlayer(_channelId, _currUser()));\n\t\trequire(signer2 == _currUser());\n\t\t\n\t\tif (ResolverInterface(c.resolver).resolve(_state1, _state2)) {\n\n\t\t} \n\t}\n\n\tfunction _getWinner(uint _channelId, bytes _state) private view returns(address _winner) {\n\t\tChannel memory c = channels[_channelId];\n\n\t\tbool p1winner = ResolverInterface(c.resolver).isWinner(_state, _getSign(_channelId, c.p1));\n\t\tbool p2winner = ResolverInterface(c.resolver).isWinner(_state, _getSign(_channelId, c.p2));\n\n\t\t// its not possible that both players win\n\t\tassert(!(p1winner == p2winner && p1winner));\n\n\t\t//if its both false then _winner is 0x0 else if p1winner then p1 else p2\n\t\t_winner = (p1winner == p2winner) ? 0x0 : (p1winner ? c.p1 : c.p2);\n\t}\n\n\tfunction closeTimeoutedChannel(uint _channelId) public {\n\t\tChannel memory c = channels[_channelId];\n\n\t\trequire(_isActive(_channelId));\n\t\trequire(!c.finished);\n\t\trequire(c.resolveStart + MAX_OPEN_TIME < _currBlock());\n\n\n\t}\n\n\tfunction _closeChannel(uint _channelId, address _winner) private {\n\t\trequire (_isActive(_channelId));\n\n\t\tChannel storage c = channels[_channelId];\n\n\t\tif (_winner == 0x0) {\n\t\t\tc.p1.transfer(c.stake);\n\t\t\tc.p2.transfer(c.stake);\n\t\t} else {\n\t\t\t_winner.transfer(c.stake * 2);\n\t\t}\n\n\t\tc.finished = true;\n\t\tc.winner = _winner;\n\t}\n\t\n\n\tfunction _getSign(uint _channelId, address _player) private view returns(uint _sign) {\n\t\t\n\t\tif (channels[_channelId].p1 == _player) {\n\t\t\t_sign = 1;\n\t\t} else {\n\t\t\t_sign = 2;\n\t\t}\n\t}\n\n\tfunction _getState(bytes _state) private pure returns(uint _channelId, uint _winner) {\n\n        for (uint i=8; i>0; i--){\n            byte t;\n            assembly {\n                t := mload(add(_state, add(32, sub(8, i))))\n            }\n            uint8 num = uint8(t) - 48;\n            _channelId = _channelId*10+num;\n        }\n        \n        byte winner;\n        assembly {\n            winner := mload(add(_state, 40))\n        }\n\n        _winner = uint8(winner) - 48;\n        \n        assert(_winner < 3);\n\t}\n\n\tfunction _resolveRecover(bytes32 _h, uint8 _v, bytes32 _r, bytes32 _s, bytes _currState) private pure returns(address _signer) {\n\t\t// bytes memory prefix = \"\\x19Ethereum Signed Message:\\n32\";\n\t\tbytes32 proof = keccak256(_currState);\n\t\tassert(proof == _h);\n\n\t\t_signer = ecrecover(_h, _v, _r, _s);\n\t}\n\t\n\tfunction nChannel() public view returns(uint _n) {\n\t    _n = channels.length;\n\t}\n\t\n\tfunction _isActive(uint _channelId) private view returns(bool _active) {\n\t\n\t\t_active = (channels[_channelId].p1 != 0x0) && (channels[_channelId].p2 != 0x0) && !channels[_channelId].finished;\n\t}\n\n\tfunction _getOtherPlayer(uint _channelId, address _player) private view returns(address _otherPlayer) {\n\t\t_otherPlayer = (channels[_channelId].p1 == _player) ? channels[_channelId].p2 : channels[_channelId].p1;  \n\t}\n\n\tfunction _currUser() private view returns(address currUser) {\n\t\tcurrUser = signAddresses[msg.sender];\n\t}\n\n\tfunction _currBlock() private view returns(uint currBlock) {\n\t\tcurrBlock = block.number;\n\t}\n}",
  "sourcePath": "/Users/nenadpalinkasevic/Desktop/blockchain/StateChannels/solidity/contracts/StakeManager.sol",
  "compiler": {
    "name": "solc",
    "version": "0.4.23+commit.124ca40d.Emscripten.clang"
  },
  "schemaVersion": "2.0.0",
  "updatedAt": "2018-05-07T14:10:48.852Z"
}