{
  "contractName": "StakeManager",
  "abi": [
    {
      "constant": false,
      "inputs": [
        {
          "name": "_channelId",
          "type": "uint256"
        }
      ],
      "name": "joinChannel",
      "outputs": [],
      "payable": true,
      "stateMutability": "payable",
      "type": "function"
    },
    {
      "constant": true,
      "inputs": [],
      "name": "nChannel",
      "outputs": [
        {
          "name": "_n",
          "type": "uint256"
        }
      ],
      "payable": false,
      "stateMutability": "view",
      "type": "function"
    },
    {
      "constant": false,
      "inputs": [
        {
          "name": "_channelId",
          "type": "uint256"
        },
        {
          "name": "_h",
          "type": "bytes32"
        },
        {
          "name": "_v",
          "type": "uint8"
        },
        {
          "name": "_r",
          "type": "bytes32"
        },
        {
          "name": "_s",
          "type": "bytes32"
        },
        {
          "name": "_state",
          "type": "bytes"
        }
      ],
      "name": "fastClose",
      "outputs": [],
      "payable": false,
      "stateMutability": "nonpayable",
      "type": "function"
    },
    {
      "constant": true,
      "inputs": [],
      "name": "owner",
      "outputs": [
        {
          "name": "",
          "type": "address"
        }
      ],
      "payable": false,
      "stateMutability": "view",
      "type": "function"
    },
    {
      "constant": false,
      "inputs": [
        {
          "name": "_channelId",
          "type": "uint256"
        }
      ],
      "name": "closeTimeoutedChannel",
      "outputs": [],
      "payable": false,
      "stateMutability": "nonpayable",
      "type": "function"
    },
    {
      "constant": true,
      "inputs": [
        {
          "name": "",
          "type": "uint256"
        }
      ],
      "name": "resolvers",
      "outputs": [
        {
          "name": "resolverAddress",
          "type": "address"
        },
        {
          "name": "name",
          "type": "string"
        }
      ],
      "payable": false,
      "stateMutability": "view",
      "type": "function"
    },
    {
      "constant": false,
      "inputs": [
        {
          "name": "_name",
          "type": "string"
        },
        {
          "name": "_resolverAddress",
          "type": "address"
        }
      ],
      "name": "addResolver",
      "outputs": [
        {
          "name": "_resolverId",
          "type": "uint256"
        }
      ],
      "payable": false,
      "stateMutability": "nonpayable",
      "type": "function"
    },
    {
      "constant": false,
      "inputs": [
        {
          "name": "_channelId",
          "type": "uint256"
        },
        {
          "name": "_h",
          "type": "bytes32[2]"
        },
        {
          "name": "_v",
          "type": "uint8[2]"
        },
        {
          "name": "_r",
          "type": "bytes32[2]"
        },
        {
          "name": "_s",
          "type": "bytes32[2]"
        },
        {
          "name": "_state1",
          "type": "bytes"
        },
        {
          "name": "_state2",
          "type": "bytes"
        }
      ],
      "name": "disputeMove",
      "outputs": [],
      "payable": false,
      "stateMutability": "nonpayable",
      "type": "function"
    },
    {
      "constant": true,
      "inputs": [
        {
          "name": "",
          "type": "uint256"
        }
      ],
      "name": "channels",
      "outputs": [
        {
          "name": "p1",
          "type": "address"
        },
        {
          "name": "p2",
          "type": "address"
        },
        {
          "name": "stake",
          "type": "uint256"
        },
        {
          "name": "resolver",
          "type": "address"
        },
        {
          "name": "winner",
          "type": "address"
        },
        {
          "name": "finished",
          "type": "bool"
        },
        {
          "name": "resolveStart",
          "type": "uint256"
        }
      ],
      "payable": false,
      "stateMutability": "view",
      "type": "function"
    },
    {
      "constant": false,
      "inputs": [
        {
          "name": "newOwner",
          "type": "address"
        }
      ],
      "name": "transferOwnership",
      "outputs": [],
      "payable": false,
      "stateMutability": "nonpayable",
      "type": "function"
    },
    {
      "constant": false,
      "inputs": [
        {
          "name": "_resolverId",
          "type": "uint256"
        }
      ],
      "name": "openChannel",
      "outputs": [
        {
          "name": "_channelId",
          "type": "uint256"
        }
      ],
      "payable": true,
      "stateMutability": "payable",
      "type": "function"
    },
    {
      "anonymous": false,
      "inputs": [
        {
          "indexed": true,
          "name": "previousOwner",
          "type": "address"
        },
        {
          "indexed": true,
          "name": "newOwner",
          "type": "address"
        }
      ],
      "name": "OwnershipTransferred",
      "type": "event"
    }
  ],
  "bytecode": "0x6060604052336000806101000a81548173ffffffffffffffffffffffffffffffffffffffff021916908373ffffffffffffffffffffffffffffffffffffffff160217905550611be5806100536000396000f3006060604052600436106100af576000357c0100000000000000000000000000000000000000000000000000000000900463ffffffff1680632819cc0c146100b457806335f77938146100cc57806342bede40146100f55780638da5cb5b1461018e578063a5d21a98146101e3578063b158fd5c14610206578063c30b83a1146102f2578063d17b7e7f14610382578063e5949b5d146104db578063f2fde38b146105f0578063fd85b1a714610629575b600080fd5b6100ca6004808035906020019091905050610655565b005b34156100d757600080fd5b6100df6106ff565b6040518082815260200191505060405180910390f35b341561010057600080fd5b61018c60048080359060200190919080356000191690602001909190803560ff16906020019091908035600019169060200190919080356000191690602001909190803590602001908201803590602001908080601f0160208091040260200160405190810160405280939291908181526020018383808284378201915050505050509190505061070c565b005b341561019957600080fd5b6101a161083a565b604051808273ffffffffffffffffffffffffffffffffffffffff1673ffffffffffffffffffffffffffffffffffffffff16815260200191505060405180910390f35b34156101ee57600080fd5b610204600480803590602001909190505061085f565b005b341561021157600080fd5b6102276004808035906020019091905050610b3b565b604051808373ffffffffffffffffffffffffffffffffffffffff1673ffffffffffffffffffffffffffffffffffffffff168152602001806020018281038252838181546001816001161561010002031660029004815260200191508054600181600116156101000203166002900480156102e25780601f106102b7576101008083540402835291602001916102e2565b820191906000526020600020905b8154815290600101906020018083116102c557829003601f168201915b5050935050505060405180910390f35b34156102fd57600080fd5b61036c600480803590602001908201803590602001908080601f0160208091040260200160405190810160405280939291908181526020018383808284378201915050505050509190803573ffffffffffffffffffffffffffffffffffffffff16906020019091905050610b8d565b6040518082815260200191505060405180910390f35b341561038d57600080fd5b6104d96004808035906020019091908060400190600280602002604051908101604052809291908260026020028082843782019150505050509190806040019060028060200260405190810160405280929190826002602002808284378201915050505050919080604001906002806020026040519081016040528092919082600260200280828437820191505050505091908060400190600280602002604051908101604052809291908260026020028082843782019150505050509190803590602001908201803590602001908080601f0160208091040260200160405190810160405280939291908181526020018383808284378201915050505050509190803590602001908201803590602001908080601f01602080910402602001604051908101604052809392919081815260200183838082843782019150505050505091905050610c8a565b005b34156104e657600080fd5b6104fc6004808035906020019091905050610faa565b604051808873ffffffffffffffffffffffffffffffffffffffff1673ffffffffffffffffffffffffffffffffffffffff1681526020018773ffffffffffffffffffffffffffffffffffffffff1673ffffffffffffffffffffffffffffffffffffffff1681526020018681526020018573ffffffffffffffffffffffffffffffffffffffff1673ffffffffffffffffffffffffffffffffffffffff1681526020018473ffffffffffffffffffffffffffffffffffffffff1673ffffffffffffffffffffffffffffffffffffffff1681526020018315151515815260200182815260200197505050505050505060405180910390f35b34156105fb57600080fd5b610627600480803573ffffffffffffffffffffffffffffffffffffffff16906020019091905050611088565b005b61063f60048080359060200190919050506111dd565b6040518082815260200191505060405180910390f35b60006001805490508210151561066a57600080fd5b610673826112f8565b15151561067f57600080fd5b60018281548110151561068e57fe5b90600052602060002090600602019050348160020154111515156106b157600080fd5b6106b96113f5565b8160010160006101000a81548173ffffffffffffffffffffffffffffffffffffffff021916908373ffffffffffffffffffffffffffffffffffffffff1602179055505050565b6000600180549050905090565b600080600080600061071d8b6112f8565b151561072857600080fd5b60018b81548110151561073757fe5b906000526020600020906006020194506107548a8a8a8a8a6113fd565b93506107678b6107626113f5565b61150b565b92508273ffffffffffffffffffffffffffffffffffffffff168473ffffffffffffffffffffffffffffffffffffffff161415156107a057fe5b6107a986611610565b8092508193505050818b1415156107bc57fe5b61082d8b6000831461082557600183146107fa578660010160009054906101000a900473ffffffffffffffffffffffffffffffffffffffff16610820565b8660000160009054906101000a900473ffffffffffffffffffffffffffffffffffffffff165b610828565b60005b6116bd565b5050505050505050505050565b6000809054906101000a900473ffffffffffffffffffffffffffffffffffffffff1681565b61086761189b565b60018281548110151561087657fe5b906000526020600020906006020160e060405190810160405290816000820160009054906101000a900473ffffffffffffffffffffffffffffffffffffffff1673ffffffffffffffffffffffffffffffffffffffff1673ffffffffffffffffffffffffffffffffffffffff1681526020016001820160009054906101000a900473ffffffffffffffffffffffffffffffffffffffff1673ffffffffffffffffffffffffffffffffffffffff1673ffffffffffffffffffffffffffffffffffffffff168152602001600282015481526020016003820160009054906101000a900473ffffffffffffffffffffffffffffffffffffffff1673ffffffffffffffffffffffffffffffffffffffff1673ffffffffffffffffffffffffffffffffffffffff1681526020016004820160009054906101000a900473ffffffffffffffffffffffffffffffffffffffff1673ffffffffffffffffffffffffffffffffffffffff1673ffffffffffffffffffffffffffffffffffffffff1681526020016004820160149054906101000a900460ff161515151581526020016005820154815250509050610a22826112f8565b1515610a2d57600080fd5b8060a00151151515610a3e57600080fd5b610a46611893565b6101f48260c0015101101515610a5b57600080fd5b6000816080015173ffffffffffffffffffffffffffffffffffffffff161415610aeb576000809054906101000a900473ffffffffffffffffffffffffffffffffffffffff1673ffffffffffffffffffffffffffffffffffffffff166108fc60028360400151029081150290604051600060405180830381858888f193505050501515610ae657600080fd5b610b37565b806080015173ffffffffffffffffffffffffffffffffffffffff166108fc60028360400151029081150290604051600060405180830381858888f193505050501515610b3657600080fd5b5b5050565b600281815481101515610b4a57fe5b90600052602060002090600202016000915090508060000160009054906101000a900473ffffffffffffffffffffffffffffffffffffffff169080600101905082565b6000806000809054906101000a900473ffffffffffffffffffffffffffffffffffffffff1673ffffffffffffffffffffffffffffffffffffffff163373ffffffffffffffffffffffffffffffffffffffff16141515610beb57600080fd5b600280549050915060028054809190600101610c079190611933565b50600282815481101515610c1757fe5b9060005260206000209060020201905083816001019080519060200190610c3f929190611965565b50828160000160006101000a81548173ffffffffffffffffffffffffffffffffffffffff021916908373ffffffffffffffffffffffffffffffffffffffff1602179055505092915050565b6000806000610c988a6112f8565b1515610ca357600080fd5b60018a815481101515610cb257fe5b90600052602060002090600602019250610d1b896000600281101515610cd457fe5b6020020151896000600281101515610ce857fe5b6020020151896000600281101515610cfc57fe5b6020020151896000600281101515610d1057fe5b6020020151896113fd565b9150610d76896001600281101515610d2f57fe5b6020020151896001600281101515610d4357fe5b6020020151896001600281101515610d5757fe5b6020020151896001600281101515610d6b57fe5b6020020151886113fd565b90508073ffffffffffffffffffffffffffffffffffffffff168273ffffffffffffffffffffffffffffffffffffffff16141515610daf57fe5b610dc08a610dbb6113f5565b61150b565b73ffffffffffffffffffffffffffffffffffffffff168273ffffffffffffffffffffffffffffffffffffffff16141515610df657fe5b8260030160009054906101000a900473ffffffffffffffffffffffffffffffffffffffff1673ffffffffffffffffffffffffffffffffffffffff16639061b92386866000604051602001526040518363ffffffff167c0100000000000000000000000000000000000000000000000000000000028152600401808060200180602001838103835285818151815260200191508051906020019080838360005b83811015610eb0578082015181840152602081019050610e95565b50505050905090810190601f168015610edd5780820380516001836020036101000a031916815260200191505b50838103825284818151815260200191508051906020019080838360005b83811015610f16578082015181840152602081019050610efb565b50505050905090810190601f168015610f435780820380516001836020036101000a031916815260200191505b50945050505050602060405180830381600087803b1515610f6357600080fd5b6102c65a03f11515610f7457600080fd5b5050506040518051905015610f9e57610f9d8a610f988c610f936113f5565b61150b565b6116bd565b5b50505050505050505050565b600181815481101515610fb957fe5b90600052602060002090600602016000915090508060000160009054906101000a900473ffffffffffffffffffffffffffffffffffffffff16908060010160009054906101000a900473ffffffffffffffffffffffffffffffffffffffff16908060020154908060030160009054906101000a900473ffffffffffffffffffffffffffffffffffffffff16908060040160009054906101000a900473ffffffffffffffffffffffffffffffffffffffff16908060040160149054906101000a900460ff16908060050154905087565b6000809054906101000a900473ffffffffffffffffffffffffffffffffffffffff1673ffffffffffffffffffffffffffffffffffffffff163373ffffffffffffffffffffffffffffffffffffffff161415156110e357600080fd5b600073ffffffffffffffffffffffffffffffffffffffff168173ffffffffffffffffffffffffffffffffffffffff161415151561111f57600080fd5b8073ffffffffffffffffffffffffffffffffffffffff166000809054906101000a900473ffffffffffffffffffffffffffffffffffffffff1673ffffffffffffffffffffffffffffffffffffffff167f8be0079c531659141344cd1fd0a4f28419497f9722a3daafe3b4186f6b6457e060405160405180910390a3806000806101000a81548173ffffffffffffffffffffffffffffffffffffffff021916908373ffffffffffffffffffffffffffffffffffffffff16021790555050565b6000806001805490509150600180548091906001016111fc91906119e5565b5060018281548110151561120c57fe5b906000526020600020906006020190506112246113f5565b8160000160006101000a81548173ffffffffffffffffffffffffffffffffffffffff021916908373ffffffffffffffffffffffffffffffffffffffff16021790555034816002018190555060028381548110151561127e57fe5b906000526020600020906002020160000160009054906101000a900473ffffffffffffffffffffffffffffffffffffffff168160030160006101000a81548173ffffffffffffffffffffffffffffffffffffffff021916908373ffffffffffffffffffffffffffffffffffffffff16021790555050919050565b60008060018381548110151561130a57fe5b906000526020600020906006020160000160009054906101000a900473ffffffffffffffffffffffffffffffffffffffff1673ffffffffffffffffffffffffffffffffffffffff16141580156113b75750600060018381548110151561136c57fe5b906000526020600020906006020160010160009054906101000a900473ffffffffffffffffffffffffffffffffffffffff1673ffffffffffffffffffffffffffffffffffffffff1614155b80156113ee57506001828154811015156113cd57fe5b906000526020600020906006020160040160149054906101000a900460ff16155b9050919050565b600033905090565b600080826040518082805190602001908083835b6020831015156114365780518252602082019150602081019050602083039250611411565b6001836020036101000a038019825116818451168082178552505050505050905001915050604051809103902090508660001916816000191614151561147857fe5b600187878787604051600081526020016040526000604051602001526040518085600019166000191681526020018460ff1660ff16815260200183600019166000191681526020018260001916600019168152602001945050505050602060405160208103908084039060008661646e5a03f115156114f657600080fd5b50506020604051035191505095945050505050565b60008173ffffffffffffffffffffffffffffffffffffffff1660018481548110151561153357fe5b906000526020600020906006020160000160009054906101000a900473ffffffffffffffffffffffffffffffffffffffff1673ffffffffffffffffffffffffffffffffffffffff16146115c65760018381548110151561158f57fe5b906000526020600020906006020160000160009054906101000a900473ffffffffffffffffffffffffffffffffffffffff16611608565b6001838154811015156115d557fe5b906000526020600020906006020160010160009054906101000a900473ffffffffffffffffffffffffffffffffffffffff165b905092915050565b600080600080600080600893505b6000841115611675578360080360200187015192506030837f010000000000000000000000000000000000000000000000000000000000000090040391508160ff16600a870201955083806001900394505061161e565b602887015190506030817f010000000000000000000000000000000000000000000000000000000000000090040360ff1694506003851015156116b457fe5b50505050915091565b60006116c8836112f8565b15156116d357600080fd5b6001838154811015156116e257fe5b9060005260206000209060060201905060008273ffffffffffffffffffffffffffffffffffffffff1614156117e6578060000160009054906101000a900473ffffffffffffffffffffffffffffffffffffffff1673ffffffffffffffffffffffffffffffffffffffff166108fc82600201549081150290604051600060405180830381858888f19350505050151561177957600080fd5b8060010160009054906101000a900473ffffffffffffffffffffffffffffffffffffffff1673ffffffffffffffffffffffffffffffffffffffff166108fc82600201549081150290604051600060405180830381858888f1935050505015156117e157600080fd5b61182e565b8173ffffffffffffffffffffffffffffffffffffffff166108fc60028360020154029081150290604051600060405180830381858888f19350505050151561182d57600080fd5b5b60018160040160146101000a81548160ff021916908315150217905550818160040160006101000a81548173ffffffffffffffffffffffffffffffffffffffff021916908373ffffffffffffffffffffffffffffffffffffffff160217905550505050565b600043905090565b60e060405190810160405280600073ffffffffffffffffffffffffffffffffffffffff168152602001600073ffffffffffffffffffffffffffffffffffffffff16815260200160008152602001600073ffffffffffffffffffffffffffffffffffffffff168152602001600073ffffffffffffffffffffffffffffffffffffffff168152602001600015158152602001600081525090565b8154818355818115116119605760020281600202836000526020600020918201910161195f9190611a17565b5b505050565b828054600181600116156101000203166002900490600052602060002090601f016020900481019282601f106119a657805160ff19168380011785556119d4565b828001600101855582156119d4579182015b828111156119d35782518255916020019190600101906119b8565b5b5090506119e19190611a6d565b5090565b815481835581811511611a1257600602816006028360005260206000209182019101611a119190611a92565b5b505050565b611a6a91905b80821115611a6657600080820160006101000a81549073ffffffffffffffffffffffffffffffffffffffff0219169055600182016000611a5d9190611b71565b50600201611a1d565b5090565b90565b611a8f91905b80821115611a8b576000816000905550600101611a73565b5090565b90565b611b6e91905b80821115611b6a57600080820160006101000a81549073ffffffffffffffffffffffffffffffffffffffff02191690556001820160006101000a81549073ffffffffffffffffffffffffffffffffffffffff021916905560028201600090556003820160006101000a81549073ffffffffffffffffffffffffffffffffffffffff02191690556004820160006101000a81549073ffffffffffffffffffffffffffffffffffffffff02191690556004820160146101000a81549060ff0219169055600582016000905550600601611a98565b5090565b90565b50805460018160011615610100020316600290046000825580601f10611b975750611bb6565b601f016020900490600052602060002090810190611bb59190611a6d565b5b505600a165627a7a723058200454bad9543f5dc424f417c1390b0a94d8b275359625de73f8023fdfa66880400029",
  "source": "pragma solidity ^0.4.18;\n\nimport \"./Ownable.sol\";\nimport \"./ResolverInterface.sol\";\n\ncontract StakeManager is Ownable {\n\n\tstruct Channel {\n\t\taddress p1;\n\t\taddress p2;\n\t\tuint stake;\n\t\taddress resolver;\n\t\taddress winner;\n\t\tbool finished;\n\t\tuint resolveStart;\n\t}\n\n\tstruct ResolverStruct {\n\t\taddress resolverAddress;\n\t\tstring name;\n\t}\n\t\n\tuint constant MAX_OPEN_TIME = 500; // 500 blocks\n\t\n\tChannel[] public channels;\n\tResolverStruct[] public resolvers;\n\n\tfunction addResolver(string _name, address _resolverAddress) public onlyOwner returns(uint _resolverId) {\n\t\t\n\t\t_resolverId = resolvers.length;\n\t\tresolvers.length++;\n\n\t\tResolverStruct storage r = resolvers[_resolverId];\n\t\tr.name = _name;\n\t\tr.resolverAddress = _resolverAddress;\n\t}\n\t\n\n\tfunction openChannel(uint _resolverId) public payable returns(uint _channelId) {\n\n        _channelId = channels.length;\n        channels.length++;\n\n        Channel storage c = channels[_channelId];\n\t\tc.p1 = _currUser();\n\t\tc.stake = msg.value;\n\t\tc.resolver = resolvers[_resolverId].resolverAddress;\n\t}\n\n\tfunction joinChannel(uint _channelId) public payable {\n\t\trequire(_channelId < channels.length);\n\t\trequire(!_isActive(_channelId));\n\n\t\tChannel storage c = channels[_channelId];\n\t\t\n\t\trequire(c.stake <= msg.value);\n\n\t\tc.p2 = _currUser();\n\t}\n\n\t///@dev Maybe put contract address in state as well so cross contract reply attacks are prevented \n\t// state should be first 8 places for number as channelId and after that one number where 0-draw,1-p1 wins,2-p2 wins\n\t// for example \"000012340\"-this is channelId == 1234 and its a draw\n\tfunction fastClose(uint _channelId, \n\t\tbytes32 _h, \n\t\tuint8 _v, \n\t\tbytes32 _r, \n\t\tbytes32 _s, \n\t\tbytes _state) public {\n\n\t\trequire(_isActive(_channelId));\n\t\t\n\t\tChannel storage c = channels[_channelId];\n\n\t\taddress signer = _resolveRecover(_h, _v, _r, _s, _state);\n\t\taddress opponent = _getOtherPlayer(_channelId, _currUser());\n\n\t\tassert(signer == opponent);\n\n\t\tuint channelId;\n\t\tuint winner;\n\n\t\t(channelId, winner) = _getState(_state);\n\n\t\tassert(_channelId == channelId);\n\n\t\t_closeChannel(_channelId, winner == 0 ? 0x0 : (winner == 1 ? c.p1 : c.p2));\n\t}\n\n\tfunction disputeMove(uint _channelId, \n\t\tbytes32[2] _h, \n\t\tuint8[2] _v, \n\t\tbytes32[2] _r, \n\t\tbytes32[2] _s,\n\t\tbytes _state1,\n\t\tbytes _state2\n\t\t) public {\n\t\t\n\t\trequire(_isActive(_channelId));\n\n\t\tChannel storage c = channels[_channelId];\n\n\t\taddress signer = _resolveRecover(_h[0], _v[0], _r[0], _s[0], _state1);\n\t\taddress signer2 = _resolveRecover(_h[1], _v[1], _r[1], _s[1], _state2);\n\n        // both moves must be signed by other player\n        assert(signer == signer2);\n        assert(signer == _getOtherPlayer(_channelId, _currUser()));\n\n        if (ResolverInterface(c.resolver).resolve(_state1, _state2)) {\n        \t_closeChannel(_channelId, _getOtherPlayer(_channelId, _currUser()));\n        }\n\t}\n\n\tfunction _getWinner(uint _channelId, bytes _state) private view returns(address _winner) {\n\t\tChannel memory c = channels[_channelId];\n\n\t\tbool p1winner = ResolverInterface(c.resolver).isWinner(_state, _getSign(_channelId, c.p1));\n\t\tbool p2winner = ResolverInterface(c.resolver).isWinner(_state, _getSign(_channelId, c.p2));\n\n\t\t// its not possible that both players win\n\t\tassert(!(p1winner == p2winner && p1winner));\n\n\t\t//if its both false then _winner is 0x0 else if p1winner then p1 else p2\n\t\t_winner = (p1winner == p2winner) ? 0x0 : (p1winner ? c.p1 : c.p2);\n\t}\n\n\tfunction closeTimeoutedChannel(uint _channelId) public {\n\t\tChannel memory c = channels[_channelId];\n\n\t\trequire(_isActive(_channelId));\n\t\trequire(!c.finished);\n\t\trequire(c.resolveStart + MAX_OPEN_TIME < _currBlock());\n\n\t\tif (c.winner == 0x0) {\n\t\t\towner.transfer(c.stake * 2);\n\t\t} else {\n\t\t\tc.winner.transfer(c.stake * 2);\n\t\t}\n\t}\n\n\tfunction _closeChannel(uint _channelId, address _winner) private {\n\t\trequire (_isActive(_channelId));\n\n\t\tChannel storage c = channels[_channelId];\n\n\t\tif (_winner == 0x0) {\n\t\t\tc.p1.transfer(c.stake);\n\t\t\tc.p2.transfer(c.stake);\n\t\t} else {\n\t\t\t_winner.transfer(c.stake * 2);\n\t\t}\n\n\t\tc.finished = true;\n\t\tc.winner = _winner;\n\t}\n\t\n\n\tfunction _getSign(uint _channelId, address _player) private view returns(uint _sign) {\n\t\t\n\t\tif (channels[_channelId].p1 == _player) {\n\t\t\t_sign = 1;\n\t\t} else {\n\t\t\t_sign = 2;\n\t\t}\n\t}\n\n\tfunction _getState(bytes _state) private pure returns(uint _channelId, uint _winner) {\n\n        for (uint i=8; i>0; i--){\n            byte t;\n            assembly {\n                t := mload(add(_state, add(32, sub(8, i))))\n            }\n            uint8 num = uint8(t) - 48;\n            _channelId = _channelId*10+num;\n        }\n        \n        byte winner;\n        assembly {\n            winner := mload(add(_state, 40))\n        }\n\n        _winner = uint8(winner) - 48;\n        \n        assert(_winner < 3);\n\t}\n\n\tfunction _resolveRecover(bytes32 _h, uint8 _v, bytes32 _r, bytes32 _s, bytes _currState) private pure returns(address _signer) {\n\t\tbytes32 proof = keccak256(_currState);\n\t\tassert(proof == _h);\n\n\t\t_signer = ecrecover(_h, _v, _r, _s);\n\t}\n\t\n\tfunction nChannel() public view returns(uint _n) {\n\t    _n = channels.length;\n\t}\n\t\n\tfunction _isActive(uint _channelId) private view returns(bool _active) {\n\t\n\t\t_active = (channels[_channelId].p1 != 0x0) && (channels[_channelId].p2 != 0x0) && !channels[_channelId].finished;\n\t}\n\n\tfunction _getOtherPlayer(uint _channelId, address _player) private view returns(address _otherPlayer) {\n\t\t_otherPlayer = (channels[_channelId].p1 == _player) ? channels[_channelId].p2 : channels[_channelId].p1;  \n\t}\n\n\tfunction _currUser() private view returns(address currUser) {\n\t\tcurrUser = msg.sender;\n\t}\n\n\tfunction _currBlock() private view returns(uint currBlock) {\n\t\tcurrBlock = block.number;\n\t}\n}",
  "sourcePath": "/Users/nikolaklipa/Decenter/StateChannels/solidity/contracts/StakeManager.sol",
  "compiler": {
    "name": "solc",
    "version": "0.4.18+commit.9cf6e910.Emscripten.clang"
  },
  "schemaVersion": "1.0.1",
  "updatedAt": "2018-03-26T10:39:30.319Z"
}