{
  "contractName": "StakeManager",
  "abi": [
    {
      "constant": true,
      "inputs": [
        {
          "name": "hash",
          "type": "bytes32"
        },
        {
          "name": "sig",
          "type": "bytes"
        }
      ],
      "name": "recover",
      "outputs": [
        {
          "name": "",
          "type": "address"
        }
      ],
      "payable": false,
      "stateMutability": "pure",
      "type": "function"
    },
    {
      "constant": true,
      "inputs": [
        {
          "name": "_msg",
          "type": "bytes32"
        },
        {
          "name": "sig",
          "type": "bytes"
        }
      ],
      "name": "prefixedRecover",
      "outputs": [
        {
          "name": "",
          "type": "address"
        }
      ],
      "payable": false,
      "stateMutability": "pure",
      "type": "function"
    },
    {
      "constant": true,
      "inputs": [],
      "name": "owner",
      "outputs": [
        {
          "name": "",
          "type": "address"
        }
      ],
      "payable": false,
      "stateMutability": "view",
      "type": "function"
    },
    {
      "constant": true,
      "inputs": [
        {
          "name": "",
          "type": "uint256"
        }
      ],
      "name": "resolvers",
      "outputs": [
        {
          "name": "resolverAddress",
          "type": "address"
        },
        {
          "name": "name",
          "type": "string"
        }
      ],
      "payable": false,
      "stateMutability": "view",
      "type": "function"
    },
    {
      "constant": true,
      "inputs": [
        {
          "name": "",
          "type": "uint256"
        }
      ],
      "name": "channels",
      "outputs": [
        {
          "name": "p1",
          "type": "address"
        },
        {
          "name": "p2",
          "type": "address"
        },
        {
          "name": "stake",
          "type": "uint256"
        },
        {
          "name": "resolver",
          "type": "address"
        },
        {
          "name": "winner",
          "type": "address"
        },
        {
          "name": "finished",
          "type": "bool"
        },
        {
          "name": "resolveStart",
          "type": "uint256"
        },
        {
          "name": "timeoutChallenger",
          "type": "address"
        },
        {
          "name": "lastState",
          "type": "bytes"
        }
      ],
      "payable": false,
      "stateMutability": "view",
      "type": "function"
    },
    {
      "constant": false,
      "inputs": [
        {
          "name": "newOwner",
          "type": "address"
        }
      ],
      "name": "transferOwnership",
      "outputs": [],
      "payable": false,
      "stateMutability": "nonpayable",
      "type": "function"
    },
    {
      "constant": true,
      "inputs": [
        {
          "name": "_msg",
          "type": "bytes32"
        }
      ],
      "name": "toEthereumSignedMessage",
      "outputs": [
        {
          "name": "",
          "type": "bytes32"
        }
      ],
      "payable": false,
      "stateMutability": "pure",
      "type": "function"
    },
    {
      "anonymous": false,
      "inputs": [
        {
          "indexed": false,
          "name": "_channelId",
          "type": "uint256"
        },
        {
          "indexed": false,
          "name": "_winner",
          "type": "address"
        },
        {
          "indexed": false,
          "name": "_stake",
          "type": "uint256"
        },
        {
          "indexed": false,
          "name": "_type",
          "type": "uint256"
        }
      ],
      "name": "MatchOutcome",
      "type": "event"
    },
    {
      "anonymous": false,
      "inputs": [
        {
          "indexed": false,
          "name": "_channelId",
          "type": "uint256"
        },
        {
          "indexed": false,
          "name": "_challenger",
          "type": "address"
        }
      ],
      "name": "ChallengeTimeoutStarted",
      "type": "event"
    },
    {
      "anonymous": false,
      "inputs": [
        {
          "indexed": false,
          "name": "_channelId",
          "type": "uint256"
        },
        {
          "indexed": false,
          "name": "_responder",
          "type": "address"
        }
      ],
      "name": "ChallengeTimeoutAnswered",
      "type": "event"
    },
    {
      "anonymous": false,
      "inputs": [
        {
          "indexed": false,
          "name": "signer",
          "type": "address"
        },
        {
          "indexed": false,
          "name": "opponent",
          "type": "address"
        }
      ],
      "name": "Test",
      "type": "event"
    },
    {
      "anonymous": false,
      "inputs": [
        {
          "indexed": true,
          "name": "previousOwner",
          "type": "address"
        },
        {
          "indexed": true,
          "name": "newOwner",
          "type": "address"
        }
      ],
      "name": "OwnershipTransferred",
      "type": "event"
    },
    {
      "constant": false,
      "inputs": [
        {
          "name": "_name",
          "type": "string"
        },
        {
          "name": "_resolverAddress",
          "type": "address"
        }
      ],
      "name": "addResolver",
      "outputs": [
        {
          "name": "_resolverId",
          "type": "uint256"
        }
      ],
      "payable": false,
      "stateMutability": "nonpayable",
      "type": "function"
    },
    {
      "constant": false,
      "inputs": [
        {
          "name": "_resolverId",
          "type": "uint256"
        },
        {
          "name": "_signAddress",
          "type": "address"
        }
      ],
      "name": "openChannel",
      "outputs": [
        {
          "name": "_channelId",
          "type": "uint256"
        }
      ],
      "payable": true,
      "stateMutability": "payable",
      "type": "function"
    },
    {
      "constant": false,
      "inputs": [
        {
          "name": "_channelId",
          "type": "uint256"
        },
        {
          "name": "_signAddress",
          "type": "address"
        }
      ],
      "name": "joinChannel",
      "outputs": [],
      "payable": true,
      "stateMutability": "payable",
      "type": "function"
    },
    {
      "constant": false,
      "inputs": [
        {
          "name": "_channelId",
          "type": "uint256"
        },
        {
          "name": "_h",
          "type": "bytes32"
        },
        {
          "name": "sig",
          "type": "bytes"
        },
        {
          "name": "_state",
          "type": "bytes"
        }
      ],
      "name": "fastClose",
      "outputs": [],
      "payable": false,
      "stateMutability": "nonpayable",
      "type": "function"
    },
    {
      "constant": false,
      "inputs": [
        {
          "name": "_channelId",
          "type": "uint256"
        },
        {
          "name": "_h",
          "type": "bytes32[2]"
        },
        {
          "name": "_sig1",
          "type": "bytes"
        },
        {
          "name": "_sig2",
          "type": "bytes"
        },
        {
          "name": "_state1",
          "type": "bytes"
        },
        {
          "name": "_state2",
          "type": "bytes"
        }
      ],
      "name": "disputeMove",
      "outputs": [],
      "payable": false,
      "stateMutability": "nonpayable",
      "type": "function"
    },
    {
      "constant": false,
      "inputs": [
        {
          "name": "_channelId",
          "type": "uint256"
        },
        {
          "name": "_h",
          "type": "bytes32[2]"
        },
        {
          "name": "_sig1",
          "type": "bytes"
        },
        {
          "name": "_sig2",
          "type": "bytes"
        },
        {
          "name": "_state1",
          "type": "bytes"
        },
        {
          "name": "_state2",
          "type": "bytes"
        }
      ],
      "name": "challengeTimeout",
      "outputs": [],
      "payable": false,
      "stateMutability": "nonpayable",
      "type": "function"
    },
    {
      "constant": false,
      "inputs": [
        {
          "name": "_channelId",
          "type": "uint256"
        },
        {
          "name": "_h",
          "type": "bytes32[2]"
        },
        {
          "name": "_sig1",
          "type": "bytes"
        },
        {
          "name": "_sig2",
          "type": "bytes"
        },
        {
          "name": "_state1",
          "type": "bytes"
        },
        {
          "name": "_state2",
          "type": "bytes"
        }
      ],
      "name": "challengeResponse",
      "outputs": [],
      "payable": false,
      "stateMutability": "nonpayable",
      "type": "function"
    },
    {
      "constant": false,
      "inputs": [
        {
          "name": "_channelId",
          "type": "uint256"
        }
      ],
      "name": "closeTimeoutedChannel",
      "outputs": [],
      "payable": false,
      "stateMutability": "nonpayable",
      "type": "function"
    },
    {
      "constant": true,
      "inputs": [],
      "name": "nChannel",
      "outputs": [
        {
          "name": "_n",
          "type": "uint256"
        }
      ],
      "payable": false,
      "stateMutability": "view",
      "type": "function"
    }
  ],
  "bytecode": "0x6080604052336000806101000a81548173ffffffffffffffffffffffffffffffffffffffff021916908373ffffffffffffffffffffffffffffffffffffffff160217905550613b96806100536000396000f3006080604052600436106100e6576000357c0100000000000000000000000000000000000000000000000000000000900463ffffffff16806319045a25146100eb578063201687a8146101a257806335f7793814610316578063380388f1146103415780633cf2ec6e146103f857806353d785ab1461056c57806354398494146105c05780635b5df5d0146107345780638da5cb5b146107fb578063a5d21a9814610852578063b158fd5c1461087f578063c30b83a114610958578063ca288bf9146109f5578063e5949b5d14610a35578063f2fde38b14610bf3578063fc960e1514610c36575b600080fd5b3480156100f757600080fd5b506101606004803603810190808035600019169060200190929190803590602001908201803590602001908080601f0160208091040260200160405190810160405280939291908181526020018383808284378201915050505050509192919290505050610c83565b604051808273ffffffffffffffffffffffffffffffffffffffff1673ffffffffffffffffffffffffffffffffffffffff16815260200191505060405180910390f35b3480156101ae57600080fd5b50610314600480360381019080803590602001909291908060400190600280602002604051908101604052809291908260026020028082843782019150505050509192919290803590602001908201803590602001908080601f0160208091040260200160405190810160405280939291908181526020018383808284378201915050505050509192919290803590602001908201803590602001908080601f0160208091040260200160405190810160405280939291908181526020018383808284378201915050505050509192919290803590602001908201803590602001908080601f0160208091040260200160405190810160405280939291908181526020018383808284378201915050505050509192919290803590602001908201803590602001908080601f0160208091040260200160405190810160405280939291908181526020018383808284378201915050505050509192919290505050610d7b565b005b34801561032257600080fd5b5061032b6113b1565b6040518082815260200191505060405180910390f35b34801561034d57600080fd5b506103b66004803603810190808035600019169060200190929190803590602001908201803590602001908080601f01602080910402602001604051908101604052809392919081815260200183838082843782019150505050505091929192905050506113be565b604051808273ffffffffffffffffffffffffffffffffffffffff1673ffffffffffffffffffffffffffffffffffffffff16815260200191505060405180910390f35b34801561040457600080fd5b5061056a600480360381019080803590602001909291908060400190600280602002604051908101604052809291908260026020028082843782019150505050509192919290803590602001908201803590602001908080601f0160208091040260200160405190810160405280939291908181526020018383808284378201915050505050509192919290803590602001908201803590602001908080601f0160208091040260200160405190810160405280939291908181526020018383808284378201915050505050509192919290803590602001908201803590602001908080601f0160208091040260200160405190810160405280939291908181526020018383808284378201915050505050509192919290803590602001908201803590602001908080601f01602080910402602001604051908101604052809392919081815260200183838082843782019150505050505091929192905050506113df565b005b6105aa60048036038101908080359060200190929190803573ffffffffffffffffffffffffffffffffffffffff169060200190929190505050611949565b6040518082815260200191505060405180910390f35b3480156105cc57600080fd5b50610732600480360381019080803590602001909291908060400190600280602002604051908101604052809291908260026020028082843782019150505050509192919290803590602001908201803590602001908080601f0160208091040260200160405190810160405280939291908181526020018383808284378201915050505050509192919290803590602001908201803590602001908080601f0160208091040260200160405190810160405280939291908181526020018383808284378201915050505050509192919290803590602001908201803590602001908080601f0160208091040260200160405190810160405280939291908181526020018383808284378201915050505050509192919290803590602001908201803590602001908080601f0160208091040260200160405190810160405280939291908181526020018383808284378201915050505050509192919290505050611adc565b005b34801561074057600080fd5b506107f9600480360381019080803590602001909291908035600019169060200190929190803590602001908201803590602001908080601f0160208091040260200160405190810160405280939291908181526020018383808284378201915050505050509192919290803590602001908201803590602001908080601f01602080910402602001604051908101604052809392919081815260200183838082843782019150505050505091929192905050506121bc565b005b34801561080757600080fd5b506108106126ac565b604051808273ffffffffffffffffffffffffffffffffffffffff1673ffffffffffffffffffffffffffffffffffffffff16815260200191505060405180910390f35b34801561085e57600080fd5b5061087d600480360381019080803590602001909291905050506126d1565b005b34801561088b57600080fd5b506108aa60048036038101908080359060200190929190505050612a6f565b604051808373ffffffffffffffffffffffffffffffffffffffff1673ffffffffffffffffffffffffffffffffffffffff16815260200180602001828103825283818151815260200191508051906020019080838360005b8381101561091c578082015181840152602081019050610901565b50505050905090810190601f1680156109495780820380516001836020036101000a031916815260200191505b50935050505060405180910390f35b34801561096457600080fd5b506109df600480360381019080803590602001908201803590602001908080601f0160208091040260200160405190810160405280939291908181526020018383808284378201915050505050509192919290803573ffffffffffffffffffffffffffffffffffffffff169060200190929190505050612b5a565b6040518082815260200191505060405180910390f35b610a3360048036038101908080359060200190929190803573ffffffffffffffffffffffffffffffffffffffff169060200190929190505050612c57565b005b348015610a4157600080fd5b50610a6060048036038101908080359060200190929190505050612d79565b604051808a73ffffffffffffffffffffffffffffffffffffffff1673ffffffffffffffffffffffffffffffffffffffff1681526020018973ffffffffffffffffffffffffffffffffffffffff1673ffffffffffffffffffffffffffffffffffffffff1681526020018881526020018773ffffffffffffffffffffffffffffffffffffffff1673ffffffffffffffffffffffffffffffffffffffff1681526020018673ffffffffffffffffffffffffffffffffffffffff1673ffffffffffffffffffffffffffffffffffffffff168152602001851515151581526020018481526020018373ffffffffffffffffffffffffffffffffffffffff1673ffffffffffffffffffffffffffffffffffffffff16815260200180602001828103825283818151815260200191508051906020019080838360005b83811015610bb0578082015181840152602081019050610b95565b50505050905090810190601f168015610bdd5780820380516001836020036101000a031916815260200191505b509a505050505050505050505060405180910390f35b348015610bff57600080fd5b50610c34600480360381019080803573ffffffffffffffffffffffffffffffffffffffff169060200190929190505050612f1b565b005b348015610c4257600080fd5b50610c656004803603810190808035600019169060200190929190505050613070565b60405180826000191660001916815260200191505060405180910390f35b60008060008060418551141515610c9d5760009350610d72565b6020850151925060408501519150606085015160001a9050601b8160ff161015610cc857601b810190505b601b8160ff1614158015610ce05750601c8160ff1614155b15610cee5760009350610d72565b600186828585604051600081526020016040526040518085600019166000191681526020018460ff1660ff1681526020018360001916600019168152602001826000191660001916815260200194505050505060206040516020810390808403906000865af1158015610d65573d6000803e3d6000fd5b5050506020604051035193505b50505092915050565b6000806000806000610d8c8b613193565b1515610d9757600080fd5b60018b815481101515610da657fe5b906000526020600020906008020160000160009054906101000a900473ffffffffffffffffffffffffffffffffffffffff1673ffffffffffffffffffffffffffffffffffffffff163373ffffffffffffffffffffffffffffffffffffffff161480610e7c575060018b815481101515610e1b57fe5b906000526020600020906008020160010160009054906101000a900473ffffffffffffffffffffffffffffffffffffffff1673ffffffffffffffffffffffffffffffffffffffff163373ffffffffffffffffffffffffffffffffffffffff16145b1515610e8757600080fd5b60018b815481101515610e9657fe5b9060005260206000209060080201945060008560050154111515610eb957600080fd5b3373ffffffffffffffffffffffffffffffffffffffff168560060160009054906101000a900473ffffffffffffffffffffffffffffffffffffffff1673ffffffffffffffffffffffffffffffffffffffff1614151515610f1857600080fd5b866040518082805190602001908083835b602083101515610f4e5780518252602082019150602081019050602083039250610f29565b6001836020036101000a038019825116818451168082178552505050505050905001915050604051809103902060001916856007016040518082805460018160011615610100020316600290048015610fde5780601f10610fbc576101008083540402835291820191610fde565b820191906000526020600020905b815481529060010190602001808311610fca575b5050915050604051809103902060001916141515610ffb57600080fd5b6110198a600060028110151561100d57fe5b60200201518a89613290565b93506110398a600160028110151561102d57fe5b60200201518988613290565b92508273ffffffffffffffffffffffffffffffffffffffff168473ffffffffffffffffffffffffffffffffffffffff161480156110a9575061107a3361331a565b73ffffffffffffffffffffffffffffffffffffffff168473ffffffffffffffffffffffffffffffffffffffff16145b15156110b457600080fd5b8460030160009054906101000a900473ffffffffffffffffffffffffffffffffffffffff1673ffffffffffffffffffffffffffffffffffffffff166342cf2f81886040518263ffffffff167c01000000000000000000000000000000000000000000000000000000000281526004018080602001828103825283818151815260200191508051906020019080838360005b83811015611160578082015181840152602081019050611145565b50505050905090810190601f16801561118d5780820380516001836020036101000a031916815260200191505b5092505050602060405180830381600087803b1580156111ac57600080fd5b505af11580156111c0573d6000803e3d6000fd5b505050506040513d60208110156111d657600080fd5b810190808051906020019092919050505091508460030160009054906101000a900473ffffffffffffffffffffffffffffffffffffffff1673ffffffffffffffffffffffffffffffffffffffff166342cf2f81876040518263ffffffff167c01000000000000000000000000000000000000000000000000000000000281526004018080602001828103825283818151815260200191508051906020019080838360005b8381101561129557808201518184015260208101905061127a565b50505050905090810190601f1680156112c25780820380516001836020036101000a031916815260200191505b5092505050602060405180830381600087803b1580156112e157600080fd5b505af11580156112f5573d6000803e3d6000fd5b505050506040513d602081101561130b57600080fd5b81019080805190602001909291905050509050806001830114151561132f57600080fd5b600085600501819055507fa685092ff9bff3cbd7e56025aa920ad9c6899526ab899baa6b4c56d77c6dd27c8b33604051808381526020018273ffffffffffffffffffffffffffffffffffffffff1673ffffffffffffffffffffffffffffffffffffffff1681526020019250505060405180910390a15050505050505050505050565b6000600180549050905090565b6000806113ca84613070565b90506113d68184610c83565b91505092915050565b60008060008060006113f08b613193565b15156113fb57600080fd5b60018b81548110151561140a57fe5b906000526020600020906008020160000160009054906101000a900473ffffffffffffffffffffffffffffffffffffffff1673ffffffffffffffffffffffffffffffffffffffff163373ffffffffffffffffffffffffffffffffffffffff1614806114e0575060018b81548110151561147f57fe5b906000526020600020906008020160010160009054906101000a900473ffffffffffffffffffffffffffffffffffffffff1673ffffffffffffffffffffffffffffffffffffffff163373ffffffffffffffffffffffffffffffffffffffff16145b15156114eb57600080fd5b60018b8154811015156114fa57fe5b906000526020600020906008020194506000856005015414151561151d57600080fd5b61153b8a600060028110151561152f57fe5b60200201518a89613290565b935061155b8a600160028110151561154f57fe5b60200201518988613290565b92508460030160009054906101000a900473ffffffffffffffffffffffffffffffffffffffff1673ffffffffffffffffffffffffffffffffffffffff166342cf2f81886040518263ffffffff167c01000000000000000000000000000000000000000000000000000000000281526004018080602001828103825283818151815260200191508051906020019080838360005b838110156116095780820151818401526020810190506115ee565b50505050905090810190601f1680156116365780820380516001836020036101000a031916815260200191505b5092505050602060405180830381600087803b15801561165557600080fd5b505af1158015611669573d6000803e3d6000fd5b505050506040513d602081101561167f57600080fd5b810190808051906020019092919050505091508460030160009054906101000a900473ffffffffffffffffffffffffffffffffffffffff1673ffffffffffffffffffffffffffffffffffffffff166342cf2f81876040518263ffffffff167c01000000000000000000000000000000000000000000000000000000000281526004018080602001828103825283818151815260200191508051906020019080838360005b8381101561173e578082015181840152602081019050611723565b50505050905090810190601f16801561176b5780820380516001836020036101000a031916815260200191505b5092505050602060405180830381600087803b15801561178a57600080fd5b505af115801561179e573d6000803e3d6000fd5b505050506040513d60208110156117b457600080fd5b8101908080519060200190929190505050905080600183011415156117d857600080fd5b6117ea6117e58c33613383565b61331a565b73ffffffffffffffffffffffffffffffffffffffff168473ffffffffffffffffffffffffffffffffffffffff1614151561182357600080fd5b61182c3361331a565b73ffffffffffffffffffffffffffffffffffffffff168373ffffffffffffffffffffffffffffffffffffffff1614151561186557600080fd5b338560060160006101000a81548173ffffffffffffffffffffffffffffffffffffffff021916908373ffffffffffffffffffffffffffffffffffffffff160217905550858560070190805190602001906118c0929190613728565b506118c9613488565b85600501819055507f8dd798b61447db3ec6ebbe8c9a45cdb37bb88ffdae07f2e05c4975c66fb2d2e78b33604051808381526020018273ffffffffffffffffffffffffffffffffffffffff1673ffffffffffffffffffffffffffffffffffffffff1681526020019250505060405180910390a15050505050505050505050565b60008060018054905091506001805480919060010161196891906137a8565b5082600360003373ffffffffffffffffffffffffffffffffffffffff1673ffffffffffffffffffffffffffffffffffffffff16815260200190815260200160002060006101000a81548173ffffffffffffffffffffffffffffffffffffffff021916908373ffffffffffffffffffffffffffffffffffffffff1602179055506001828154811015156119f657fe5b90600052602060002090600802019050338160000160006101000a81548173ffffffffffffffffffffffffffffffffffffffff021916908373ffffffffffffffffffffffffffffffffffffffff160217905550348160020181905550600284815481101515611a6157fe5b906000526020600020906002020160000160009054906101000a900473ffffffffffffffffffffffffffffffffffffffff168160030160006101000a81548173ffffffffffffffffffffffffffffffffffffffff021916908373ffffffffffffffffffffffffffffffffffffffff1602179055505092915050565b611ae46137da565b6000806000611af28a613193565b1515611afd57600080fd5b60018a815481101515611b0c57fe5b906000526020600020906008020161012060405190810160405290816000820160009054906101000a900473ffffffffffffffffffffffffffffffffffffffff1673ffffffffffffffffffffffffffffffffffffffff1673ffffffffffffffffffffffffffffffffffffffff1681526020016001820160009054906101000a900473ffffffffffffffffffffffffffffffffffffffff1673ffffffffffffffffffffffffffffffffffffffff1673ffffffffffffffffffffffffffffffffffffffff168152602001600282015481526020016003820160009054906101000a900473ffffffffffffffffffffffffffffffffffffffff1673ffffffffffffffffffffffffffffffffffffffff1673ffffffffffffffffffffffffffffffffffffffff1681526020016004820160009054906101000a900473ffffffffffffffffffffffffffffffffffffffff1673ffffffffffffffffffffffffffffffffffffffff1673ffffffffffffffffffffffffffffffffffffffff1681526020016004820160149054906101000a900460ff16151515158152602001600582015481526020016006820160009054906101000a900473ffffffffffffffffffffffffffffffffffffffff1673ffffffffffffffffffffffffffffffffffffffff1673ffffffffffffffffffffffffffffffffffffffff168152602001600782018054600181600116156101000203166002900480601f016020809104026020016040519081016040528092919081815260200182805460018160011615610100020316600290048015611d9d5780601f10611d7257610100808354040283529160200191611d9d565b820191906000526020600020905b815481529060010190602001808311611d8057829003601f168201915b5050505050815250509350611dc6896000600281101515611dba57fe5b60200201518988613290565b9250611de6896001600281101515611dda57fe5b60200201518887613290565b9150611df28a33613383565b90507f7b1552a0e55cb4bed1d019e97a53783567f2ad67d79f1ebe4f2ecd868aed295e83611e1f8361331a565b604051808373ffffffffffffffffffffffffffffffffffffffff1673ffffffffffffffffffffffffffffffffffffffff1681526020018273ffffffffffffffffffffffffffffffffffffffff1673ffffffffffffffffffffffffffffffffffffffff1681526020019250505060405180910390a1611e9c8161331a565b73ffffffffffffffffffffffffffffffffffffffff168273ffffffffffffffffffffffffffffffffffffffff16141515611ed257fe5b611edb8161331a565b73ffffffffffffffffffffffffffffffffffffffff168373ffffffffffffffffffffffffffffffffffffffff16141515611f1157fe5b836060015173ffffffffffffffffffffffffffffffffffffffff16639061b92387876040518363ffffffff167c0100000000000000000000000000000000000000000000000000000000028152600401808060200180602001838103835285818151815260200191508051906020019080838360005b83811015611fa2578082015181840152602081019050611f87565b50505050905090810190601f168015611fcf5780820380516001836020036101000a031916815260200191505b50838103825284818151815260200191508051906020019080838360005b83811015612008578082015181840152602081019050611fed565b50505050905090810190601f1680156120355780820380516001836020036101000a031916815260200191505b50945050505050602060405180830381600087803b15801561205657600080fd5b505af115801561206a573d6000803e3d6000fd5b505050506040513d602081101561208057600080fd5b810190808051906020019092919050505015612125576120a08a82613490565b7fb4a68eb032e74b632b1df8af3826c7aa7b93ef5eff76449153e96af5ba3d7feb8a8286604001516001604051808581526020018473ffffffffffffffffffffffffffffffffffffffff1673ffffffffffffffffffffffffffffffffffffffff16815260200183815260200182815260200194505050505060405180910390a16121b0565b61212f8a33613490565b7fb4a68eb032e74b632b1df8af3826c7aa7b93ef5eff76449153e96af5ba3d7feb8a3386604001516001604051808581526020018473ffffffffffffffffffffffffffffffffffffffff1673ffffffffffffffffffffffffffffffffffffffff16815260200183815260200182815260200194505050505060405180910390a15b50505050505050505050565b6121c46137da565b6000806000806121d389613193565b15156121de57600080fd5b6001898154811015156121ed57fe5b906000526020600020906008020160000160009054906101000a900473ffffffffffffffffffffffffffffffffffffffff1673ffffffffffffffffffffffffffffffffffffffff163373ffffffffffffffffffffffffffffffffffffffff1614806122c3575060018981548110151561226257fe5b906000526020600020906008020160010160009054906101000a900473ffffffffffffffffffffffffffffffffffffffff1673ffffffffffffffffffffffffffffffffffffffff163373ffffffffffffffffffffffffffffffffffffffff16145b15156122ce57600080fd5b6001898154811015156122dd57fe5b906000526020600020906008020161012060405190810160405290816000820160009054906101000a900473ffffffffffffffffffffffffffffffffffffffff1673ffffffffffffffffffffffffffffffffffffffff1673ffffffffffffffffffffffffffffffffffffffff1681526020016001820160009054906101000a900473ffffffffffffffffffffffffffffffffffffffff1673ffffffffffffffffffffffffffffffffffffffff1673ffffffffffffffffffffffffffffffffffffffff168152602001600282015481526020016003820160009054906101000a900473ffffffffffffffffffffffffffffffffffffffff1673ffffffffffffffffffffffffffffffffffffffff1673ffffffffffffffffffffffffffffffffffffffff1681526020016004820160009054906101000a900473ffffffffffffffffffffffffffffffffffffffff1673ffffffffffffffffffffffffffffffffffffffff1673ffffffffffffffffffffffffffffffffffffffff1681526020016004820160149054906101000a900460ff16151515158152602001600582015481526020016006820160009054906101000a900473ffffffffffffffffffffffffffffffffffffffff1673ffffffffffffffffffffffffffffffffffffffff1673ffffffffffffffffffffffffffffffffffffffff168152602001600782018054600181600116156101000203166002900480601f01602080910402602001604051908101604052809291908181526020018280546001816001161561010002031660029004801561256e5780601f106125435761010080835404028352916020019161256e565b820191906000526020600020905b81548152906001019060200180831161255157829003601f168201915b5050505050815250509450612584888888613290565b93508373ffffffffffffffffffffffffffffffffffffffff166125af6125aa8b33613383565b61331a565b73ffffffffffffffffffffffffffffffffffffffff161415156125d157600080fd5b6125da8661367b565b809350819450505082891415156125ed57fe5b60008214612612576001821461260757846020015161260d565b84600001515b612615565b60005b90506126218982613490565b7fb4a68eb032e74b632b1df8af3826c7aa7b93ef5eff76449153e96af5ba3d7feb898287604001516000604051808581526020018473ffffffffffffffffffffffffffffffffffffffff1673ffffffffffffffffffffffffffffffffffffffff16815260200183815260200182815260200194505050505060405180910390a1505050505050505050565b6000809054906101000a900473ffffffffffffffffffffffffffffffffffffffff1681565b6126d96137da565b6001828154811015156126e857fe5b906000526020600020906008020161012060405190810160405290816000820160009054906101000a900473ffffffffffffffffffffffffffffffffffffffff1673ffffffffffffffffffffffffffffffffffffffff1673ffffffffffffffffffffffffffffffffffffffff1681526020016001820160009054906101000a900473ffffffffffffffffffffffffffffffffffffffff1673ffffffffffffffffffffffffffffffffffffffff1673ffffffffffffffffffffffffffffffffffffffff168152602001600282015481526020016003820160009054906101000a900473ffffffffffffffffffffffffffffffffffffffff1673ffffffffffffffffffffffffffffffffffffffff1673ffffffffffffffffffffffffffffffffffffffff1681526020016004820160009054906101000a900473ffffffffffffffffffffffffffffffffffffffff1673ffffffffffffffffffffffffffffffffffffffff1673ffffffffffffffffffffffffffffffffffffffff1681526020016004820160149054906101000a900460ff16151515158152602001600582015481526020016006820160009054906101000a900473ffffffffffffffffffffffffffffffffffffffff1673ffffffffffffffffffffffffffffffffffffffff1673ffffffffffffffffffffffffffffffffffffffff168152602001600782018054600181600116156101000203166002900480601f0160208091040260200160405190810160405280929190818152602001828054600181600116156101000203166002900480156129795780601f1061294e57610100808354040283529160200191612979565b820191906000526020600020905b81548152906001019060200180831161295c57829003601f168201915b505050505081525050905061298d82613193565b151561299857600080fd5b8060a001511515156129a957600080fd5b60008160c001511115156129bc57600080fd5b6129c4613488565b6101f48260c00151011015156129d957600080fd5b6129e7828260e00151613490565b7fb4a68eb032e74b632b1df8af3826c7aa7b93ef5eff76449153e96af5ba3d7feb828260e0015183604001516001604051808581526020018473ffffffffffffffffffffffffffffffffffffffff1673ffffffffffffffffffffffffffffffffffffffff16815260200183815260200182815260200194505050505060405180910390a15050565b600281815481101515612a7e57fe5b90600052602060002090600202016000915090508060000160009054906101000a900473ffffffffffffffffffffffffffffffffffffffff1690806001018054600181600116156101000203166002900480601f016020809104026020016040519081016040528092919081815260200182805460018160011615610100020316600290048015612b505780601f10612b2557610100808354040283529160200191612b50565b820191906000526020600020905b815481529060010190602001808311612b3357829003601f168201915b5050505050905082565b6000806000809054906101000a900473ffffffffffffffffffffffffffffffffffffffff1673ffffffffffffffffffffffffffffffffffffffff163373ffffffffffffffffffffffffffffffffffffffff16141515612bb857600080fd5b600280549050915060028054809190600101612bd49190613897565b50600282815481101515612be457fe5b9060005260206000209060020201905083816001019080519060200190612c0c9291906138c9565b50828160000160006101000a81548173ffffffffffffffffffffffffffffffffffffffff021916908373ffffffffffffffffffffffffffffffffffffffff1602179055505092915050565b600060018054905083101515612c6c57600080fd5b612c7583613193565b151515612c8157600080fd5b81600360003373ffffffffffffffffffffffffffffffffffffffff1673ffffffffffffffffffffffffffffffffffffffff16815260200190815260200160002060006101000a81548173ffffffffffffffffffffffffffffffffffffffff021916908373ffffffffffffffffffffffffffffffffffffffff160217905550600183815481101515612d0e57fe5b9060005260206000209060080201905034816002015411151515612d3157600080fd5b338160010160006101000a81548173ffffffffffffffffffffffffffffffffffffffff021916908373ffffffffffffffffffffffffffffffffffffffff160217905550505050565b600181815481101515612d8857fe5b90600052602060002090600802016000915090508060000160009054906101000a900473ffffffffffffffffffffffffffffffffffffffff16908060010160009054906101000a900473ffffffffffffffffffffffffffffffffffffffff16908060020154908060030160009054906101000a900473ffffffffffffffffffffffffffffffffffffffff16908060040160009054906101000a900473ffffffffffffffffffffffffffffffffffffffff16908060040160149054906101000a900460ff16908060050154908060060160009054906101000a900473ffffffffffffffffffffffffffffffffffffffff1690806007018054600181600116156101000203166002900480601f016020809104026020016040519081016040528092919081815260200182805460018160011615610100020316600290048015612f115780601f10612ee657610100808354040283529160200191612f11565b820191906000526020600020905b815481529060010190602001808311612ef457829003601f168201915b5050505050905089565b6000809054906101000a900473ffffffffffffffffffffffffffffffffffffffff1673ffffffffffffffffffffffffffffffffffffffff163373ffffffffffffffffffffffffffffffffffffffff16141515612f7657600080fd5b600073ffffffffffffffffffffffffffffffffffffffff168173ffffffffffffffffffffffffffffffffffffffff1614151515612fb257600080fd5b8073ffffffffffffffffffffffffffffffffffffffff166000809054906101000a900473ffffffffffffffffffffffffffffffffffffffff1673ffffffffffffffffffffffffffffffffffffffff167f8be0079c531659141344cd1fd0a4f28419497f9722a3daafe3b4186f6b6457e060405160405180910390a3806000806101000a81548173ffffffffffffffffffffffffffffffffffffffff021916908373ffffffffffffffffffffffffffffffffffffffff16021790555050565b600060606040805190810160405280601c81526020017f19457468657265756d205369676e6564204d6573736167653a0a333200000000815250905080836040516020018083805190602001908083835b6020831015156130e657805182526020820191506020810190506020830392506130c1565b6001836020036101000a0380198251168184511680821785525050505050509050018260001916600019168152602001925050506040516020818303038152906040526040518082805190602001908083835b60208310151561315e5780518252602082019150602081019050602083039250613139565b6001836020036101000a0380198251168184511680821785525050505050509050019150506040518091039020915050919050565b6000806001838154811015156131a557fe5b906000526020600020906008020160000160009054906101000a900473ffffffffffffffffffffffffffffffffffffffff1673ffffffffffffffffffffffffffffffffffffffff16141580156132525750600060018381548110151561320757fe5b906000526020600020906008020160010160009054906101000a900473ffffffffffffffffffffffffffffffffffffffff1673ffffffffffffffffffffffffffffffffffffffff1614155b8015613289575060018281548110151561326857fe5b906000526020600020906008020160040160149054906101000a900460ff16155b9050919050565b60008360001916826040518082805190602001908083835b6020831015156132cd57805182526020820191506020810190506020830392506132a8565b6001836020036101000a03801982511681845116808217855250505050505090500191505060405180910390206000191614151561330757fe5b61331184846113be565b90509392505050565b6000600360008373ffffffffffffffffffffffffffffffffffffffff1673ffffffffffffffffffffffffffffffffffffffff16815260200190815260200160002060009054906101000a900473ffffffffffffffffffffffffffffffffffffffff169050919050565b60008173ffffffffffffffffffffffffffffffffffffffff166001848154811015156133ab57fe5b906000526020600020906008020160000160009054906101000a900473ffffffffffffffffffffffffffffffffffffffff1673ffffffffffffffffffffffffffffffffffffffff161461343e5760018381548110151561340757fe5b906000526020600020906008020160000160009054906101000a900473ffffffffffffffffffffffffffffffffffffffff16613480565b60018381548110151561344d57fe5b906000526020600020906008020160010160009054906101000a900473ffffffffffffffffffffffffffffffffffffffff165b905092915050565b600043905090565b600061349b83613193565b15156134a657600080fd5b6001838154811015156134b557fe5b9060005260206000209060080201905060008273ffffffffffffffffffffffffffffffffffffffff1614156135c7578060000160009054906101000a900473ffffffffffffffffffffffffffffffffffffffff1673ffffffffffffffffffffffffffffffffffffffff166108fc82600201549081150290604051600060405180830381858888f19350505050158015613552573d6000803e3d6000fd5b508060010160009054906101000a900473ffffffffffffffffffffffffffffffffffffffff1673ffffffffffffffffffffffffffffffffffffffff166108fc82600201549081150290604051600060405180830381858888f193505050501580156135c1573d6000803e3d6000fd5b50613616565b8173ffffffffffffffffffffffffffffffffffffffff166108fc60028360020154029081150290604051600060405180830381858888f19350505050158015613614573d6000803e3d6000fd5b505b60018160040160146101000a81548160ff021916908315150217905550818160040160006101000a81548173ffffffffffffffffffffffffffffffffffffffff021916908373ffffffffffffffffffffffffffffffffffffffff160217905550505050565b600080600080600080600893505b60008411156136e0578360080360200187015192506030837f010000000000000000000000000000000000000000000000000000000000000090040391508160ff16600a8702019550838060019003945050613689565b602887015190506030817f010000000000000000000000000000000000000000000000000000000000000090040360ff16945060038510151561371f57fe5b50505050915091565b828054600181600116156101000203166002900490600052602060002090601f016020900481019282601f1061376957805160ff1916838001178555613797565b82800160010185558215613797579182015b8281111561379657825182559160200191906001019061377b565b5b5090506137a49190613949565b5090565b8154818355818111156137d5576008028160080283600052602060002091820191016137d4919061396e565b5b505050565b61012060405190810160405280600073ffffffffffffffffffffffffffffffffffffffff168152602001600073ffffffffffffffffffffffffffffffffffffffff16815260200160008152602001600073ffffffffffffffffffffffffffffffffffffffff168152602001600073ffffffffffffffffffffffffffffffffffffffff16815260200160001515815260200160008152602001600073ffffffffffffffffffffffffffffffffffffffff168152602001606081525090565b8154818355818111156138c4576002028160020283600052602060002091820191016138c39190613a84565b5b505050565b828054600181600116156101000203166002900490600052602060002090601f016020900481019282601f1061390a57805160ff1916838001178555613938565b82800160010185558215613938579182015b8281111561393757825182559160200191906001019061391c565b5b5090506139459190613949565b5090565b61396b91905b8082111561396757600081600090555060010161394f565b5090565b90565b613a8191905b80821115613a7d57600080820160006101000a81549073ffffffffffffffffffffffffffffffffffffffff02191690556001820160006101000a81549073ffffffffffffffffffffffffffffffffffffffff021916905560028201600090556003820160006101000a81549073ffffffffffffffffffffffffffffffffffffffff02191690556004820160006101000a81549073ffffffffffffffffffffffffffffffffffffffff02191690556004820160146101000a81549060ff021916905560058201600090556006820160006101000a81549073ffffffffffffffffffffffffffffffffffffffff0219169055600782016000613a749190613ada565b50600801613974565b5090565b90565b613ad791905b80821115613ad357600080820160006101000a81549073ffffffffffffffffffffffffffffffffffffffff0219169055600182016000613aca9190613b22565b50600201613a8a565b5090565b90565b50805460018160011615610100020316600290046000825580601f10613b005750613b1f565b601f016020900490600052602060002090810190613b1e9190613949565b5b50565b50805460018160011615610100020316600290046000825580601f10613b485750613b67565b601f016020900490600052602060002090810190613b669190613949565b5b505600a165627a7a72305820eba28282c7f22f93ff620e0f990bea3f715bc49bb9bd358be1fa9dbe8c20c4620029",
  "source": "pragma solidity ^0.4.23;\n\nimport \"./Ownable.sol\";\nimport \"./ResolverInterface.sol\";\nimport \"./ECTools.sol\";\n\ncontract StakeManager is Ownable, ECTools {\n\n\t// _type - 0 is for fastClose and 1 is for a dispute\n\tevent MatchOutcome(uint _channelId, address _winner, uint _stake, uint _type);\n\tevent ChallengeTimeoutStarted(uint _channelId, address _challenger);\n\tevent ChallengeTimeoutAnswered(uint _channelId, address _responder);\n\n\tevent Test(address signer, address opponent);\n\n\tstruct Channel {\n\t\taddress p1;\n\t\taddress p2;\n\t\tuint stake;\n\t\taddress resolver;\n\t\taddress winner;\n\t\tbool finished;\n\t\tuint resolveStart;\n\t\taddress timeoutChallenger;\n\t\tbytes lastState;\n\t}\n\n\tstruct ResolverStruct {\n\t\taddress resolverAddress;\n\t\tstring name;\n\t}\n\t\n\tuint constant MAX_OPEN_TIME = 500; // 500 blocks\n\t\n\tChannel[] public channels;\n\tResolverStruct[] public resolvers;\n\tmapping(address => address) signAddresses;\n\t\n\n\tfunction addResolver(string _name, address _resolverAddress) public onlyOwner returns(uint _resolverId) {\n\t\t\n\t\t_resolverId = resolvers.length;\n\t\tresolvers.length++;\n\n\t\tResolverStruct storage r = resolvers[_resolverId];\n\t\tr.name = _name;\n\t\tr.resolverAddress = _resolverAddress;\n\t}\n\t\n\n\tfunction openChannel(uint _resolverId, address _signAddress) public payable returns(uint _channelId) {\n\n        _channelId = channels.length;\n        channels.length++;\n\n        signAddresses[msg.sender] = _signAddress;\n\n        Channel storage c = channels[_channelId];\n\t\tc.p1 = msg.sender;\n\t\tc.stake = msg.value;\n\t\tc.resolver = resolvers[_resolverId].resolverAddress;\n\t}\n\n\tfunction joinChannel(uint _channelId, address _signAddress) public payable {\n\t\trequire(_channelId < channels.length);\n\t\trequire(!_isActive(_channelId));\n\n\t\tsignAddresses[msg.sender] = _signAddress;\n\n\t\tChannel storage c = channels[_channelId];\n\t\t\n\t\trequire(c.stake <= msg.value);\n\n\t\tc.p2 = msg.sender;\n\t}\n\n\t///@dev Maybe put contract address in state as well so cross contract reply attacks are prevented \n\t// state should be first 8 places for number as channelId and after that one number where 0-draw,1-p1 wins,2-p2 wins\n\t// for example \"000012340\"-this is channelId == 1234 and its a draw\n\tfunction fastClose(uint _channelId, bytes32 _h, bytes sig, bytes _state) public {\n\t\t// channel must be active\n\t\trequire(_isActive(_channelId));\n\t\t// only player from this channel can close channel\n\t\trequire(msg.sender == channels[_channelId].p1 || msg.sender == channels[_channelId].p2);\n\t\t\n\t\tChannel memory c = channels[_channelId];\n\n\t\taddress signer = recoverSig(_h, sig, _state);\n\t\t// to close channel you need to have signature of other player\n\t\trequire(_signingAddress(_getOpponent(_channelId, msg.sender)) == signer);\n\n\t\tuint channelId;\n\t\tuint winner;\n\n\t\t(channelId, winner) = _readWinner(_state);\n\n\t\tassert(_channelId == channelId);\n\n\t\taddress winnerAddr = winner == 0 ? 0x0 : (winner == 1 ? c.p1 : c.p2);\n\n\t\t_closeChannel(_channelId, winnerAddr);\n\n\t\temit MatchOutcome(_channelId, winnerAddr, c.stake, 0);\n\t}\n\n\tfunction disputeMove(uint _channelId, \n\t\tbytes32[2] _h, \n\t\tbytes _sig1,\n\t\tbytes _sig2,\n\t\tbytes _state1,\n\t\tbytes _state2\n\t\t) public {\n\t\t\n\t\trequire(_isActive(_channelId));\n\n\t\tChannel memory c = channels[_channelId];\n\n\t\taddress signer = recoverSig(_h[0], _sig1, _state1);\n\t\taddress signer2 = recoverSig(_h[1], _sig2, _state2);\n\n\t\taddress opponent = _getOpponent(_channelId, msg.sender);\n\n\t\temit Test(signer, _signingAddress(opponent));\n\n        // both moves must be signed by other player\n        assert(signer2 == _signingAddress(opponent));\n        assert(signer == _signingAddress(opponent));\n\n        if (ResolverInterface(c.resolver).resolve(_state1, _state2)) {\n        \t_closeChannel(_channelId, opponent);\n\t\t\temit MatchOutcome(_channelId, opponent, c.stake, 1);\n        } else {\n        \t_closeChannel(_channelId, msg.sender);\n        \temit MatchOutcome(_channelId, msg.sender, c.stake, 1);\n        }\n\t}\n\n\tfunction challengeTimeout(uint _channelId,\n\t\tbytes32[2] _h, \n\t\tbytes _sig1,\n\t\tbytes _sig2,\n\t\tbytes _state1,\n\t\tbytes _state2\n\t\t) public {\n\n\t\trequire(_isActive(_channelId));\n\t\t// only player from this channel can close channel\n\t\trequire(msg.sender == channels[_channelId].p1 || msg.sender == channels[_channelId].p2);\n\n\t\tChannel storage c = channels[_channelId];\n\t\t// can't challenge timeout if it is already challenged\n\t\trequire (c.resolveStart == 0);\n\n\t\taddress signer = recoverSig(_h[0], _sig1, _state1);\n\t\taddress signer2 = recoverSig(_h[1], _sig2, _state2);\n\n\t\tuint seq1 = ResolverInterface(c.resolver).getSequence(_state1);\n\t\tuint seq2 = ResolverInterface(c.resolver).getSequence(_state2);\n\t\t// you need to send last step from opponent and your current move\n\t\trequire(seq1+1 == seq2);\n\n\t\trequire(signer == _signingAddress(_getOpponent(_channelId, msg.sender)));\n\t\trequire(signer2 == _signingAddress(msg.sender));\n\t\t\n\t\tc.timeoutChallenger = msg.sender;\n\t\tc.lastState = _state2;\n\t\tc.resolveStart = _currBlock();\n\n\t\temit ChallengeTimeoutStarted(_channelId, msg.sender);\n\t}\n\n\tfunction challengeResponse(uint _channelId, \n\t\tbytes32[2] _h, \n\t\tbytes _sig1,\n\t\tbytes _sig2,\n\t\tbytes _state1,\n\t\tbytes _state2\n\t\t) public {\n\n\t\trequire(_isActive(_channelId));\n\t\t// only player from this channel can close channel\n\t\trequire(msg.sender == channels[_channelId].p1 || msg.sender == channels[_channelId].p2);\n\n\t\tChannel storage c = channels[_channelId];\n\t\t// can't respond if there is nothing to respond to\n\t\trequire(c.resolveStart > 0);\n\t\trequire(c.timeoutChallenger != msg.sender);\n\t\t// you need to send last state signed by you\n\t\trequire(keccak256(c.lastState) == keccak256(_state1));\n\t\t\n\t\taddress signer1 = recoverSig(_h[0], _sig1, _state1);\n\t\taddress signer2 = recoverSig(_h[1], _sig2, _state2);\n\t\t// both moves must be signed by responder\n\t\trequire (signer1 == signer2 && signer1 == _signingAddress(msg.sender));\n\n\t\tuint seq1 = ResolverInterface(c.resolver).getSequence(_state1);\n\t\tuint seq2 = ResolverInterface(c.resolver).getSequence(_state2);\n\t\t// you need to signed both last move by last player and your next move\n\t\trequire(seq1 + 1 == seq2);\n\t\t\n\t\tc.resolveStart = 0;\n\n\t\temit ChallengeTimeoutAnswered(_channelId, msg.sender);\n\t}\n\n\tfunction closeTimeoutedChannel(uint _channelId) public {\n\t\tChannel memory c = channels[_channelId];\n\n\t\trequire(_isActive(_channelId));\n\t\trequire(!c.finished);\n\t\trequire(c.resolveStart > 0);\n\t\trequire(c.resolveStart + MAX_OPEN_TIME < _currBlock());\n\n\t\t_closeChannel(_channelId, c.timeoutChallenger);\n        emit MatchOutcome(_channelId, c.timeoutChallenger, c.stake, 1);\n\t}\n\n\tfunction nChannel() public view returns(uint _n) {\n\t    _n = channels.length;\n\t}\n\n\tfunction _getWinner(uint _channelId, bytes _state) private view returns(address _winner) {\n\t\tChannel memory c = channels[_channelId];\n\n\t\tbool p1winner = ResolverInterface(c.resolver).isWinner(_state, _getSign(_channelId, c.p1));\n\t\tbool p2winner = ResolverInterface(c.resolver).isWinner(_state, _getSign(_channelId, c.p2));\n\n\t\t// its not possible that both players win\n\t\tassert(!(p1winner == p2winner && p1winner));\n\n\t\t//if its both false then _winner is 0x0 else if p1winner then p1 else p2\n\t\t_winner = (p1winner == p2winner) ? 0x0 : (p1winner ? c.p1 : c.p2);\n\t}\n\n\tfunction _closeChannel(uint _channelId, address _winner) private {\n\t\trequire (_isActive(_channelId));\n\n\t\tChannel storage c = channels[_channelId];\n\n\t\tif (_winner == 0x0) {\n\t\t\tc.p1.transfer(c.stake);\n\t\t\tc.p2.transfer(c.stake);\n\t\t} else {\n\t\t\t_winner.transfer(c.stake * 2);\n\t\t}\n\n\t\tc.finished = true;\n\t\tc.winner = _winner;\n\t}\n\t\n\n\tfunction _getSign(uint _channelId, address _player) private view returns(uint _sign) {\n\t\t\n\t\tif (channels[_channelId].p1 == _player) {\n\t\t\t_sign = 1;\n\t\t} else {\n\t\t\t_sign = 2;\n\t\t}\n\t}\n\n\tfunction _readWinner(bytes _state) private pure returns(uint _channelId, uint _winner) {\n\n        for (uint i=8; i>0; i--){\n            byte t;\n            assembly {\n                t := mload(add(_state, add(32, sub(8, i))))\n            }\n            uint8 num = uint8(t) - 48;\n            _channelId = _channelId*10+num;\n        }\n        \n        byte winner;\n        assembly {\n            winner := mload(add(_state, 40))\n        }\n\n        _winner = uint8(winner) - 48;\n        \n        assert(_winner < 3);\n\t}\n\n\tfunction recoverSig(bytes32 _hash, bytes _sig, bytes _state) private pure returns (address) {\n\t\tassert(keccak256(_state) == _hash);\n\n\t\treturn prefixedRecover(_hash, _sig);\n\t}\n\t\n\tfunction _isActive(uint _channelId) private view returns(bool _active) {\n\t\n\t\t_active = (channels[_channelId].p1 != 0x0) && (channels[_channelId].p2 != 0x0) && !channels[_channelId].finished;\n\t}\n\n\tfunction _getOpponent(uint _channelId, address _player) private view returns(address _opponent) {\n\t\t_opponent = (channels[_channelId].p1 == _player) ? channels[_channelId].p2 : channels[_channelId].p1;  \n\t}\n\n\tfunction _signingAddress(address _address) private view returns(address signingAddress) {\n\t\tsigningAddress = signAddresses[_address];\n\t}\n\n\tfunction _currBlock() private view returns(uint currBlock) {\n\t\tcurrBlock = block.number;\n\t}\n}",
  "sourcePath": "/Users/nikolaklipa/Decenter/MatchChannels/solidity/contracts/StakeManager.sol",
  "compiler": {
    "name": "solc",
    "version": "0.4.24+commit.e67f0147.Emscripten.clang"
  },
  "schemaVersion": "2.0.1",
  "updatedAt": "2018-07-19T10:51:55.293Z"
}