{
  "contractName": "StakeManager",
  "abi": [
    {
      "constant": false,
      "inputs": [
        {
          "name": "_channelId",
          "type": "uint256"
        }
      ],
      "name": "joinChannel",
      "outputs": [],
      "payable": true,
      "stateMutability": "payable",
      "type": "function"
    },
    {
      "constant": true,
      "inputs": [],
      "name": "nChannel",
      "outputs": [
        {
          "name": "_n",
          "type": "uint256"
        }
      ],
      "payable": false,
      "stateMutability": "view",
      "type": "function"
    },
    {
      "constant": false,
      "inputs": [
        {
          "name": "_channelId",
          "type": "uint256"
        },
        {
          "name": "_h",
          "type": "bytes32[2]"
        },
        {
          "name": "_v",
          "type": "uint8[2]"
        },
        {
          "name": "_r",
          "type": "bytes32[2]"
        },
        {
          "name": "_s",
          "type": "bytes32[2]"
        },
        {
          "name": "_state1",
          "type": "bytes"
        },
        {
          "name": "_state2",
          "type": "bytes"
        }
      ],
      "name": "fastClose",
      "outputs": [],
      "payable": false,
      "stateMutability": "nonpayable",
      "type": "function"
    },
    {
      "constant": true,
      "inputs": [],
      "name": "owner",
      "outputs": [
        {
          "name": "",
          "type": "address"
        }
      ],
      "payable": false,
      "stateMutability": "view",
      "type": "function"
    },
    {
      "constant": false,
      "inputs": [
        {
          "name": "_channelId",
          "type": "uint256"
        }
      ],
      "name": "closeTimeoutedChannel",
      "outputs": [],
      "payable": false,
      "stateMutability": "nonpayable",
      "type": "function"
    },
    {
      "constant": true,
      "inputs": [
        {
          "name": "",
          "type": "uint256"
        }
      ],
      "name": "resolvers",
      "outputs": [
        {
          "name": "resolverAddress",
          "type": "address"
        },
        {
          "name": "name",
          "type": "string"
        }
      ],
      "payable": false,
      "stateMutability": "view",
      "type": "function"
    },
    {
      "constant": false,
      "inputs": [
        {
          "name": "_name",
          "type": "string"
        },
        {
          "name": "_resolverAddress",
          "type": "address"
        }
      ],
      "name": "addResolver",
      "outputs": [
        {
          "name": "_resolverId",
          "type": "uint256"
        }
      ],
      "payable": false,
      "stateMutability": "nonpayable",
      "type": "function"
    },
    {
      "constant": true,
      "inputs": [
        {
          "name": "",
          "type": "uint256"
        }
      ],
      "name": "channels",
      "outputs": [
        {
          "name": "p1",
          "type": "address"
        },
        {
          "name": "p2",
          "type": "address"
        },
        {
          "name": "stake",
          "type": "uint256"
        },
        {
          "name": "resolver",
          "type": "address"
        },
        {
          "name": "winner",
          "type": "address"
        },
        {
          "name": "finished",
          "type": "bool"
        },
        {
          "name": "resolveStart",
          "type": "uint256"
        }
      ],
      "payable": false,
      "stateMutability": "view",
      "type": "function"
    },
    {
      "constant": false,
      "inputs": [
        {
          "name": "newOwner",
          "type": "address"
        }
      ],
      "name": "transferOwnership",
      "outputs": [],
      "payable": false,
      "stateMutability": "nonpayable",
      "type": "function"
    },
    {
      "constant": false,
      "inputs": [
        {
          "name": "_resolverId",
          "type": "uint256"
        }
      ],
      "name": "openChannel",
      "outputs": [
        {
          "name": "_channelId",
          "type": "uint256"
        }
      ],
      "payable": true,
      "stateMutability": "payable",
      "type": "function"
    },
    {
      "anonymous": false,
      "inputs": [
        {
          "indexed": true,
          "name": "previousOwner",
          "type": "address"
        },
        {
          "indexed": true,
          "name": "newOwner",
          "type": "address"
        }
      ],
      "name": "OwnershipTransferred",
      "type": "event"
    },
    {
      "anonymous": false,
      "inputs": [
        {
          "indexed": true,
          "name": "previousOwner",
          "type": "address"
        },
        {
          "indexed": true,
          "name": "newOwner",
          "type": "address"
        }
      ],
      "name": "OwnershipTransferred",
      "type": "event"
    }
  ],
  "bytecode": "0x6060604052336000806101000a81548173ffffffffffffffffffffffffffffffffffffffff021916908373ffffffffffffffffffffffffffffffffffffffff160217905550611d46806100536000396000f3006060604052600436106100a4576000357c0100000000000000000000000000000000000000000000000000000000900463ffffffff1680632819cc0c146100a957806335f77938146100c15780633b8495c6146100ea5780638da5cb5b14610243578063a5d21a981461026c578063b158fd5c1461028f578063c30b83a1146102c7578063e5949b5d14610357578063f2fde38b14610394578063fd85b1a7146103cd575b600080fd5b6100bf60048080359060200190919050506103f9565b005b34156100cc57600080fd5b6100d46104a3565b6040516100e19190611c3a565b60405180910390f35b34156100f557600080fd5b6102416004808035906020019091908060400190600280602002604051908101604052809291908260026020028082843782019150505050509190806040019060028060200260405190810160405280929190826002602002808284378201915050505050919080604001906002806020026040519081016040528092919082600260200280828437820191505050505091908060400190600280602002604051908101604052809291908260026020028082843782019150505050509190803590602001908201803590602001908080601f0160208091040260200160405190810160405280939291908181526020018383808284378201915050505050509190803590602001908201803590602001908080601f016020809104026020016040519081016040528093929190818152602001838380828437820191505050505050919050506104b0565b005b341561024e57600080fd5b610256610942565b6040516102639190611ad4565b60405180910390f35b341561027757600080fd5b61028d6004808035906020019091905050610967565b005b341561029a57600080fd5b6102b06004808035906020019091905050610c43565b6040516102be929190611b5e565b60405180910390f35b34156102d257600080fd5b610341600480803590602001908201803590602001908080601f0160208091040260200160405190810160405280939291908181526020018383808284378201915050505050509190803573ffffffffffffffffffffffffffffffffffffffff16906020019091905050610c95565b60405161034e9190611c3a565b60405180910390f35b341561036257600080fd5b6103786004808035906020019091905050610d92565b60405161038b9796959493929190611aef565b60405180910390f35b341561039f57600080fd5b6103cb600480803573ffffffffffffffffffffffffffffffffffffffff16906020019091905050610e70565b005b6103e36004808035906020019091905050610fc5565b6040516103f09190611c3a565b60405180910390f35b60006001805490508210151561040e57600080fd5b610417826110e0565b15151561042357600080fd5b60018281548110151561043257fe5b906000526020600020906006020190503481600201541115151561045557600080fd5b61045d6111dd565b8160010160006101000a81548173ffffffffffffffffffffffffffffffffffffffff021916908373ffffffffffffffffffffffffffffffffffffffff1602179055505050565b6000600180549050905090565b6000806000806104bf8b6110e0565b15156104ca57600080fd5b60018b8154811015156104d957fe5b906000526020600020906006020193506105428a60006002811015156104fb57fe5b60200201518a600060028110151561050f57fe5b60200201518a600060028110151561052357fe5b60200201518a600060028110151561053757fe5b60200201518a6111e5565b925061059d8a600160028110151561055657fe5b60200201518a600160028110151561056a57fe5b60200201518a600160028110151561057e57fe5b60200201518a600160028110151561059257fe5b6020020151896111e5565b91508360000160009054906101000a900473ffffffffffffffffffffffffffffffffffffffff1673ffffffffffffffffffffffffffffffffffffffff168373ffffffffffffffffffffffffffffffffffffffff16148061064c57508360010160009054906101000a900473ffffffffffffffffffffffffffffffffffffffff1673ffffffffffffffffffffffffffffffffffffffff168373ffffffffffffffffffffffffffffffffffffffff16145b151561065457fe5b8360000160009054906101000a900473ffffffffffffffffffffffffffffffffffffffff1673ffffffffffffffffffffffffffffffffffffffff168273ffffffffffffffffffffffffffffffffffffffff16148061070157508360010160009054906101000a900473ffffffffffffffffffffffffffffffffffffffff1673ffffffffffffffffffffffffffffffffffffffff168273ffffffffffffffffffffffffffffffffffffffff16145b151561070957fe5b8173ffffffffffffffffffffffffffffffffffffffff168373ffffffffffffffffffffffffffffffffffffffff161415151561074157fe5b8360030160009054906101000a900473ffffffffffffffffffffffffffffffffffffffff1673ffffffffffffffffffffffffffffffffffffffff16639061b92387876000604051602001526040518363ffffffff167c01000000000000000000000000000000000000000000000000000000000281526004016107c5929190611bd3565b602060405180830381600087803b15156107de57600080fd5b6102c65a03f115156107ef57600080fd5b50505060405180519050151561080157fe5b61080c8b87876112c3565b905060008460040160009054906101000a900473ffffffffffffffffffffffffffffffffffffffff1673ffffffffffffffffffffffffffffffffffffffff1614801561085c575060008460050154145b156108b957808460040160006101000a81548173ffffffffffffffffffffffffffffffffffffffff021916908373ffffffffffffffffffffffffffffffffffffffff1602179055506108ac61161d565b8460050181905550610935565b8073ffffffffffffffffffffffffffffffffffffffff168460040160009054906101000a900473ffffffffffffffffffffffffffffffffffffffff1673ffffffffffffffffffffffffffffffffffffffff1614156109335760018460040160146101000a81548160ff021916908315150217905550610934565b5b5b5050505050505050505050565b6000809054906101000a900473ffffffffffffffffffffffffffffffffffffffff1681565b61096f6116af565b60018281548110151561097e57fe5b906000526020600020906006020160e060405190810160405290816000820160009054906101000a900473ffffffffffffffffffffffffffffffffffffffff1673ffffffffffffffffffffffffffffffffffffffff1673ffffffffffffffffffffffffffffffffffffffff1681526020016001820160009054906101000a900473ffffffffffffffffffffffffffffffffffffffff1673ffffffffffffffffffffffffffffffffffffffff1673ffffffffffffffffffffffffffffffffffffffff168152602001600282015481526020016003820160009054906101000a900473ffffffffffffffffffffffffffffffffffffffff1673ffffffffffffffffffffffffffffffffffffffff1673ffffffffffffffffffffffffffffffffffffffff1681526020016004820160009054906101000a900473ffffffffffffffffffffffffffffffffffffffff1673ffffffffffffffffffffffffffffffffffffffff1673ffffffffffffffffffffffffffffffffffffffff1681526020016004820160149054906101000a900460ff161515151581526020016005820154815250509050610b2a826110e0565b1515610b3557600080fd5b8060a00151151515610b4657600080fd5b610b4e61161d565b6101f48260c0015101101515610b6357600080fd5b6000816080015173ffffffffffffffffffffffffffffffffffffffff161415610bf3576000809054906101000a900473ffffffffffffffffffffffffffffffffffffffff1673ffffffffffffffffffffffffffffffffffffffff166108fc60028360400151029081150290604051600060405180830381858888f193505050501515610bee57600080fd5b610c3f565b806080015173ffffffffffffffffffffffffffffffffffffffff166108fc60028360400151029081150290604051600060405180830381858888f193505050501515610c3e57600080fd5b5b5050565b600281815481101515610c5257fe5b90600052602060002090600202016000915090508060000160009054906101000a900473ffffffffffffffffffffffffffffffffffffffff169080600101905082565b6000806000809054906101000a900473ffffffffffffffffffffffffffffffffffffffff1673ffffffffffffffffffffffffffffffffffffffff163373ffffffffffffffffffffffffffffffffffffffff16141515610cf357600080fd5b600280549050915060028054809190600101610d0f9190611747565b50600282815481101515610d1f57fe5b9060005260206000209060020201905083816001019080519060200190610d47929190611779565b50828160000160006101000a81548173ffffffffffffffffffffffffffffffffffffffff021916908373ffffffffffffffffffffffffffffffffffffffff1602179055505092915050565b600181815481101515610da157fe5b90600052602060002090600602016000915090508060000160009054906101000a900473ffffffffffffffffffffffffffffffffffffffff16908060010160009054906101000a900473ffffffffffffffffffffffffffffffffffffffff16908060020154908060030160009054906101000a900473ffffffffffffffffffffffffffffffffffffffff16908060040160009054906101000a900473ffffffffffffffffffffffffffffffffffffffff16908060040160149054906101000a900460ff16908060050154905087565b6000809054906101000a900473ffffffffffffffffffffffffffffffffffffffff1673ffffffffffffffffffffffffffffffffffffffff163373ffffffffffffffffffffffffffffffffffffffff16141515610ecb57600080fd5b600073ffffffffffffffffffffffffffffffffffffffff168173ffffffffffffffffffffffffffffffffffffffff1614151515610f0757600080fd5b8073ffffffffffffffffffffffffffffffffffffffff166000809054906101000a900473ffffffffffffffffffffffffffffffffffffffff1673ffffffffffffffffffffffffffffffffffffffff167f8be0079c531659141344cd1fd0a4f28419497f9722a3daafe3b4186f6b6457e060405160405180910390a3806000806101000a81548173ffffffffffffffffffffffffffffffffffffffff021916908373ffffffffffffffffffffffffffffffffffffffff16021790555050565b600080600180549050915060018054809190600101610fe491906117f9565b50600182815481101515610ff457fe5b9060005260206000209060060201905061100c6111dd565b8160000160006101000a81548173ffffffffffffffffffffffffffffffffffffffff021916908373ffffffffffffffffffffffffffffffffffffffff16021790555034816002018190555060028381548110151561106657fe5b906000526020600020906002020160000160009054906101000a900473ffffffffffffffffffffffffffffffffffffffff168160030160006101000a81548173ffffffffffffffffffffffffffffffffffffffff021916908373ffffffffffffffffffffffffffffffffffffffff16021790555050919050565b6000806001838154811015156110f257fe5b906000526020600020906006020160000160009054906101000a900473ffffffffffffffffffffffffffffffffffffffff1673ffffffffffffffffffffffffffffffffffffffff161415801561119f5750600060018381548110151561115457fe5b906000526020600020906006020160010160009054906101000a900473ffffffffffffffffffffffffffffffffffffffff1673ffffffffffffffffffffffffffffffffffffffff1614155b80156111d657506001828154811015156111b557fe5b906000526020600020906006020160040160149054906101000a900460ff16155b9050919050565b600033905090565b600080826040518082805190602001908083835b60208310151561121e57805182526020820191506020810190506020830392506111f9565b6001836020036101000a038019825116818451168082178552505050505050905001915050604051809103902090508660001916816000191614151561126057fe5b6001878787876040516000815260200160405260006040516020015260405161128c9493929190611b8e565b602060405160208103908084039060008661646e5a03f115156112ae57600080fd5b50506020604051035191505095945050505050565b60006112cd6116af565b6000806001878154811015156112df57fe5b906000526020600020906006020160e060405190810160405290816000820160009054906101000a900473ffffffffffffffffffffffffffffffffffffffff1673ffffffffffffffffffffffffffffffffffffffff1673ffffffffffffffffffffffffffffffffffffffff1681526020016001820160009054906101000a900473ffffffffffffffffffffffffffffffffffffffff1673ffffffffffffffffffffffffffffffffffffffff1673ffffffffffffffffffffffffffffffffffffffff168152602001600282015481526020016003820160009054906101000a900473ffffffffffffffffffffffffffffffffffffffff1673ffffffffffffffffffffffffffffffffffffffff1673ffffffffffffffffffffffffffffffffffffffff1681526020016004820160009054906101000a900473ffffffffffffffffffffffffffffffffffffffff1673ffffffffffffffffffffffffffffffffffffffff1673ffffffffffffffffffffffffffffffffffffffff1681526020016004820160149054906101000a900460ff161515151581526020016005820154815250509250826060015173ffffffffffffffffffffffffffffffffffffffff16634cc93fb5866114b18a8760000151611625565b6000604051602001526040518363ffffffff167c01000000000000000000000000000000000000000000000000000000000281526004016114f3929190611c0a565b602060405180830381600087803b151561150c57600080fd5b6102c65a03f1151561151d57600080fd5b505050604051805190509150826060015173ffffffffffffffffffffffffffffffffffffffff16634cc93fb5866115588a8760200151611625565b6000604051602001526040518363ffffffff167c010000000000000000000000000000000000000000000000000000000002815260040161159a929190611c0a565b602060405180830381600087803b15156115b357600080fd5b6102c65a03f115156115c457600080fd5b5050506040518051905090508015158215151480156115e05750815b1515156115e957fe5b8015158215151461160e5781611603578260200151611609565b82600001515b611611565b60005b93505050509392505050565b600043905090565b60008173ffffffffffffffffffffffffffffffffffffffff1660018481548110151561164d57fe5b906000526020600020906006020160000160009054906101000a900473ffffffffffffffffffffffffffffffffffffffff1673ffffffffffffffffffffffffffffffffffffffff1614156116a457600190506116a9565b600290505b92915050565b60e060405190810160405280600073ffffffffffffffffffffffffffffffffffffffff168152602001600073ffffffffffffffffffffffffffffffffffffffff16815260200160008152602001600073ffffffffffffffffffffffffffffffffffffffff168152602001600073ffffffffffffffffffffffffffffffffffffffff168152602001600015158152602001600081525090565b81548183558181151161177457600202816002028360005260206000209182019101611773919061182b565b5b505050565b828054600181600116156101000203166002900490600052602060002090601f016020900481019282601f106117ba57805160ff19168380011785556117e8565b828001600101855582156117e8579182015b828111156117e75782518255916020019190600101906117cc565b5b5090506117f59190611881565b5090565b8154818355818115116118265760060281600602836000526020600020918201910161182591906118a6565b5b505050565b61187e91905b8082111561187a57600080820160006101000a81549073ffffffffffffffffffffffffffffffffffffffff02191690556001820160006118719190611985565b50600201611831565b5090565b90565b6118a391905b8082111561189f576000816000905550600101611887565b5090565b90565b61198291905b8082111561197e57600080820160006101000a81549073ffffffffffffffffffffffffffffffffffffffff02191690556001820160006101000a81549073ffffffffffffffffffffffffffffffffffffffff021916905560028201600090556003820160006101000a81549073ffffffffffffffffffffffffffffffffffffffff02191690556004820160006101000a81549073ffffffffffffffffffffffffffffffffffffffff02191690556004820160146101000a81549060ff02191690556005820160009055506006016118ac565b5090565b90565b50805460018160011615610100020316600290046000825580601f106119ab57506119ca565b601f0160209004906000526020600020908101906119c99190611881565b5b50565b6119d681611c72565b82525050565b6119e581611c92565b82525050565b6119f481611c9e565b82525050565b6000611a0582611c67565b808452611a19816020860160208601611cbf565b611a2281611cfb565b602085010191505092915050565b600081546001811660008114611a4d5760018114611a6d57611aae565b607f600283041680865260ff198316602087015260408601935050611aae565b60028204808652602086019550611a8385611c55565b60005b82811015611aa557815481890152600182019150602081019050611a86565b80880195505050505b505092915050565b611abf81611ca8565b82525050565b611ace81611cb2565b82525050565b6000602082019050611ae960008301846119cd565b92915050565b600060e082019050611b04600083018a6119cd565b611b1160208301896119cd565b611b1e6040830188611ab6565b611b2b60608301876119cd565b611b3860808301866119cd565b611b4560a08301856119dc565b611b5260c0830184611ab6565b98975050505050505050565b6000604082019050611b7360008301856119cd565b8181036020830152611b858184611a30565b90509392505050565b6000608082019050611ba360008301876119eb565b611bb06020830186611ac5565b611bbd60408301856119eb565b611bca60608301846119eb565b95945050505050565b60006040820190508181036000830152611bed81856119fa565b90508181036020830152611c0181846119fa565b90509392505050565b60006040820190508181036000830152611c2481856119fa565b9050611c336020830184611ab6565b9392505050565b6000602082019050611c4f6000830184611ab6565b92915050565b60008160005260206000209050919050565b600081519050919050565b600073ffffffffffffffffffffffffffffffffffffffff82169050919050565b60008115159050919050565b6000819050919050565b6000819050919050565b600060ff82169050919050565b60005b83811015611cdd578082015181840152602081019050611cc2565b83811460008114611ced57611cf4565b6000858501525b5050505050565b6000601f19601f83011690509190505600a265627a7a72305820128fa9f72a11ae8e50f98970f246715f21418d94ac1e885ac5a4d629680c65e96c6578706572696d656e74616cf50037",
  "source": "pragma solidity ^0.4.18;\npragma experimental ABIEncoderV2;\n\nimport \"./Ownable.sol\";\nimport \"./ResolverInterface.sol\";\n\ncontract StakeManager is Ownable {\n\n\tstruct Channel {\n\t\taddress p1;\n\t\taddress p2;\n\t\tuint stake;\n\t\taddress resolver;\n\t\taddress winner;\n\t\tbool finished;\n\t\tuint resolveStart;\n\t}\n\n\tstruct ResolverStruct {\n\t\taddress resolverAddress;\n\t\tstring name;\n\t}\n\t\n\tuint constant MAX_OPEN_TIME = 500; // 500 blocks\n\t\n\tChannel[] public channels;\n\tResolverStruct[] public resolvers;\n\n\tfunction addResolver(string _name, address _resolverAddress) public onlyOwner returns(uint _resolverId) {\n\t\t\n\t\t_resolverId = resolvers.length;\n\t\tresolvers.length++;\n\n\t\tResolverStruct storage r = resolvers[_resolverId];\n\t\tr.name = _name;\n\t\tr.resolverAddress = _resolverAddress;\n\t}\n\t\n\n\tfunction openChannel(uint _resolverId) public payable returns(uint _channelId) {\n\n        _channelId = channels.length;\n        channels.length++;\n\n        Channel storage c = channels[_channelId];\n\t\tc.p1 = currUser();\n\t\tc.stake = msg.value;\n\t\tc.resolver = resolvers[_resolverId].resolverAddress;\n\t}\n\n\tfunction joinChannel(uint _channelId) public payable {\n\t\trequire(_channelId < channels.length);\n\t\trequire(!isActive(_channelId));\n\n\t\tChannel storage c = channels[_channelId];\n\t\t\n\t\trequire(c.stake <= msg.value);\n\n\t\tc.p2 = currUser();\n\t}\n\n\tfunction fastClose(uint _channelId, \n\t\tbytes32[2] _h, \n\t\tuint8[2] _v, \n\t\tbytes32[2] _r, \n\t\tbytes32[2] _s,\n\t\tbytes _state1,\n\t\tbytes _state2\n\t\t) public {\n\n\t\trequire(isActive(_channelId));\n\n\t\tChannel storage c = channels[_channelId];\n\n\n\t\taddress signer = resolveRecover(_h[0], _v[0], _r[0], _s[0], _state1);\n\t\taddress signer2 = resolveRecover(_h[1], _v[1], _r[1], _s[1], _state2);\n\n        // it must be signed by one of the players in the channel\n        assert(signer == c.p1 || signer == c.p2);\n        assert(signer2 == c.p1 || signer2 == c.p2);\n\n\t\t// we are getting last two states and they must be signed with two different players\n\t\tassert(signer != signer2);\n        assert(ResolverInterface(c.resolver).resolve(_state1, _state2));\n\n\t\taddress _winner = _getWinner(_channelId, _state1, _state2);\n\n        if (c.winner == 0x0 && c.resolveStart == 0) {\n\t    \tc.winner = _winner;\n\t    \tc.resolveStart = currBlock();\n    \t} else {\n    \t\tif (c.winner == _winner) {\n    \t\t\tc.finished = true;\n    \t\t} else {\n    \t\t\t//// OPTIONS:\n    \t\t\t//// 1. if first player send some previous state with no winner\n    \t\t\t//// 2. ?\n    \t\t}\n    \t}\n\t}\n\n\tfunction _getWinner(uint _channelId, bytes _state1, bytes _state2) private returns(address _winner) {\n\t\tChannel memory c = channels[_channelId];\n\n\t\tbool p1winner = ResolverInterface(c.resolver).isWinner(_state2, getSign(_channelId, c.p1));\n\t\tbool p2winner = ResolverInterface(c.resolver).isWinner(_state2, getSign(_channelId, c.p2));\n\n\t\t// its not possible that both players win\n\t\tassert(!(p1winner == p2winner && p1winner));\n\n\t\t//if its both false then _winner is 0x0 else if p1winner then p1 else p2\n\t\t_winner = (p1winner == p2winner) ? 0x0 : (p1winner ? c.p1 : c.p2);\n\t}\n\n\tfunction closeTimeoutedChannel(uint _channelId) public {\n\t\tChannel memory c = channels[_channelId];\n\n\t\trequire(isActive(_channelId));\n\t\trequire(!c.finished);\n\t\trequire(c.resolveStart + MAX_OPEN_TIME < currBlock());\n\n\t\tif (c.winner == 0x0) {\n\t\t\towner.transfer(c.stake * 2);\n\t\t} else {\n\t\t\tc.winner.transfer(c.stake * 2);\n\t\t}\n\t}\n\n\tfunction getSign(uint _channelId, address _player) private view returns(uint _sign) {\n\t\t\n\t\tif (channels[_channelId].p1 == _player) {\n\t\t\t_sign = 1;\n\t\t} else {\n\t\t\t_sign = 2;\n\t\t}\n\t}\n\n\tfunction resolveRecover(bytes32 _h, uint8 _v, bytes32 _r, bytes32 _s, bytes _currState) private pure returns(address _signer) {\n\t\tbytes32 proof = keccak256(_currState);\n\t\tassert(proof == _h);\n\n\t\t_signer = ecrecover(_h, _v, _r, _s);\n\t}\n\t\n\tfunction nChannel() public view returns(uint _n) {\n\t    _n = channels.length;\n\t}\n\t\n\tfunction isActive(uint _channelId) private view returns(bool _active) {\n\t\n\t\t_active = (channels[_channelId].p1 != 0x0) && (channels[_channelId].p2 != 0x0) && !channels[_channelId].finished;\n\t}\n\n\tfunction getOtherPlayer(uint _channelId, address _player) private view returns(address _otherPlayer) {\n\t\t_otherPlayer = (channels[_channelId].p1 == _player) ? channels[_channelId].p2 : channels[_channelId].p1;  \n\t}\n\n\tfunction currUser() private view returns(address _currUser) {\n\t\t_currUser = msg.sender;\n\t}\n\n\tfunction currBlock() private view returns(uint _currBlock) {\n\t\t_currBlock = block.number;\n\t}\n}",
  "sourcePath": "/Users/nenadpalinkasevic/Desktop/blockchain/StateChannels/solidity/contracts/StakeManager.sol",
  "compiler": {
    "name": "solc",
    "version": "0.4.18+commit.9cf6e910.Emscripten.clang"
  },
  "schemaVersion": "1.0.1",
  "updatedAt": "2018-03-22T14:08:21.136Z"
}