{
  "contractName": "TicTacToeResolver",
  "abi": [
    {
      "anonymous": false,
      "inputs": [
        {
          "indexed": false,
          "name": "sequence1",
          "type": "uint32"
        },
        {
          "indexed": false,
          "name": "sequence2",
          "type": "uint32"
        }
      ],
      "name": "Log",
      "type": "event"
    },
    {
      "constant": true,
      "inputs": [
        {
          "name": "_previous",
          "type": "bytes"
        },
        {
          "name": "_current",
          "type": "bytes"
        }
      ],
      "name": "resolve",
      "outputs": [
        {
          "name": "",
          "type": "bool"
        }
      ],
      "payable": false,
      "stateMutability": "pure",
      "type": "function"
    },
    {
      "constant": true,
      "inputs": [
        {
          "name": "_state",
          "type": "bytes"
        }
      ],
      "name": "getSequence",
      "outputs": [
        {
          "name": "",
          "type": "uint256"
        }
      ],
      "payable": false,
      "stateMutability": "view",
      "type": "function"
    },
    {
      "constant": true,
      "inputs": [
        {
          "name": "_currState",
          "type": "bytes"
        },
        {
          "name": "_w",
          "type": "uint256"
        }
      ],
      "name": "isWinner",
      "outputs": [
        {
          "name": "",
          "type": "bool"
        }
      ],
      "payable": false,
      "stateMutability": "pure",
      "type": "function"
    },
    {
      "constant": true,
      "inputs": [
        {
          "name": "_state",
          "type": "bytes"
        },
        {
          "name": "_total",
          "type": "uint256"
        }
      ],
      "name": "payout",
      "outputs": [
        {
          "name": "",
          "type": "uint256"
        },
        {
          "name": "",
          "type": "uint256"
        }
      ],
      "payable": false,
      "stateMutability": "pure",
      "type": "function"
    }
  ],
  "bytecode": "0x608060405234801561001057600080fd5b50610947806100206000396000f300608060405260043610610062576000357c0100000000000000000000000000000000000000000000000000000000900463ffffffff16806342cf2f81146100675780634cc93fb5146100b65780639061b92314610113578063fa79e2911461017e575b600080fd5b34801561007357600080fd5b506100a06004803603810190808035906020019082018035906020019190919293919293905050506101de565b6040518082815260200191505060405180910390f35b3480156100c257600080fd5b506100f960048036038101908080359060200190820180359060200191909192939192939080359060200190929190505050610235565b604051808215151515815260200191505060405180910390f35b34801561011f57600080fd5b50610164600480360381019080803590602001908201803590602001919091929391929390803590602001908201803590602001919091929391929390505050610594565b604051808215151515815260200191505060405180910390f35b34801561018a57600080fd5b506101c1600480360381019080803590602001908201803590602001919091929391929390803590602001909291905050506107b6565b604051808381526020018281526020019250505060405180910390f35b60008061021c84848080601f0160208091040260200160405190810160405280939291908181526020018383808284378201915050505050506107c1565b90915090508060ff169050809150508091505092915050565b600061023f6108b3565b61027a85858080601f0160208091040260200160405190810160405280939291908181526020018383808284378201915050505050506107c1565b905050809150508281600660098110151561029157fe5b602002015160ff161480156102bb5750828160076009811015156102b157fe5b602002015160ff16145b80156102dc5750828160086009811015156102d257fe5b602002015160ff16145b8061033e5750828160036009811015156102f257fe5b602002015160ff1614801561031c57508281600460098110151561031257fe5b602002015160ff16145b801561033d57508281600560098110151561033357fe5b602002015160ff16145b5b806103a057508281600060098110151561035457fe5b602002015160ff1614801561037e57508281600160098110151561037457fe5b602002015160ff16145b801561039f57508281600260098110151561039557fe5b602002015160ff16145b5b806104025750828160066009811015156103b657fe5b602002015160ff161480156103e05750828160036009811015156103d657fe5b602002015160ff16145b80156104015750828160006009811015156103f757fe5b602002015160ff16145b5b8061046457508281600760098110151561041857fe5b602002015160ff1614801561044257508281600460098110151561043857fe5b602002015160ff16145b801561046357508281600160098110151561045957fe5b602002015160ff16145b5b806104c657508281600860098110151561047a57fe5b602002015160ff161480156104a457508281600560098110151561049a57fe5b602002015160ff16145b80156104c55750828160026009811015156104bb57fe5b602002015160ff16145b5b806105285750828160066009811015156104dc57fe5b602002015160ff161480156105065750828160046009811015156104fc57fe5b602002015160ff16145b801561052757508281600260098110151561051d57fe5b602002015160ff16145b5b8061058a57508281600860098110151561053e57fe5b602002015160ff1614801561056857508281600460098110151561055e57fe5b602002015160ff16145b801561058957508281600060098110151561057f57fe5b602002015160ff16145b5b9150509392505050565b600061059e6108d7565b6105a66108f9565b6105ae6108b3565b6105b66108b3565b6105f189898080601f0160208091040260200160405190810160405280939291908181526020018383808284378201915050505050506107c1565b8060ff16905086600060028110151561060657fe5b6020020186600060028110151561061957fe5b602002018263ffffffff1663ffffffff168152508260ff1660ff1681525082945050505061067887878080601f0160208091040260200160405190810160405280939291908181526020018383808284378201915050505050506107c1565b8060ff16905086600160028110151561068d57fe5b602002018660016002811015156106a057fe5b602002018263ffffffff1663ffffffff168152508260ff1660ff168152508293505050508260016002811015156106d357fe5b602002015163ffffffff1660018460006002811015156106ef57fe5b60200201510163ffffffff1614151561070757600080fd5b60008285600160028110151561071957fe5b602002015160ff1660098110151561072d57fe5b602002015160ff1614158061079757508084600160028110151561074d57fe5b602002015160ff1660098110151561076157fe5b602002015160ff168285600060028110151561077957fe5b602002015160ff1660098110151561078d57fe5b602002015160ff16145b156107a557600094506107aa565b600194505b50505050949350505050565b600080935093915050565b6107c96108b3565b6000806107d46108b3565b600080600080600091505b6009821015610844578160200189015190506030817f0100000000000000000000000000000000000000000000000000000000000000900403858360098110151561082657fe5b602002019060ff16908160ff168152505081806001019250506107df565b60298901519350602a8901519250846030857f01000000000000000000000000000000000000000000000000000000000000009004036030857f010000000000000000000000000000000000000000000000000000000000000090040397509750975050505050509193909250565b61012060405190810160405280600990602082028038833980820191505090505090565b6040805190810160405280600290602082028038833980820191505090505090565b60408051908101604052806002906020820280388339808201915050905050905600a165627a7a723058206fd4d15da880c7a3a3d02f49ad58ad3528ae5c9dc4a2d500fa8299c5a495a8e60029",
  "source": "pragma solidity ^0.4.18;\n\nimport \"./ResolverInterface.sol\";\n\ncontract TicTacToeResolver is ResolverInterface {\n    \n    event Log(uint32 sequence1, uint32 sequence2);\n\n    struct State {\n        uint8[9] board; // 2 = O, 1 = X, 0 = not set\n        uint8 currMove; // position on the board of the current move\n        uint32 sequence; // counter\n    }\n\n    function resolve(bytes _previous, bytes _current) external pure returns(bool) {\n        // check if the current.move is valid based on _previous state\n        // check if the sequences are correct\n        \n        uint8[2] memory moves;\n        uint32[2] memory sequences;\n        \n        uint8[9] memory prevBoard;\n        uint8[9] memory currBoard;\n        \n        (prevBoard, moves[0], sequences[0]) = _getState(_previous);\n        (currBoard, moves[1], sequences[1]) = _getState(_current);\n        \n        require((sequences[0] + 1) == sequences[1]);\n        \n        // tried to set an already used field || played as a wrong type of player\n        if (prevBoard[moves[1]] != 0 || prevBoard[moves[0]] == currBoard[moves[1]]) {\n            return false;\n        }\n        \n        return true;\n    }\n\n    function getSequence(bytes _state) external view returns(uint) {\n        uint sequence;\n        (,,sequence) = _getState(_state);\n\n        return sequence;\n    }\n    \n    function isWinner(bytes _currState, uint _w) external pure returns(bool) {\n        \n        uint8[9] memory b;\n        \n        (b, , ) = _getState(_currState);\n        \n        return ((b[6] == _w && b[7] == _w && b[8] == _w) || // across the top\n            (b[3] == _w && b[4] == _w && b[5] == _w) || // across the middle\n            (b[0] == _w && b[1] == _w && b[2] == _w) || // across the bottom\n            (b[6] == _w && b[3] == _w && b[0] == _w) || // down the left side\n            (b[7] == _w && b[4] == _w && b[1] == _w) || // down the middle\n            (b[8] == _w && b[5] == _w && b[2] == _w) || // down the right side\n            (b[6] == _w && b[4] == _w && b[2] == _w) || // diagonal\n            (b[8] == _w && b[4] == _w && b[0] == _w)); // diagonal\n    }\n    \n    function payout(bytes _state, uint _total) external pure returns(uint, uint) {\n        \n    }\n    \n\n    function _getState(bytes _state) private pure returns(uint8[9], uint8, uint8) {\n        uint8[9] memory table;\n        \n        byte move;\n        byte sequence;\n\n        for (uint i=0; i<9; i++){\n            byte t;\n            assembly {\n                t := mload(add(_state, add(32, i)))\n            }\n            table[i] = uint8(t) - 48;\n        }\n        \n        assembly {\n            move := mload(add(_state, 41))\n            sequence := mload(add(_state, 42))\n        }\n        \n        return (table, uint8(move)-48, uint8(sequence)-48);\n    }\n    \n    function _getMove(bytes _state) private pure returns(uint8 move) {\n        assembly {\n            move := mload(add(_state, 80))\n        }\n    }\n    \n}",
  "sourcePath": "/Users/nikolaklipa/Decenter/StateChannels/solidity/contracts/TicTacToeResolver.sol",
  "compiler": {
    "name": "solc",
    "version": "0.4.24+commit.e67f0147.Emscripten.clang"
  },
  "schemaVersion": "2.0.0",
  "updatedAt": "2018-05-31T12:46:28.316Z"
}