{
  "contractName": "TicTacToeResolver",
  "abi": [
    {
      "anonymous": false,
      "inputs": [
        {
          "indexed": false,
          "name": "sequence1",
          "type": "uint32"
        },
        {
          "indexed": false,
          "name": "sequence2",
          "type": "uint32"
        }
      ],
      "name": "Log",
      "type": "event"
    },
    {
      "constant": true,
      "inputs": [
        {
          "name": "_previous",
          "type": "bytes"
        },
        {
          "name": "_current",
          "type": "bytes"
        }
      ],
      "name": "resolve",
      "outputs": [
        {
          "name": "",
          "type": "bool"
        }
      ],
      "payable": false,
      "stateMutability": "pure",
      "type": "function"
    },
    {
      "constant": true,
      "inputs": [
        {
          "name": "_currState",
          "type": "bytes"
        },
        {
          "name": "_w",
          "type": "uint256"
        }
      ],
      "name": "isWinner",
      "outputs": [
        {
          "name": "",
          "type": "bool"
        }
      ],
      "payable": false,
      "stateMutability": "pure",
      "type": "function"
    }
  ],
  "bytecode": "0x608060405234801561001057600080fd5b50610820806100206000396000f30060806040526004361061004c576000357c0100000000000000000000000000000000000000000000000000000000900463ffffffff1680634cc93fb5146100515780639061b923146100ae575b600080fd5b34801561005d57600080fd5b5061009460048036038101908080359060200190820180359060200191909192939192939080359060200190929190505050610119565b604051808215151515815260200191505060405180910390f35b3480156100ba57600080fd5b506100ff600480360381019080803590602001908201803590602001919091929391929390803590602001908201803590602001919091929391929390505050610478565b604051808215151515815260200191505060405180910390f35b600061012361078c565b61015e85858080601f01602080910402602001604051908101604052809392919081815260200183838082843782019150505050505061069a565b905050809150508281600660098110151561017557fe5b602002015160ff1614801561019f57508281600760098110151561019557fe5b602002015160ff16145b80156101c05750828160086009811015156101b657fe5b602002015160ff16145b806102225750828160036009811015156101d657fe5b602002015160ff161480156102005750828160046009811015156101f657fe5b602002015160ff16145b801561022157508281600560098110151561021757fe5b602002015160ff16145b5b8061028457508281600060098110151561023857fe5b602002015160ff1614801561026257508281600160098110151561025857fe5b602002015160ff16145b801561028357508281600260098110151561027957fe5b602002015160ff16145b5b806102e657508281600660098110151561029a57fe5b602002015160ff161480156102c45750828160036009811015156102ba57fe5b602002015160ff16145b80156102e55750828160006009811015156102db57fe5b602002015160ff16145b5b806103485750828160076009811015156102fc57fe5b602002015160ff1614801561032657508281600460098110151561031c57fe5b602002015160ff16145b801561034757508281600160098110151561033d57fe5b602002015160ff16145b5b806103aa57508281600860098110151561035e57fe5b602002015160ff1614801561038857508281600560098110151561037e57fe5b602002015160ff16145b80156103a957508281600260098110151561039f57fe5b602002015160ff16145b5b8061040c5750828160066009811015156103c057fe5b602002015160ff161480156103ea5750828160046009811015156103e057fe5b602002015160ff16145b801561040b57508281600260098110151561040157fe5b602002015160ff16145b5b8061046e57508281600860098110151561042257fe5b602002015160ff1614801561044c57508281600460098110151561044257fe5b602002015160ff16145b801561046d57508281600060098110151561046357fe5b602002015160ff16145b5b9150509392505050565b60006104826107b0565b61048a6107d2565b61049261078c565b61049a61078c565b6104d589898080601f01602080910402602001604051908101604052809392919081815260200183838082843782019150505050505061069a565b8060ff1690508660006002811015156104ea57fe5b602002018660006002811015156104fd57fe5b602002018263ffffffff1663ffffffff168152508260ff1660ff1681525082945050505061055c87878080601f01602080910402602001604051908101604052809392919081815260200183838082843782019150505050505061069a565b8060ff16905086600160028110151561057157fe5b6020020186600160028110151561058457fe5b602002018263ffffffff1663ffffffff168152508260ff1660ff168152508293505050508260016002811015156105b757fe5b602002015163ffffffff1660018460006002811015156105d357fe5b60200201510163ffffffff161415156105eb57600080fd5b6000828560016002811015156105fd57fe5b602002015160ff1660098110151561061157fe5b602002015160ff1614158061067b57508084600160028110151561063157fe5b602002015160ff1660098110151561064557fe5b602002015160ff168285600060028110151561065d57fe5b602002015160ff1660098110151561067157fe5b602002015160ff16145b15610689576000945061068e565b600194505b50505050949350505050565b6106a261078c565b6000806106ad61078c565b600080600080600091505b600982101561071d578160200189015190506030817f010000000000000000000000000000000000000000000000000000000000000090040385836009811015156106ff57fe5b602002019060ff16908160ff168152505081806001019250506106b8565b60298901519350602a8901519250846030857f01000000000000000000000000000000000000000000000000000000000000009004036030857f010000000000000000000000000000000000000000000000000000000000000090040397509750975050505050509193909250565b61012060405190810160405280600990602082028038833980820191505090505090565b6040805190810160405280600290602082028038833980820191505090505090565b60408051908101604052806002906020820280388339808201915050905050905600a165627a7a723058207298bba0a780da7658e8f32d65b90bf737cda43dc4046a07638d263bba4b096a0029",
  "source": "pragma solidity ^0.4.18;\n\nimport \"./ResolverInterface.sol\";\n\ncontract TicTacToeResolver is ResolverInterface {\n    \n    event Log(uint32 sequence1, uint32 sequence2);\n\n    struct State {\n        uint8[9] board; // 2 = O, 1 = X, 0 = not set\n        uint8 currMove; // position on the board of the current move\n        uint32 sequence; // counter\n    }\n\n    function resolve(bytes _previous, bytes _current) external pure returns(bool) {\n        // check if the current.move is valid based on _previous state\n        // check if the sequences are correct\n        \n        uint8[2] memory moves;\n        uint32[2] memory sequences;\n        \n        uint8[9] memory prevBoard;\n        uint8[9] memory currBoard;\n        \n        (prevBoard, moves[0], sequences[0]) = _getState(_previous);\n        (currBoard, moves[1], sequences[1]) = _getState(_current);\n        \n        require((sequences[0] + 1) == sequences[1]);\n        \n        // tried to set an already used field || played as a wrong type of player\n        if (prevBoard[moves[1]] != 0 || prevBoard[moves[0]] == currBoard[moves[1]]) {\n            return false;\n        }\n        \n        return true;\n    }\n    \n    function isWinner(bytes _currState, uint _w) external pure returns(bool) {\n        \n        uint8[9] memory b;\n        \n        (b, , ) = _getState(_currState);\n        \n        return ((b[6] == _w && b[7] == _w && b[8] == _w) || // across the top\n            (b[3] == _w && b[4] == _w && b[5] == _w) || // across the middle\n            (b[0] == _w && b[1] == _w && b[2] == _w) || // across the bottom\n            (b[6] == _w && b[3] == _w && b[0] == _w) || // down the left side\n            (b[7] == _w && b[4] == _w && b[1] == _w) || // down the middle\n            (b[8] == _w && b[5] == _w && b[2] == _w) || // down the right side\n            (b[6] == _w && b[4] == _w && b[2] == _w) || // diagonal\n            (b[8] == _w && b[4] == _w && b[0] == _w)); // diagonal\n    }\n    \n    function _getState(bytes _state) private pure returns(uint8[9], uint8, uint8) {\n        uint8[9] memory table;\n        \n        byte move;\n        byte sequence;\n\n        for (uint i=0; i<9; i++){\n            byte t;\n            assembly {\n                t := mload(add(_state, add(32, i)))\n            }\n            table[i] = uint8(t) - 48;\n        }\n        \n        assembly {\n            move := mload(add(_state, 41))\n            sequence := mload(add(_state, 42))\n        }\n        \n        return (table, uint8(move)-48, uint8(sequence)-48);\n    }\n    \n    function _getMove(bytes _state) private pure returns(uint8 move) {\n        assembly {\n            move := mload(add(_state, 80))\n        }\n    }\n    \n}",
  "sourcePath": "/Users/nenadpalinkasevic/Desktop/blockchain/StateChannels/solidity/contracts/TicTacToeResolver.sol",
  "compiler": {
    "name": "solc",
    "version": "0.4.23+commit.124ca40d.Emscripten.clang"
  },
  "schemaVersion": "2.0.0",
  "updatedAt": "2018-05-09T09:01:01.532Z"
}