{
  "contractName": "TicTacToeResolver",
  "abi": [
    {
      "anonymous": false,
      "inputs": [
        {
          "indexed": false,
          "name": "sequence1",
          "type": "uint32"
        },
        {
          "indexed": false,
          "name": "sequence2",
          "type": "uint32"
        }
      ],
      "name": "Log",
      "type": "event"
    },
    {
      "constant": true,
      "inputs": [
        {
          "name": "_previous",
          "type": "bytes"
        },
        {
          "name": "_current",
          "type": "bytes"
        }
      ],
      "name": "resolve",
      "outputs": [
        {
          "name": "",
          "type": "bool"
        }
      ],
      "payable": false,
      "stateMutability": "pure",
      "type": "function"
    },
    {
      "constant": true,
      "inputs": [
        {
          "name": "_state",
          "type": "bytes"
        }
      ],
      "name": "getSequence",
      "outputs": [
        {
          "name": "",
          "type": "uint256"
        }
      ],
      "payable": false,
      "stateMutability": "view",
      "type": "function"
    },
    {
      "constant": true,
      "inputs": [
        {
          "name": "_currState",
          "type": "bytes"
        },
        {
          "name": "_w",
          "type": "uint256"
        }
      ],
      "name": "isWinner",
      "outputs": [
        {
          "name": "",
          "type": "bool"
        }
      ],
      "payable": false,
      "stateMutability": "pure",
      "type": "function"
    }
  ],
  "bytecode": "0x608060405234801561001057600080fd5b506108d1806100206000396000f300608060405260043610610057576000357c0100000000000000000000000000000000000000000000000000000000900463ffffffff16806342cf2f811461005c5780634cc93fb5146100ab5780639061b92314610108575b600080fd5b34801561006857600080fd5b50610095600480360381019080803590602001908201803590602001919091929391929390505050610173565b6040518082815260200191505060405180910390f35b3480156100b757600080fd5b506100ee600480360381019080803590602001908201803590602001919091929391929390803590602001909291905050506101ca565b604051808215151515815260200191505060405180910390f35b34801561011457600080fd5b50610159600480360381019080803590602001908201803590602001919091929391929390803590602001908201803590602001919091929391929390505050610529565b604051808215151515815260200191505060405180910390f35b6000806101b184848080601f01602080910402602001604051908101604052809392919081815260200183838082843782019150505050505061074b565b90915090508060ff169050809150508091505092915050565b60006101d461083d565b61020f85858080601f01602080910402602001604051908101604052809392919081815260200183838082843782019150505050505061074b565b905050809150508281600660098110151561022657fe5b602002015160ff1614801561025057508281600760098110151561024657fe5b602002015160ff16145b801561027157508281600860098110151561026757fe5b602002015160ff16145b806102d357508281600360098110151561028757fe5b602002015160ff161480156102b15750828160046009811015156102a757fe5b602002015160ff16145b80156102d25750828160056009811015156102c857fe5b602002015160ff16145b5b806103355750828160006009811015156102e957fe5b602002015160ff1614801561031357508281600160098110151561030957fe5b602002015160ff16145b801561033457508281600260098110151561032a57fe5b602002015160ff16145b5b8061039757508281600660098110151561034b57fe5b602002015160ff1614801561037557508281600360098110151561036b57fe5b602002015160ff16145b801561039657508281600060098110151561038c57fe5b602002015160ff16145b5b806103f95750828160076009811015156103ad57fe5b602002015160ff161480156103d75750828160046009811015156103cd57fe5b602002015160ff16145b80156103f85750828160016009811015156103ee57fe5b602002015160ff16145b5b8061045b57508281600860098110151561040f57fe5b602002015160ff1614801561043957508281600560098110151561042f57fe5b602002015160ff16145b801561045a57508281600260098110151561045057fe5b602002015160ff16145b5b806104bd57508281600660098110151561047157fe5b602002015160ff1614801561049b57508281600460098110151561049157fe5b602002015160ff16145b80156104bc5750828160026009811015156104b257fe5b602002015160ff16145b5b8061051f5750828160086009811015156104d357fe5b602002015160ff161480156104fd5750828160046009811015156104f357fe5b602002015160ff16145b801561051e57508281600060098110151561051457fe5b602002015160ff16145b5b9150509392505050565b6000610533610861565b61053b610883565b61054361083d565b61054b61083d565b61058689898080601f01602080910402602001604051908101604052809392919081815260200183838082843782019150505050505061074b565b8060ff16905086600060028110151561059b57fe5b602002018660006002811015156105ae57fe5b602002018263ffffffff1663ffffffff168152508260ff1660ff1681525082945050505061060d87878080601f01602080910402602001604051908101604052809392919081815260200183838082843782019150505050505061074b565b8060ff16905086600160028110151561062257fe5b6020020186600160028110151561063557fe5b602002018263ffffffff1663ffffffff168152508260ff1660ff1681525082935050505082600160028110151561066857fe5b602002015163ffffffff16600184600060028110151561068457fe5b60200201510163ffffffff1614151561069c57600080fd5b6000828560016002811015156106ae57fe5b602002015160ff166009811015156106c257fe5b602002015160ff1614158061072c5750808460016002811015156106e257fe5b602002015160ff166009811015156106f657fe5b602002015160ff168285600060028110151561070e57fe5b602002015160ff1660098110151561072257fe5b602002015160ff16145b1561073a576000945061073f565b600194505b50505050949350505050565b61075361083d565b60008061075e61083d565b600080600080600091505b60098210156107ce578160200189015190506030817f010000000000000000000000000000000000000000000000000000000000000090040385836009811015156107b057fe5b602002019060ff16908160ff16815250508180600101925050610769565b60298901519350602a8901519250846030857f01000000000000000000000000000000000000000000000000000000000000009004036030857f010000000000000000000000000000000000000000000000000000000000000090040397509750975050505050509193909250565b61012060405190810160405280600990602082028038833980820191505090505090565b6040805190810160405280600290602082028038833980820191505090505090565b60408051908101604052806002906020820280388339808201915050905050905600a165627a7a72305820867730b5faf2b4ea4c41fe667ec4a0456cc4964924282d2e78a9c298bbab34950029",
  "source": "pragma solidity ^0.4.18;\n\nimport \"./ResolverInterface.sol\";\n\ncontract TicTacToeResolver is ResolverInterface {\n    \n    event Log(uint32 sequence1, uint32 sequence2);\n\n    struct State {\n        uint8[9] board; // 2 = O, 1 = X, 0 = not set\n        uint8 currMove; // position on the board of the current move\n        uint32 sequence; // counter\n    }\n\n    function resolve(bytes _previous, bytes _current) external pure returns(bool) {\n        // check if the current.move is valid based on _previous state\n        // check if the sequences are correct\n        \n        uint8[2] memory moves;\n        uint32[2] memory sequences;\n        \n        uint8[9] memory prevBoard;\n        uint8[9] memory currBoard;\n        \n        (prevBoard, moves[0], sequences[0]) = _getState(_previous);\n        (currBoard, moves[1], sequences[1]) = _getState(_current);\n        \n        require((sequences[0] + 1) == sequences[1]);\n        \n        // tried to set an already used field || played as a wrong type of player\n        if (prevBoard[moves[1]] != 0 || prevBoard[moves[0]] == currBoard[moves[1]]) {\n            return false;\n        }\n        \n        return true;\n    }\n\n    function getSequence(bytes _state) external view returns(uint) {\n        uint sequence;\n        (,,sequence) = _getState(_state);\n\n        return sequence;\n    }\n    \n    function isWinner(bytes _currState, uint _w) external pure returns(bool) {\n        \n        uint8[9] memory b;\n        \n        (b, , ) = _getState(_currState);\n        \n        return ((b[6] == _w && b[7] == _w && b[8] == _w) || // across the top\n            (b[3] == _w && b[4] == _w && b[5] == _w) || // across the middle\n            (b[0] == _w && b[1] == _w && b[2] == _w) || // across the bottom\n            (b[6] == _w && b[3] == _w && b[0] == _w) || // down the left side\n            (b[7] == _w && b[4] == _w && b[1] == _w) || // down the middle\n            (b[8] == _w && b[5] == _w && b[2] == _w) || // down the right side\n            (b[6] == _w && b[4] == _w && b[2] == _w) || // diagonal\n            (b[8] == _w && b[4] == _w && b[0] == _w)); // diagonal\n    }\n    \n    function _getState(bytes _state) private pure returns(uint8[9], uint8, uint8) {\n        uint8[9] memory table;\n        \n        byte move;\n        byte sequence;\n\n        for (uint i=0; i<9; i++){\n            byte t;\n            assembly {\n                t := mload(add(_state, add(32, i)))\n            }\n            table[i] = uint8(t) - 48;\n        }\n        \n        assembly {\n            move := mload(add(_state, 41))\n            sequence := mload(add(_state, 42))\n        }\n        \n        return (table, uint8(move)-48, uint8(sequence)-48);\n    }\n    \n    function _getMove(bytes _state) private pure returns(uint8 move) {\n        assembly {\n            move := mload(add(_state, 80))\n        }\n    }\n    \n}",
  "sourcePath": "/Users/nikolaklipa/Decenter/StateChannels/solidity/contracts/TicTacToeResolver.sol",
  "compiler": {
    "name": "solc",
    "version": "0.4.23+commit.124ca40d.Emscripten.clang"
  },
  "schemaVersion": "2.0.0",
  "updatedAt": "2018-05-22T11:03:59.204Z"
}