{
  "contractName": "TicTacToeResolver",
  "abi": [
    {
      "constant": true,
      "inputs": [
        {
          "name": "_currState",
          "type": "bytes"
        },
        {
          "name": "_w",
          "type": "uint256"
        }
      ],
      "name": "isWinner",
      "outputs": [
        {
          "name": "",
          "type": "bool"
        }
      ],
      "payable": false,
      "stateMutability": "pure",
      "type": "function"
    },
    {
      "constant": true,
      "inputs": [
        {
          "name": "_previous",
          "type": "bytes"
        },
        {
          "name": "_current",
          "type": "bytes"
        }
      ],
      "name": "resolve",
      "outputs": [
        {
          "name": "",
          "type": "bool"
        }
      ],
      "payable": false,
      "stateMutability": "pure",
      "type": "function"
    },
    {
      "anonymous": false,
      "inputs": [
        {
          "indexed": false,
          "name": "sequence1",
          "type": "uint32"
        },
        {
          "indexed": false,
          "name": "sequence2",
          "type": "uint32"
        }
      ],
      "name": "Log",
      "type": "event"
    }
  ],
  "bytecode": "0x6060604052341561000f57600080fd5b61081c8061001e6000396000f30060606040526004361061004c576000357c0100000000000000000000000000000000000000000000000000000000900463ffffffff1680634cc93fb5146100515780639061b923146100a0575b600080fd5b341561005c57600080fd5b610086600480803590602001908201803590602001919091929080359060200190919050506100fa565b604051808215151515815260200191505060405180910390f35b34156100ab57600080fd5b6100e0600480803590602001908201803590602001919091929080359060200190820180359060200191909192905050610459565b604051808215151515815260200191505060405180910390f35b600061010461076d565b61013f85858080601f01602080910402602001604051908101604052809392919081815260200183838082843782019150505050505061067b565b905050809150508281600660098110151561015657fe5b602002015160ff1614801561018057508281600760098110151561017657fe5b602002015160ff16145b80156101a157508281600860098110151561019757fe5b602002015160ff16145b806102035750828160036009811015156101b757fe5b602002015160ff161480156101e15750828160046009811015156101d757fe5b602002015160ff16145b80156102025750828160056009811015156101f857fe5b602002015160ff16145b5b8061026557508281600060098110151561021957fe5b602002015160ff1614801561024357508281600160098110151561023957fe5b602002015160ff16145b801561026457508281600260098110151561025a57fe5b602002015160ff16145b5b806102c757508281600660098110151561027b57fe5b602002015160ff161480156102a557508281600360098110151561029b57fe5b602002015160ff16145b80156102c65750828160006009811015156102bc57fe5b602002015160ff16145b5b806103295750828160076009811015156102dd57fe5b602002015160ff161480156103075750828160046009811015156102fd57fe5b602002015160ff16145b801561032857508281600160098110151561031e57fe5b602002015160ff16145b5b8061038b57508281600860098110151561033f57fe5b602002015160ff1614801561036957508281600560098110151561035f57fe5b602002015160ff16145b801561038a57508281600260098110151561038057fe5b602002015160ff16145b5b806103ed5750828160066009811015156103a157fe5b602002015160ff161480156103cb5750828160046009811015156103c157fe5b602002015160ff16145b80156103ec5750828160026009811015156103e257fe5b602002015160ff16145b5b8061044f57508281600860098110151561040357fe5b602002015160ff1614801561042d57508281600460098110151561042357fe5b602002015160ff16145b801561044e57508281600060098110151561044457fe5b602002015160ff16145b5b9150509392505050565b6000610463610799565b61046b6107c3565b61047361076d565b61047b61076d565b6104b689898080601f01602080910402602001604051908101604052809392919081815260200183838082843782019150505050505061067b565b8060ff1690508660006002811015156104cb57fe5b602002018660006002811015156104de57fe5b602002018263ffffffff1663ffffffff168152508260ff1660ff1681525082945050505061053d87878080601f01602080910402602001604051908101604052809392919081815260200183838082843782019150505050505061067b565b8060ff16905086600160028110151561055257fe5b6020020186600160028110151561056557fe5b602002018263ffffffff1663ffffffff168152508260ff1660ff1681525082935050505082600160028110151561059857fe5b602002015163ffffffff1660018460006002811015156105b457fe5b60200201510163ffffffff161415156105cc57600080fd5b6000828560016002811015156105de57fe5b602002015160ff166009811015156105f257fe5b602002015160ff1614158061065c57508084600160028110151561061257fe5b602002015160ff1660098110151561062657fe5b602002015160ff168285600060028110151561063e57fe5b602002015160ff1660098110151561065257fe5b602002015160ff16145b1561066a576000945061066f565b600194505b50505050949350505050565b61068361076d565b60008061068e61076d565b600080600080600091505b60098210156106fe578160200189015190506030817f010000000000000000000000000000000000000000000000000000000000000090040385836009811015156106e057fe5b602002019060ff16908160ff16815250508180600101925050610699565b60298901519350602a8901519250846030857f01000000000000000000000000000000000000000000000000000000000000009004036030857f010000000000000000000000000000000000000000000000000000000000000090040397509750975050505050509193909250565b610120604051908101604052806009905b600060ff1681526020019060019003908161077e5790505090565b60408051908101604052806002905b600060ff168152602001906001900390816107a85790505090565b60408051908101604052806002905b600063ffffffff168152602001906001900390816107d257905050905600a165627a7a72305820ed8d1bc9e71c2446304f747eec6aaac5f38e3715c37c29f43169144a1d3f59500029",
  "source": "pragma solidity 0.4.18;\n\nimport \"./ResolverInterface.sol\";\n\ncontract TicTacToeResolver is ResolverInterface {\n    \n    event Log(uint32 sequence1, uint32 sequence2);\n\n    struct State {\n        uint8[9] board; // 2 = O, 1 = X, 0 = not set\n        uint8 currMove; // position on the board of the current move\n        uint32 sequence; // counter\n    }\n\n    function resolve(bytes _previous, bytes _current) external pure returns(bool) {\n        // check if the current.move is valid based on _previous state\n        // check if the sequences are correct\n        \n        uint8[2] memory moves;\n        uint32[2] memory sequences;\n        \n        uint8[9] memory prevBoard;\n        uint8[9] memory currBoard;\n        \n        (prevBoard, moves[0], sequences[0]) = _getState(_previous);\n        (currBoard, moves[1], sequences[1]) = _getState(_current);\n        \n        require((sequences[0] + 1) == sequences[1]);\n        \n        // tried to set an already used field || played as a wrong type of player\n        if (prevBoard[moves[1]] != 0 || prevBoard[moves[0]] == currBoard[moves[1]]) {\n            return false;\n        }\n        \n        return true;\n    }\n    \n    function isWinner(bytes _currState, uint _w) external pure returns(bool) {\n        \n        uint8[9] memory b;\n        \n        (b, , ) = _getState(_currState);\n        \n        return ((b[6] == _w && b[7] == _w && b[8] == _w) || // across the top\n            (b[3] == _w && b[4] == _w && b[5] == _w) || // across the middle\n            (b[0] == _w && b[1] == _w && b[2] == _w) || // across the bottom\n            (b[6] == _w && b[3] == _w && b[0] == _w) || // down the left side\n            (b[7] == _w && b[4] == _w && b[1] == _w) || // down the middle\n            (b[8] == _w && b[5] == _w && b[2] == _w) || // down the right side\n            (b[6] == _w && b[4] == _w && b[2] == _w) || // diagonal\n            (b[8] == _w && b[4] == _w && b[0] == _w)); // diagonal\n    }\n    \n    function _getState(bytes _state) private pure returns(uint8[9], uint8, uint8) {\n        uint8[9] memory table;\n        \n        byte move;\n        byte sequence;\n\n        for (uint i=0; i<9; i++){\n            byte t;\n            assembly {\n                t := mload(add(_state, add(32, i)))\n            }\n            table[i] = uint8(t) - 48;\n        }\n        \n        assembly {\n            move := mload(add(_state, 41))\n            sequence := mload(add(_state, 42))\n        }\n        \n        return (table, uint8(move)-48, uint8(sequence)-48);\n    }\n    \n    function _getMove(bytes _state) private pure returns(uint8 move) {\n        assembly {\n            move := mload(add(_state, 80))\n        }\n    }\n    \n}",
  "sourcePath": "/Users/nenadpalinkasevic/Desktop/blockchain/StateChannels/solidity/contracts/TicTacToeResolver.sol",
  "compiler": {
    "name": "solc",
    "version": "0.4.18+commit.9cf6e910.Emscripten.clang"
  },
  "schemaVersion": "1.0.1",
  "updatedAt": "2018-03-22T14:44:17.362Z"
}